{
  "contractName": "Base",
  "abi": [
    {
      "constant": true,
      "inputs": [],
      "name": "getDb",
      "outputs": [
        {
          "name": "",
          "type": "address"
        }
      ],
      "payable": false,
      "stateMutability": "view",
      "type": "function"
    },
    {
      "constant": false,
      "inputs": [],
      "name": "kill",
      "outputs": [],
      "payable": false,
      "stateMutability": "nonpayable",
      "type": "function"
    },
    {
      "constant": false,
      "inputs": [
        {
          "name": "_value",
          "type": "uint64"
        }
      ],
      "name": "transferOwner",
      "outputs": [
        {
          "name": "",
          "type": "bool"
        }
      ],
      "payable": false,
      "stateMutability": "nonpayable",
      "type": "function"
    },
    {
      "constant": true,
      "inputs": [],
      "name": "productDb",
      "outputs": [
        {
          "name": "",
          "type": "address"
        }
      ],
      "payable": false,
      "stateMutability": "view",
      "type": "function"
    },
    {
      "constant": true,
      "inputs": [],
      "name": "owneraddress",
      "outputs": [
        {
          "name": "",
          "type": "address"
        }
      ],
      "payable": false,
      "stateMutability": "view",
      "type": "function"
    },
    {
      "inputs": [],
      "payable": false,
      "stateMutability": "nonpayable",
      "type": "constructor"
    }
  ],
  "bytecode": "0x6060604052341561000f57600080fd5b336000806101000a81548173ffffffffffffffffffffffffffffffffffffffff021916908373ffffffffffffffffffffffffffffffffffffffff1602179055506104308061005e6000396000f30060606040526004361061006d576000357c0100000000000000000000000000000000000000000000000000000000900463ffffffff16806337cbf4351461007257806341c0e1b5146100c75780635df80d58146100dc5780637456f87c14610121578063aaa4842514610176575b600080fd5b341561007d57600080fd5b6100856101cb565b604051808273ffffffffffffffffffffffffffffffffffffffff1673ffffffffffffffffffffffffffffffffffffffff16815260200191505060405180910390f35b34156100d257600080fd5b6100da610254565b005b34156100e757600080fd5b610107600480803567ffffffffffffffff169060200190919050506102e8565b604051808215151515815260200191505060405180910390f35b341561012c57600080fd5b6101346103b5565b604051808273ffffffffffffffffffffffffffffffffffffffff1673ffffffffffffffffffffffffffffffffffffffff16815260200191505060405180910390f35b341561018157600080fd5b6101896103db565b604051808273ffffffffffffffffffffffffffffffffffffffff1673ffffffffffffffffffffffffffffffffffffffff16815260200191505060405180910390f35b60003373ffffffffffffffffffffffffffffffffffffffff166000809054906101000a900473ffffffffffffffffffffffffffffffffffffffff1673ffffffffffffffffffffffffffffffffffffffff16141561024c57600160009054906101000a900473ffffffffffffffffffffffffffffffffffffffff169050610251565b600080fd5b90565b3373ffffffffffffffffffffffffffffffffffffffff166000809054906101000a900473ffffffffffffffffffffffffffffffffffffffff1673ffffffffffffffffffffffffffffffffffffffff1614156102e3576000809054906101000a900473ffffffffffffffffffffffffffffffffffffffff1673ffffffffffffffffffffffffffffffffffffffff16ff5b600080fd5b6000803373ffffffffffffffffffffffffffffffffffffffff166000809054906101000a900473ffffffffffffffffffffffffffffffffffffffff1673ffffffffffffffffffffffffffffffffffffffff1614156103aa576000809054906101000a900473ffffffffffffffffffffffffffffffffffffffff1673ffffffffffffffffffffffffffffffffffffffff166108fc8467ffffffffffffffff169081150290604051600060405180830381858888f1935050505090508091506103af565b600080fd5b50919050565b600160009054906101000a900473ffffffffffffffffffffffffffffffffffffffff1681565b60008060009054906101000a900473ffffffffffffffffffffffffffffffffffffffff169050905600a165627a7a723058206bc89aedd0057af105122a431d81857525e40d78cbc2f14199305e2462a9d1310029",
  "source": "pragma solidity ^0.4.4;\nimport \"./ProductRegistry.sol\";\n\ncontract Base{\n    \n    address owner;\n    ProductRegistry public  productDb;\n\n    modifier onlyOwner(){\n        if (owner==msg.sender){\n            _;\n        }else{\n            revert();\n        }\n    }\n\n    function Base  () public{\n        owner = msg.sender ;\n    }\n\n    function getDb() public view onlyOwner returns  (address){\n        return address(productDb);\n    }\n\n    function transferOwner(uint64 _value)\n    public\n    onlyOwner\n    returns (bool){\n        bool sent = owner.send(_value);\n        return sent;\n    }\n\n    function kill() public onlyOwner{\n\n        selfdestruct(owner);\n    }\n\n    function owneraddress() public view returns(address){\n\n        return owner;\n    }\n}\n",
  "sourcePath": "/Users/fatih/Desktop/Reacts/product-bazaar/contracts/Base.sol",
  "compiler": {
    "name": "solc",
    "version": "0.4.18+commit.9cf6e910.Emscripten.clang"
  },
  "schemaVersion": "1.0.1",
  "updatedAt": "2018-03-26T14:55:36.681Z"
}