{
  "contractName": "Base",
  "abi": [
    {
      "constant": false,
      "inputs": [],
      "name": "getDb",
      "outputs": [
        {
          "name": "",
          "type": "address"
        }
      ],
      "payable": false,
      "stateMutability": "nonpayable",
      "type": "function"
    },
    {
      "constant": false,
      "inputs": [],
      "name": "kill",
      "outputs": [],
      "payable": false,
      "stateMutability": "nonpayable",
      "type": "function"
    },
    {
      "constant": true,
      "inputs": [],
      "name": "productDb",
      "outputs": [
        {
          "name": "",
          "type": "address"
        }
      ],
      "payable": false,
      "stateMutability": "view",
      "type": "function"
    },
    {
      "constant": true,
      "inputs": [],
      "name": "owneraddress",
      "outputs": [
        {
          "name": "",
          "type": "address"
        }
      ],
      "payable": false,
      "stateMutability": "view",
      "type": "function"
    },
    {
      "inputs": [],
      "payable": false,
      "stateMutability": "nonpayable",
      "type": "constructor"
    }
  ],
  "bytecode": "0x6060604052341561000f57600080fd5b336000806101000a81548173ffffffffffffffffffffffffffffffffffffffff021916908373ffffffffffffffffffffffffffffffffffffffff1602179055506103138061005e6000396000f300606060405260043610610062576000357c0100000000000000000000000000000000000000000000000000000000900463ffffffff16806337cbf4351461006757806341c0e1b5146100bc5780637456f87c146100d1578063aaa4842514610126575b600080fd5b341561007257600080fd5b61007a61017b565b604051808273ffffffffffffffffffffffffffffffffffffffff1673ffffffffffffffffffffffffffffffffffffffff16815260200191505060405180910390f35b34156100c757600080fd5b6100cf610204565b005b34156100dc57600080fd5b6100e4610298565b604051808273ffffffffffffffffffffffffffffffffffffffff1673ffffffffffffffffffffffffffffffffffffffff16815260200191505060405180910390f35b341561013157600080fd5b6101396102be565b604051808273ffffffffffffffffffffffffffffffffffffffff1673ffffffffffffffffffffffffffffffffffffffff16815260200191505060405180910390f35b60003373ffffffffffffffffffffffffffffffffffffffff166000809054906101000a900473ffffffffffffffffffffffffffffffffffffffff1673ffffffffffffffffffffffffffffffffffffffff1614156101fc57600160009054906101000a900473ffffffffffffffffffffffffffffffffffffffff169050610201565b600080fd5b90565b3373ffffffffffffffffffffffffffffffffffffffff166000809054906101000a900473ffffffffffffffffffffffffffffffffffffffff1673ffffffffffffffffffffffffffffffffffffffff161415610293576000809054906101000a900473ffffffffffffffffffffffffffffffffffffffff1673ffffffffffffffffffffffffffffffffffffffff16ff5b600080fd5b600160009054906101000a900473ffffffffffffffffffffffffffffffffffffffff1681565b60008060009054906101000a900473ffffffffffffffffffffffffffffffffffffffff169050905600a165627a7a723058202dabfcb827ff5494d446c7cb27529d51201c953ad6e75ab2a8e175355d01d0030029",
  "source": "pragma solidity ^0.4.4;\nimport \"./ProductRegistry.sol\";\n\ncontract Base{\n    address owner;\n    ProductRegistry public  productDb;\n\n\n    modifier onlyOwner(){\n        if (owner==msg.sender){\n        _;\n        }else{\n            revert();\n        }\n    }\n\n    function Base  () public{\n          owner= msg.sender;\n\n\n\n          /*\n              productDbv2=ProductRegistry(_proRegistry);\n          if (productDb==address(0)){\n          productDb=new ProductRegistry(_proRegistry);\n        }\n        */\n    }\n\n    function getDb() public onlyOwner returns  (address){\n      return address(productDb);\n    }\n\n\n    function kill() public onlyOwner{\n\n        selfdestruct(owner);\n    }\n\n    function owneraddress() public view returns(address){\n\n        return owner;\n    }\n}\n",
  "sourcePath": "/Users/fatih/Desktop/ethExchange/contracts/Base.sol",
  "compiler": {
    "name": "solc",
    "version": "0.4.18+commit.9cf6e910.Emscripten.clang"
  },
  "schemaVersion": "1.0.1",
  "updatedAt": "2018-03-10T15:57:07.059Z"
}