{
  "contractName": "Buyer",
  "abi": [
    {
      "constant": false,
      "inputs": [],
      "name": "getDb",
      "outputs": [
        {
          "name": "",
          "type": "address"
        }
      ],
      "payable": false,
      "stateMutability": "nonpayable",
      "type": "function"
    },
    {
      "constant": false,
      "inputs": [],
      "name": "kill",
      "outputs": [],
      "payable": false,
      "stateMutability": "nonpayable",
      "type": "function"
    },
    {
      "constant": false,
      "inputs": [
        {
          "name": "_product",
          "type": "address"
        }
      ],
      "name": "lockProduct",
      "outputs": [
        {
          "name": "",
          "type": "bool"
        }
      ],
      "payable": true,
      "stateMutability": "payable",
      "type": "function"
    },
    {
      "constant": true,
      "inputs": [],
      "name": "productDb",
      "outputs": [
        {
          "name": "",
          "type": "address"
        }
      ],
      "payable": false,
      "stateMutability": "view",
      "type": "function"
    },
    {
      "constant": true,
      "inputs": [],
      "name": "owneraddress",
      "outputs": [
        {
          "name": "",
          "type": "address"
        }
      ],
      "payable": false,
      "stateMutability": "view",
      "type": "function"
    },
    {
      "constant": false,
      "inputs": [
        {
          "name": "_product",
          "type": "address"
        }
      ],
      "name": "buyProduct",
      "outputs": [
        {
          "name": "",
          "type": "bool"
        }
      ],
      "payable": true,
      "stateMutability": "payable",
      "type": "function"
    },
    {
      "inputs": [
        {
          "name": "_proRegistry",
          "type": "address"
        }
      ],
      "payable": false,
      "stateMutability": "nonpayable",
      "type": "constructor"
    }
  ],
  "bytecode": "0x6060604052341561000f57600080fd5b6040516020806107f983398101604052808051906020019091905050336000806101000a81548173ffffffffffffffffffffffffffffffffffffffff021916908373ffffffffffffffffffffffffffffffffffffffff16021790555080600160006101000a81548173ffffffffffffffffffffffffffffffffffffffff021916908373ffffffffffffffffffffffffffffffffffffffff1602179055505061073d806100bc6000396000f300606060405260043610610078576000357c0100000000000000000000000000000000000000000000000000000000900463ffffffff16806337cbf4351461007d57806341c0e1b5146100d25780634d97e5a0146100e75780637456f87c1461012d578063aaa4842514610182578063d6c86897146101d7575b600080fd5b341561008857600080fd5b61009061021d565b604051808273ffffffffffffffffffffffffffffffffffffffff1673ffffffffffffffffffffffffffffffffffffffff16815260200191505060405180910390f35b34156100dd57600080fd5b6100e56102a6565b005b610113600480803573ffffffffffffffffffffffffffffffffffffffff1690602001909190505061033a565b604051808215151515815260200191505060405180910390f35b341561013857600080fd5b61014061049d565b604051808273ffffffffffffffffffffffffffffffffffffffff1673ffffffffffffffffffffffffffffffffffffffff16815260200191505060405180910390f35b341561018d57600080fd5b6101956104c3565b604051808273ffffffffffffffffffffffffffffffffffffffff1673ffffffffffffffffffffffffffffffffffffffff16815260200191505060405180910390f35b610203600480803573ffffffffffffffffffffffffffffffffffffffff169060200190919050506104ec565b604051808215151515815260200191505060405180910390f35b60003373ffffffffffffffffffffffffffffffffffffffff166000809054906101000a900473ffffffffffffffffffffffffffffffffffffffff1673ffffffffffffffffffffffffffffffffffffffff16141561029e57600160009054906101000a900473ffffffffffffffffffffffffffffffffffffffff1690506102a3565b600080fd5b90565b3373ffffffffffffffffffffffffffffffffffffffff166000809054906101000a900473ffffffffffffffffffffffffffffffffffffffff1673ffffffffffffffffffffffffffffffffffffffff161415610335576000809054906101000a900473ffffffffffffffffffffffffffffffffffffffff1673ffffffffffffffffffffffffffffffffffffffff16ff5b600080fd5b600080826402540be40034141580156103d757508073ffffffffffffffffffffffffffffffffffffffff1663129705786000604051602001526040518163ffffffff167c0100000000000000000000000000000000000000000000000000000000028152600401602060405180830381600087803b15156103ba57600080fd5b6102c65a03f115156103cb57600080fd5b50505060405180519050155b156103e157600080fd5b8391508173ffffffffffffffffffffffffffffffffffffffff16634d97e5a0336040518263ffffffff167c0100000000000000000000000000000000000000000000000000000000028152600401808273ffffffffffffffffffffffffffffffffffffffff1673ffffffffffffffffffffffffffffffffffffffff168152602001915050600060405180830381600087803b151561047e57600080fd5b6102c65a03f1151561048f57600080fd5b505050600192505050919050565b600160009054906101000a900473ffffffffffffffffffffffffffffffffffffffff1681565b60008060009054906101000a900473ffffffffffffffffffffffffffffffffffffffff16905090565b6000806000838073ffffffffffffffffffffffffffffffffffffffff1663fd52c53e33346000604051602001526040518363ffffffff167c0100000000000000000000000000000000000000000000000000000000028152600401808373ffffffffffffffffffffffffffffffffffffffff1673ffffffffffffffffffffffffffffffffffffffff16815260200182815260200192505050602060405180830381600087803b151561059d57600080fd5b6102c65a03f115156105ae57600080fd5b50505060405180519050156105c257600080fd5b8492508273ffffffffffffffffffffffffffffffffffffffff1663893d20e86000604051602001526040518163ffffffff167c0100000000000000000000000000000000000000000000000000000000028152600401602060405180830381600087803b151561063157600080fd5b6102c65a03f1151561064257600080fd5b5050506040518051905073ffffffffffffffffffffffffffffffffffffffff166108fc349081150290604051600060405180830381858888f19350505050915081151561068e57600080fd5b8273ffffffffffffffffffffffffffffffffffffffff1663072162d76040518163ffffffff167c0100000000000000000000000000000000000000000000000000000000028152600401600060405180830381600087803b15156106f157600080fd5b6102c65a03f1151561070257600080fd5b505050600193505050509190505600a165627a7a723058207130e829d97b3e7e1def9ddb3aa3dc428ad1b2228137f901adb3fd23121c66490029",
  "source": "pragma solidity ^0.4.4;\nimport \"./Base.sol\";\nimport \"./Product.sol\";\nimport \"./ProductRegistry.sol\";\n\ncontract Buyer is Base {\n\n\n  function Buyer(address _proRegistry) {\n    productDb=ProductRegistry(_proRegistry);\n  }\n\n  mapping (address => uint) payBack;\n\n  modifier checkLockable( address _product ) {\n      if (msg.value != 10000000000  &&  !Product(_product).checkLockable() ) { //0.1 ether\n          revert();\n      }\n      _;\n  }\n\n  modifier checkBuyable( address _product ) {\n\n      if (Product(_product).checkBuyable(msg.sender,msg.value) ) { //0.1 ether\n          revert();\n      }\n      _;\n  }\n\n  function lockProduct(address _product)\n  external\n  payable\n  checkLockable(_product)\n  returns(bool){\n    Product temp=Product(_product);\n    temp.lockProduct(msg.sender);\n    return true;\n\n  }\n\n  function buyProduct(address _product)\n  external\n  payable\n  checkBuyable(_product)\n  returns(bool){\n    Product _temp=Product(_product);\n        bool sent = _temp.getOwner().send(msg.value);\n        if (!sent){\n            revert();\n        }\n        else{\n          _temp.destroyProduct();\n          return true;\n        }\n  }\n\n}\n",
  "sourcePath": "/Users/fatih/Desktop/ethExchange/contracts/Buyer.sol",
  "compiler": {
    "name": "solc",
    "version": "0.4.18+commit.9cf6e910.Emscripten.clang"
  },
  "schemaVersion": "1.0.1",
  "updatedAt": "2018-03-10T15:05:54.183Z"
}