{
  "contractName": "Buyer",
  "abi": [
    {
      "constant": true,
      "inputs": [],
      "name": "getDb",
      "outputs": [
        {
          "name": "",
          "type": "address"
        }
      ],
      "payable": false,
      "stateMutability": "view",
      "type": "function"
    },
    {
      "constant": false,
      "inputs": [],
      "name": "kill",
      "outputs": [],
      "payable": false,
      "stateMutability": "nonpayable",
      "type": "function"
    },
    {
      "constant": false,
      "inputs": [
        {
          "name": "_product",
          "type": "address"
        }
      ],
      "name": "lockProduct",
      "outputs": [
        {
          "name": "",
          "type": "bool"
        }
      ],
      "payable": true,
      "stateMutability": "payable",
      "type": "function"
    },
    {
      "constant": false,
      "inputs": [
        {
          "name": "_value",
          "type": "uint64"
        }
      ],
      "name": "transferOwner",
      "outputs": [
        {
          "name": "",
          "type": "bool"
        }
      ],
      "payable": false,
      "stateMutability": "nonpayable",
      "type": "function"
    },
    {
      "constant": true,
      "inputs": [],
      "name": "productDb",
      "outputs": [
        {
          "name": "",
          "type": "address"
        }
      ],
      "payable": false,
      "stateMutability": "view",
      "type": "function"
    },
    {
      "constant": true,
      "inputs": [],
      "name": "owneraddress",
      "outputs": [
        {
          "name": "",
          "type": "address"
        }
      ],
      "payable": false,
      "stateMutability": "view",
      "type": "function"
    },
    {
      "constant": false,
      "inputs": [
        {
          "name": "_product",
          "type": "address"
        }
      ],
      "name": "buyProduct",
      "outputs": [
        {
          "name": "",
          "type": "bool"
        }
      ],
      "payable": true,
      "stateMutability": "payable",
      "type": "function"
    },
    {
      "inputs": [
        {
          "name": "_proRegistry",
          "type": "address"
        }
      ],
      "payable": false,
      "stateMutability": "nonpayable",
      "type": "constructor"
    }
  ],
  "bytecode": "0x6060604052341561000f57600080fd5b60405160208061091683398101604052808051906020019091905050336000806101000a81548173ffffffffffffffffffffffffffffffffffffffff021916908373ffffffffffffffffffffffffffffffffffffffff16021790555080600160006101000a81548173ffffffffffffffffffffffffffffffffffffffff021916908373ffffffffffffffffffffffffffffffffffffffff1602179055505061085a806100bc6000396000f300606060405260043610610083576000357c0100000000000000000000000000000000000000000000000000000000900463ffffffff16806337cbf4351461008857806341c0e1b5146100dd5780634d97e5a0146100f25780635df80d58146101385780637456f87c1461017d578063aaa48425146101d2578063d6c8689714610227575b600080fd5b341561009357600080fd5b61009b61026d565b604051808273ffffffffffffffffffffffffffffffffffffffff1673ffffffffffffffffffffffffffffffffffffffff16815260200191505060405180910390f35b34156100e857600080fd5b6100f06102f6565b005b61011e600480803573ffffffffffffffffffffffffffffffffffffffff1690602001909190505061038a565b604051808215151515815260200191505060405180910390f35b341561014357600080fd5b610163600480803567ffffffffffffffff169060200190919050506104ed565b604051808215151515815260200191505060405180910390f35b341561018857600080fd5b6101906105ba565b604051808273ffffffffffffffffffffffffffffffffffffffff1673ffffffffffffffffffffffffffffffffffffffff16815260200191505060405180910390f35b34156101dd57600080fd5b6101e56105e0565b604051808273ffffffffffffffffffffffffffffffffffffffff1673ffffffffffffffffffffffffffffffffffffffff16815260200191505060405180910390f35b610253600480803573ffffffffffffffffffffffffffffffffffffffff16906020019091905050610609565b604051808215151515815260200191505060405180910390f35b60003373ffffffffffffffffffffffffffffffffffffffff166000809054906101000a900473ffffffffffffffffffffffffffffffffffffffff1673ffffffffffffffffffffffffffffffffffffffff1614156102ee57600160009054906101000a900473ffffffffffffffffffffffffffffffffffffffff1690506102f3565b600080fd5b90565b3373ffffffffffffffffffffffffffffffffffffffff166000809054906101000a900473ffffffffffffffffffffffffffffffffffffffff1673ffffffffffffffffffffffffffffffffffffffff161415610385576000809054906101000a900473ffffffffffffffffffffffffffffffffffffffff1673ffffffffffffffffffffffffffffffffffffffff16ff5b600080fd5b600080826402540be400341415801561042757508073ffffffffffffffffffffffffffffffffffffffff1663129705786000604051602001526040518163ffffffff167c0100000000000000000000000000000000000000000000000000000000028152600401602060405180830381600087803b151561040a57600080fd5b6102c65a03f1151561041b57600080fd5b50505060405180519050155b1561043157600080fd5b8391508173ffffffffffffffffffffffffffffffffffffffff16634d97e5a0336040518263ffffffff167c0100000000000000000000000000000000000000000000000000000000028152600401808273ffffffffffffffffffffffffffffffffffffffff1673ffffffffffffffffffffffffffffffffffffffff168152602001915050600060405180830381600087803b15156104ce57600080fd5b6102c65a03f115156104df57600080fd5b505050600192505050919050565b6000803373ffffffffffffffffffffffffffffffffffffffff166000809054906101000a900473ffffffffffffffffffffffffffffffffffffffff1673ffffffffffffffffffffffffffffffffffffffff1614156105af576000809054906101000a900473ffffffffffffffffffffffffffffffffffffffff1673ffffffffffffffffffffffffffffffffffffffff166108fc8467ffffffffffffffff169081150290604051600060405180830381858888f1935050505090508091506105b4565b600080fd5b50919050565b600160009054906101000a900473ffffffffffffffffffffffffffffffffffffffff1681565b60008060009054906101000a900473ffffffffffffffffffffffffffffffffffffffff16905090565b6000806000838073ffffffffffffffffffffffffffffffffffffffff1663fd52c53e33346000604051602001526040518363ffffffff167c0100000000000000000000000000000000000000000000000000000000028152600401808373ffffffffffffffffffffffffffffffffffffffff1673ffffffffffffffffffffffffffffffffffffffff16815260200182815260200192505050602060405180830381600087803b15156106ba57600080fd5b6102c65a03f115156106cb57600080fd5b50505060405180519050156106df57600080fd5b8492508273ffffffffffffffffffffffffffffffffffffffff1663072162d76040518163ffffffff167c0100000000000000000000000000000000000000000000000000000000028152600401600060405180830381600087803b151561074557600080fd5b6102c65a03f1151561075657600080fd5b5050508273ffffffffffffffffffffffffffffffffffffffff1663893d20e86000604051602001526040518163ffffffff167c0100000000000000000000000000000000000000000000000000000000028152600401602060405180830381600087803b15156107c557600080fd5b6102c65a03f115156107d657600080fd5b5050506040518051905073ffffffffffffffffffffffffffffffffffffffff166108fc349081150290604051600060405180830381858888f19350505050915081151561082257600080fd5b600193505050509190505600a165627a7a72305820633b5e4a445f65b433515bc7465200588ef4fb21d09fc7f6e203810715a459100029",
  "source": "pragma solidity ^0.4.4;\nimport \"./Base.sol\";\nimport \"./Product.sol\";\nimport \"./ProductRegistry.sol\";\n\ncontract Buyer is Base {\n\n\n  function Buyer(address _proRegistry ) public {\n    productDb=ProductRegistry(_proRegistry);\n  }\n\n  mapping (address => uint) private  payBack ;\n\n  modifier checkLockable( address _product ) {\n      if (msg.value != 10000000000  &&  !Product(_product).checkLockable() ) { //0.1 ether\n          revert();\n      }\n      _;\n  }\n\n  modifier checkBuyable( address _product ) {\n\n      if (Product(_product).checkBuyable(msg.sender,msg.value) ) { //0.1 ether\n          revert();\n      }\n      _;\n  }\n\n  function lockProduct(address _product)\n  external\n  payable\n  checkLockable(_product)\n  returns(bool){\n    Product temp=Product(_product);\n    temp.lockProduct(msg.sender);\n    return true;\n\n  }\n\n  function buyProduct(address _product)\n  external\n  payable\n  checkBuyable(_product)\n  returns(bool){\n    Product _temp=Product(_product);\n    _temp.destroyProduct();\n    //change state product is selled then\n        bool sent = _temp.getOwner().send(msg.value);\n        if (!sent){\n            revert();\n        }\n        else{\n          return true;\n        }\n  }\n\n}\n",
  "sourcePath": "/Users/fatih/Desktop/Product-Bazaar/contracts/Buyer.sol",
  "compiler": {
    "name": "solc",
    "version": "0.4.18+commit.9cf6e910.Emscripten.clang"
  },
  "schemaVersion": "1.0.1",
  "updatedAt": "2018-03-19T16:30:35.303Z"
}