{
  "contractName": "Product",
  "abi": [
    {
      "constant": true,
      "inputs": [],
      "name": "cState",
      "outputs": [
        {
          "name": "",
          "type": "uint8"
        }
      ],
      "payable": false,
      "stateMutability": "view",
      "type": "function"
    },
    {
      "constant": false,
      "inputs": [
        {
          "name": "_name",
          "type": "string"
        },
        {
          "name": "_owner",
          "type": "address"
        },
        {
          "name": "_minPrice",
          "type": "uint256"
        },
        {
          "name": "_price",
          "type": "uint256"
        },
        {
          "name": "_ontheBazzar",
          "type": "bool"
        },
        {
          "name": "_imageHash",
          "type": "string"
        }
      ],
      "name": "construct",
      "outputs": [],
      "payable": false,
      "stateMutability": "nonpayable",
      "type": "function"
    },
    {
      "constant": false,
      "inputs": [],
      "name": "lockProduct",
      "outputs": [],
      "payable": true,
      "stateMutability": "payable",
      "type": "function"
    },
    {
      "constant": false,
      "inputs": [],
      "name": "buyProduct",
      "outputs": [
        {
          "name": "",
          "type": "bool"
        }
      ],
      "payable": true,
      "stateMutability": "payable",
      "type": "function"
    },
    {
      "constant": false,
      "inputs": [],
      "name": "validateProduct",
      "outputs": [
        {
          "name": "",
          "type": "bool"
        }
      ],
      "payable": false,
      "stateMutability": "nonpayable",
      "type": "function"
    },
    {
      "constant": false,
      "inputs": [],
      "name": "withDraw",
      "outputs": [
        {
          "name": "",
          "type": "bool"
        }
      ],
      "payable": false,
      "stateMutability": "nonpayable",
      "type": "function"
    },
    {
      "constant": false,
      "inputs": [],
      "name": "openDispute",
      "outputs": [
        {
          "name": "",
          "type": "bool"
        }
      ],
      "payable": false,
      "stateMutability": "nonpayable",
      "type": "function"
    },
    {
      "constant": true,
      "inputs": [],
      "name": "generalInfo",
      "outputs": [
        {
          "name": "",
          "type": "address"
        },
        {
          "name": "",
          "type": "string"
        },
        {
          "name": "",
          "type": "string"
        },
        {
          "name": "",
          "type": "uint256"
        },
        {
          "name": "",
          "type": "uint64"
        },
        {
          "name": "",
          "type": "uint8"
        },
        {
          "name": "",
          "type": "bool"
        },
        {
          "name": "",
          "type": "uint256"
        }
      ],
      "payable": false,
      "stateMutability": "view",
      "type": "function"
    },
    {
      "constant": true,
      "inputs": [],
      "name": "priceInfo",
      "outputs": [
        {
          "name": "",
          "type": "uint256"
        },
        {
          "name": "",
          "type": "string"
        }
      ],
      "payable": false,
      "stateMutability": "view",
      "type": "function"
    },
    {
      "constant": true,
      "inputs": [],
      "name": "getOwner",
      "outputs": [
        {
          "name": "",
          "type": "address"
        }
      ],
      "payable": false,
      "stateMutability": "view",
      "type": "function"
    },
    {
      "constant": true,
      "inputs": [],
      "name": "getLock",
      "outputs": [
        {
          "name": "",
          "type": "address"
        }
      ],
      "payable": false,
      "stateMutability": "view",
      "type": "function"
    },
    {
      "constant": false,
      "inputs": [],
      "name": "destroyProduct",
      "outputs": [],
      "payable": false,
      "stateMutability": "nonpayable",
      "type": "function"
    },
    {
      "constant": true,
      "inputs": [],
      "name": "getBalance",
      "outputs": [
        {
          "name": "",
          "type": "uint256"
        }
      ],
      "payable": false,
      "stateMutability": "view",
      "type": "function"
    },
    {
      "constant": true,
      "inputs": [],
      "name": "getTime",
      "outputs": [
        {
          "name": "",
          "type": "uint64"
        }
      ],
      "payable": false,
      "stateMutability": "view",
      "type": "function"
    }
  ],
  "bytecode": "0x60806040526000600c60006101000a81548160ff0219169083151502179055506000600c601d6101000a81548160ff0219169083151502179055506000600c601e6101000a81548160ff02191690831515021790555034801561006157600080fd5b50611494806100716000396000f3006080604052600436106100d0576000357c0100000000000000000000000000000000000000000000000000000000900463ffffffff168063072162d7146100d55780630fdb1c10146100ec57806312065fe01461011b57806317deeb44146101465780631c6f0f85146101d957806325a6c545146102125780634fd6137c1461038a578063557ed1ba146103b95780637e5852d9146103f857806381059f781461044f578063893d20e8146104e65780639ada9b7b1461053d578063af0c27051461055f578063e96d981c1461058e575b600080fd5b3480156100e157600080fd5b506100ea610598565b005b3480156100f857600080fd5b50610101610633565b604051808215151515815260200191505060405180910390f35b34801561012757600080fd5b50610130610747565b6040518082815260200191505060405180910390f35b34801561015257600080fd5b506101d7600480360381019080803590602001908201803590602001919091929391929390803573ffffffffffffffffffffffffffffffffffffffff1690602001909291908035906020019092919080359060200190929190803515159060200190929190803590602001908201803590602001919091929391929390505050610766565b005b3480156101e557600080fd5b506101ee6108cf565b604051808260038111156101fe57fe5b60ff16815260200191505060405180910390f35b34801561021e57600080fd5b506102276108e1565b604051808973ffffffffffffffffffffffffffffffffffffffff1673ffffffffffffffffffffffffffffffffffffffff16815260200180602001806020018881526020018767ffffffffffffffff1667ffffffffffffffff16815260200186600381111561029157fe5b60ff1681526020018515151515815260200184815260200183810383528a818151815260200191508051906020019080838360005b838110156102e15780820151818401526020810190506102c6565b50505050905090810190601f16801561030e5780820380516001836020036101000a031916815260200191505b50838103825289818151815260200191508051906020019080838360005b8381101561034757808201518184015260208101905061032c565b50505050905090810190601f1680156103745780820380516001836020036101000a031916815260200191505b509a505050505050505050505060405180910390f35b34801561039657600080fd5b5061039f610cce565b604051808215151515815260200191505060405180910390f35b3480156103c557600080fd5b506103ce610d84565b604051808267ffffffffffffffff1667ffffffffffffffff16815260200191505060405180910390f35b34801561040457600080fd5b5061040d610d8c565b604051808273ffffffffffffffffffffffffffffffffffffffff1673ffffffffffffffffffffffffffffffffffffffff16815260200191505060405180910390f35b34801561045b57600080fd5b50610464610db9565b6040518083815260200180602001828103825283818151815260200191508051906020019080838360005b838110156104aa57808201518184015260208101905061048f565b50505050905090810190601f1680156104d75780820380516001836020036101000a031916815260200191505b50935050505060405180910390f35b3480156104f257600080fd5b506104fb610ee6565b604051808273ffffffffffffffffffffffffffffffffffffffff1673ffffffffffffffffffffffffffffffffffffffff16815260200191505060405180910390f35b610545610f12565b604051808215151515815260200191505060405180910390f35b34801561056b57600080fd5b506105746110b1565b604051808215151515815260200191505060405180910390f35b610596611148565b005b6001800160009054906101000a900473ffffffffffffffffffffffffffffffffffffffff1673ffffffffffffffffffffffffffffffffffffffff163373ffffffffffffffffffffffffffffffffffffffff161415156105f657600080fd5b6001800160009054906101000a900473ffffffffffffffffffffffffffffffffffffffff1673ffffffffffffffffffffffffffffffffffffffff16ff5b60006001800160009054906101000a900473ffffffffffffffffffffffffffffffffffffffff1673ffffffffffffffffffffffffffffffffffffffff163373ffffffffffffffffffffffffffffffffffffffff1614151561069357600080fd5b60011515600c601e9054906101000a900460ff1615151480156106c9575060001515600c601d9054906101000a900460ff161515145b15156106d457600080fd5b6001800160009054906101000a900473ffffffffffffffffffffffffffffffffffffffff1673ffffffffffffffffffffffffffffffffffffffff166108fc6001600201549081150290604051600060405180830381858888f19350505050158015610743573d6000803e3d6000fd5b5090565b60003073ffffffffffffffffffffffffffffffffffffffff1631905090565b60006001600a0160009054906101000a900467ffffffffffffffff1667ffffffffffffffff1614151561079857600080fd5b8787600160000191906107ac9291906113c3565b50336001800160006101000a81548173ffffffffffffffffffffffffffffffffffffffff021916908373ffffffffffffffffffffffffffffffffffffffff160217905550856001800160006101000a81548173ffffffffffffffffffffffffffffffffffffffff021916908373ffffffffffffffffffffffffffffffffffffffff160217905550846001600301819055508181600160060191906108519291906113c3565b50426001600a0160006101000a81548167ffffffffffffffff021916908367ffffffffffffffff1602179055508360016002018190555060016000806101000a81548160ff021916908360038111156108a657fe5b021790555082600c60006101000a81548160ff0219169083151502179055505050505050505050565b6000809054906101000a900460ff1681565b60006060806000806000806000600160040160009054906101000a900473ffffffffffffffffffffffffffffffffffffffff1673ffffffffffffffffffffffffffffffffffffffff163373ffffffffffffffffffffffffffffffffffffffff161415610b08576001800160009054906101000a900473ffffffffffffffffffffffffffffffffffffffff16600160000160016006016001600901546001600a0160009054906101000a900467ffffffffffffffff166000809054906101000a900460ff16600c60009054906101000a900460ff16600160020154868054600181600116156101000203166002900480601f016020809104026020016040519081016040528092919081815260200182805460018160011615610100020316600290048015610a505780601f10610a2557610100808354040283529160200191610a50565b820191906000526020600020905b815481529060010190602001808311610a3357829003601f168201915b50505050509650858054600181600116156101000203166002900480601f016020809104026020016040519081016040528092919081815260200182805460018160011615610100020316600290048015610aec5780601f10610ac157610100808354040283529160200191610aec565b820191906000526020600020905b815481529060010190602001808311610acf57829003601f168201915b5050505050955097509750975097509750975097509750610cc4565b6001800160009054906101000a900473ffffffffffffffffffffffffffffffffffffffff16600160000160016006016001600901546001600a0160009054906101000a900467ffffffffffffffff166000809054906101000a900460ff16600c60009054906101000a900460ff166000868054600181600116156101000203166002900480601f016020809104026020016040519081016040528092919081815260200182805460018160011615610100020316600290048015610c0d5780601f10610be257610100808354040283529160200191610c0d565b820191906000526020600020905b815481529060010190602001808311610bf057829003601f168201915b50505050509650858054600181600116156101000203166002900480601f016020809104026020016040519081016040528092919081815260200182805460018160011615610100020316600290048015610ca95780601f10610c7e57610100808354040283529160200191610ca9565b820191906000526020600020905b815481529060010190602001808311610c8c57829003601f168201915b50505050509550809050975097509750975097509750975097505b9091929394959697565b6000600c60009054906101000a900460ff161515610ceb57600080fd5b600c60019054906101000a900473ffffffffffffffffffffffffffffffffffffffff1673ffffffffffffffffffffffffffffffffffffffff163373ffffffffffffffffffffffffffffffffffffffff16148015610d5b575060001515600c601e9054906101000a900460ff161515145b1515610d6657600080fd5b6001600c601d6101000a81548160ff02191690831515021790555090565b600042905090565b6000600160040160009054906101000a900473ffffffffffffffffffffffffffffffffffffffff16905090565b600060603373ffffffffffffffffffffffffffffffffffffffff16600160040160009054906101000a900473ffffffffffffffffffffffffffffffffffffffff1673ffffffffffffffffffffffffffffffffffffffff16141515610e1c57600080fd5b600c60009054906101000a900460ff161515610e3757600080fd5b6001600201546001600001808054600181600116156101000203166002900480601f016020809104026020016040519081016040528092919081815260200182805460018160011615610100020316600290048015610ed75780601f10610eac57610100808354040283529160200191610ed7565b820191906000526020600020905b815481529060010190602001808311610eba57829003601f168201915b50505050509050915091509091565b60006001800160009054906101000a900473ffffffffffffffffffffffffffffffffffffffff16905090565b6000426001600501541015610f8a576000600160040160006101000a81548173ffffffffffffffffffffffffffffffffffffffff021916908373ffffffffffffffffffffffffffffffffffffffff16021790555060016000806101000a81548160ff02191690836003811115610f8457fe5b02179055505b600c60009054906101000a900460ff161515610fa557600080fd5b3373ffffffffffffffffffffffffffffffffffffffff16600160040160009054906101000a900473ffffffffffffffffffffffffffffffffffffffff1673ffffffffffffffffffffffffffffffffffffffff16148015611009575034600160020154145b801561103957506002600381111561101d57fe5b6000809054906101000a900460ff16600381111561103757fe5b145b151561104457600080fd5b33600c60016101000a81548173ffffffffffffffffffffffffffffffffffffffff021916908373ffffffffffffffffffffffffffffffffffffffff16021790555042600c60156101000a81548167ffffffffffffffff021916908367ffffffffffffffff16021790555090565b6000600c60009054906101000a900460ff1615156110ce57600080fd5b600c60019054906101000a900473ffffffffffffffffffffffffffffffffffffffff1673ffffffffffffffffffffffffffffffffffffffff163373ffffffffffffffffffffffffffffffffffffffff1614151561112a57600080fd5b6001600c601e6101000a81548160ff02191690831515021790555090565b600c60009054906101000a900460ff16151561116357600080fd5b600073ffffffffffffffffffffffffffffffffffffffff16600160040160009054906101000a900473ffffffffffffffffffffffffffffffffffffffff1673ffffffffffffffffffffffffffffffffffffffff161415156111c357600080fd5b426001600501541015611239576000600160040160006101000a81548173ffffffffffffffffffffffffffffffffffffffff021916908373ffffffffffffffffffffffffffffffffffffffff16021790555060016000806101000a81548160ff0219169083600381111561123357fe5b02179055505b67016345785d8a00003414151561124f57600080fd5b6064600160030154016001600201541015151561126b57600080fd5b33600160040160006101000a81548173ffffffffffffffffffffffffffffffffffffffff021916908373ffffffffffffffffffffffffffffffffffffffff16021790555060018060090160008282540192505081905550606460016002016000828254039250508190555060016008013390806001815401808255809150509060018203906000526020600020016000909192909190916101000a81548173ffffffffffffffffffffffffffffffffffffffff021916908373ffffffffffffffffffffffffffffffffffffffff160217905550506103e8600160070160003373ffffffffffffffffffffffffffffffffffffffff1673ffffffffffffffffffffffffffffffffffffffff16815260200190815260200160002060008282540192505081905550603c420160016005018190555060026000806101000a81548160ff021916908360038111156113bc57fe5b0217905550565b828054600181600116156101000203166002900490600052602060002090601f016020900481019282601f1061140457803560ff1916838001178555611432565b82800160010185558215611432579182015b82811115611431578235825591602001919060010190611416565b5b50905061143f9190611443565b5090565b61146591905b80821115611461576000816000905550600101611449565b5090565b905600a165627a7a723058204f7f630796823fea863cd077530c4e0b50fb0f9666c5c6975696cdd0b8aaddf80029",
  "source": "pragma solidity ^0.4.4;\n// price unit is miliether ,1000 milli ether is 1 ether\ncontract Product {\n\n    struct Item {\n        string name;\n        address owner;\n        uint price;\n        uint minPrice;\n        address lock;\n        uint lockTime;\n        string imageHash;\n        mapping (address => uint) viewers;\n        address[] viewerlist;                   //adress of viewers for pay back\n        uint viewCount;\n        uint64 createdOn;                   // Time when product was created\n    }\n\n    enum  State { Initial, Available, Locked, Selled }\n    State public cState;\n\n    Item private product;\n    bool private ontheBazaar=false;\n\n    address private buyer;\n    uint64 private timeofSale;\n\n    bool private dispute=false;\n    bool private validated=false;\n\n    modifier timeIsUp() {\n\n        if (product.lockTime < block.timestamp ) {\n            product.lock = address(0);\n            cState=State.Available;\n        }\n        _;\n    }\n\n    modifier onlyOwner(){\n        require(msg.sender == product.owner);\n        _;\n    }\n    modifier ontheBazzar(){\n        require(ontheBazaar);\n        _;\n    }\n\n    modifier checkLock(){\n        require(product.lock == msg.sender);\n        _;\n    }\n    modifier checkLocked(){\n        require(product.lock == address(0));\n        _;\n    }\n    modifier checkBuyable(){\n        require(timeofSale!=0 && product.lock != address(0));\n        _;\n    }\n\n    function construct(\n        string _name,\n        address _owner,\n        uint _minPrice,\n        uint _price,\n        bool _ontheBazzar,\n        string _imageHash\n    )\n        external\n    {\n        //add modifier this function restrict only callable from merchants contracts\n\n        require(product.createdOn == 0);               // Prevent constructing multiple times\n        product.name = _name;\n        product.owner=msg.sender;\n        product.owner = _owner;\n        product.minPrice = _minPrice;\n        product.imageHash=_imageHash;\n        product.createdOn = uint64(now);\n        product.price = _price;\n        cState=State.Available;\n        ontheBazaar=_ontheBazzar;\n    }\n    function lockProduct()\n    public\n    ontheBazzar\n    checkLocked\n    timeIsUp\n    payable\n    {\n\n        //timeIsUp\n        //checkLocked\n        //ontheBazzar\n        require(msg.value == (100* 10**15)); //check 100 mili ether(0.1 ether)\n        require(product.price  >= (product.minPrice+100));\n\n        product.lock=msg.sender;\n        product.viewCount+=1;\n        product.price-=100;         //100 milli ether is 0.1 ether\n        product.viewerlist.push(msg.sender);//maybe mapping\n        product.viewers[msg.sender]+=1000 ;//in wei\n        product.lockTime=now+60;//now is block.timestamp\n        cState=State.Locked;\n\n    }\n    //is there any posibliy msg.sender is 0x00\n    function buyProduct()\n    external\n    payable\n    timeIsUp\n    ontheBazzar\n    returns(bool){\n\n        require(product.lock == msg.sender &&  product.price == msg.value && cState == State.Locked);\n        buyer=msg.sender;\n        timeofSale=uint64(now);\n\n    }\n    // user validate  product is received\n    function validateProduct()\n    external\n    ontheBazzar\n    returns(bool){\n        require(msg.sender==buyer);\n        validated=true;\n    }\n    function withDraw()\n    onlyOwner\n    external\n    returns(bool){\n        require(validated==true && dispute==false);\n        product.owner.transfer(product.price);//if is it fail ,throws on failure\n    }\n    function openDispute()public\n    ontheBazzar\n    returns(bool){\n        require(msg.sender==buyer && validated==false);\n        dispute=true;\n\n    }\n\n    function generalInfo() public view\n    returns(address,string,string,uint,uint64,State,bool,uint)\n    {\n        if(msg.sender==product.lock)\n            return (product.owner,product.name,product.imageHash,product.viewCount,product.createdOn,cState,ontheBazaar,product.price);\n        else\n            return (product.owner,product.name,product.imageHash,product.viewCount,product.createdOn,cState,ontheBazaar,0);\n    }\n\n    function priceInfo()\n    public\n    checkLock\n    ontheBazzar\n    view\n    returns(uint,string) //owner,name\n    {\n        return (product.price,product.name);\n    }\n\n    function getOwner()public\n    view\n    returns(address) //owner,name\n    {\n        return (product.owner);\n    }\n\n    function getLock()public\n    view\n    returns(address) //owner,name\n    {\n        return (product.lock);\n    }\n\n    function destroyProduct()external\n    //add modifier only seller contract can call this,name\n    onlyOwner()\n    {\n        selfdestruct(product.owner);\n    }\n\n    function getBalance() view public returns ( uint) {\n        return address(this).balance ;\n    }\n    function getTime() public view  returns ( uint64) {\n        return uint64(now) ;\n    }\n\n\n}\n",
  "sourcePath": "/Users/fatih/Desktop/Product-Bazaar/contracts/Product.sol",
  "compiler": {
    "name": "solc",
    "version": "0.4.23+commit.124ca40d.Emscripten.clang"
  },
  "schemaVersion": "2.0.0",
  "updatedAt": "2018-05-18T15:20:05.962Z"
}