{
  "contractName": "Product",
  "abi": [
    {
      "constant": true,
      "inputs": [],
      "name": "Seller",
      "outputs": [
        {
          "name": "",
          "type": "address"
        }
      ],
      "payable": false,
      "stateMutability": "view",
      "type": "function"
    },
    {
      "constant": true,
      "inputs": [],
      "name": "cState",
      "outputs": [
        {
          "name": "",
          "type": "uint8"
        }
      ],
      "payable": false,
      "stateMutability": "view",
      "type": "function"
    },
    {
      "constant": true,
      "inputs": [],
      "name": "Buyer",
      "outputs": [
        {
          "name": "",
          "type": "address"
        }
      ],
      "payable": false,
      "stateMutability": "view",
      "type": "function"
    },
    {
      "constant": true,
      "inputs": [],
      "name": "checkLockable",
      "outputs": [
        {
          "name": "",
          "type": "bool"
        }
      ],
      "payable": false,
      "stateMutability": "view",
      "type": "function"
    },
    {
      "constant": false,
      "inputs": [
        {
          "name": "_msgSender",
          "type": "address"
        },
        {
          "name": "_value",
          "type": "uint256"
        }
      ],
      "name": "checkBuyable",
      "outputs": [
        {
          "name": "",
          "type": "bool"
        }
      ],
      "payable": false,
      "stateMutability": "nonpayable",
      "type": "function"
    },
    {
      "constant": false,
      "inputs": [
        {
          "name": "_name",
          "type": "string"
        },
        {
          "name": "_owner",
          "type": "address"
        },
        {
          "name": "_minPrice",
          "type": "uint256"
        },
        {
          "name": "_price",
          "type": "uint256"
        }
      ],
      "name": "construct",
      "outputs": [],
      "payable": false,
      "stateMutability": "nonpayable",
      "type": "function"
    },
    {
      "constant": false,
      "inputs": [],
      "name": "lockProduct",
      "outputs": [],
      "payable": true,
      "stateMutability": "payable",
      "type": "function"
    },
    {
      "constant": true,
      "inputs": [],
      "name": "generalInfo",
      "outputs": [
        {
          "name": "",
          "type": "address"
        },
        {
          "name": "",
          "type": "string"
        },
        {
          "name": "",
          "type": "uint256"
        },
        {
          "name": "",
          "type": "uint64"
        },
        {
          "name": "",
          "type": "uint8"
        }
      ],
      "payable": false,
      "stateMutability": "view",
      "type": "function"
    },
    {
      "constant": false,
      "inputs": [
        {
          "name": "locker",
          "type": "address"
        }
      ],
      "name": "pricelInfo",
      "outputs": [
        {
          "name": "",
          "type": "uint256"
        },
        {
          "name": "",
          "type": "string"
        }
      ],
      "payable": false,
      "stateMutability": "nonpayable",
      "type": "function"
    },
    {
      "constant": true,
      "inputs": [],
      "name": "getOwner",
      "outputs": [
        {
          "name": "",
          "type": "address"
        }
      ],
      "payable": false,
      "stateMutability": "view",
      "type": "function"
    },
    {
      "constant": true,
      "inputs": [],
      "name": "getLock",
      "outputs": [
        {
          "name": "",
          "type": "address"
        }
      ],
      "payable": false,
      "stateMutability": "view",
      "type": "function"
    },
    {
      "constant": false,
      "inputs": [],
      "name": "destroyProduct",
      "outputs": [],
      "payable": false,
      "stateMutability": "nonpayable",
      "type": "function"
    },
    {
      "constant": true,
      "inputs": [],
      "name": "getBalance",
      "outputs": [
        {
          "name": "",
          "type": "uint256"
        }
      ],
      "payable": false,
      "stateMutability": "view",
      "type": "function"
    }
  ],
  "bytecode": "0x6060604052341561000f57600080fd5b610eec8061001e6000396000f3006060604052600436106100c5576000357c0100000000000000000000000000000000000000000000000000000000900463ffffffff168063072162d7146100ca57806307fd3687146100df57806312065fe014610134578063129705781461015d5780631c6f0f851461018a57806325a6c545146101c15780637e5852d9146102b9578063811023381461030e578063893d20e8146103c7578063a1c12e6b1461041c578063d7e96ff514610471578063e96d981c146104d0578063fd52c53e146104da575b600080fd5b34156100d557600080fd5b6100dd610534565b005b34156100ea57600080fd5b6100f26105d1565b604051808273ffffffffffffffffffffffffffffffffffffffff1673ffffffffffffffffffffffffffffffffffffffff16815260200191505060405180910390f35b341561013f57600080fd5b6101476105f7565b6040518082815260200191505060405180910390f35b341561016857600080fd5b610170610616565b604051808215151515815260200191505060405180910390f35b341561019557600080fd5b61019d610682565b604051808260038111156101ad57fe5b60ff16815260200191505060405180910390f35b34156101cc57600080fd5b6101d4610694565b604051808673ffffffffffffffffffffffffffffffffffffffff1673ffffffffffffffffffffffffffffffffffffffff168152602001806020018581526020018467ffffffffffffffff1667ffffffffffffffff16815260200183600381111561023a57fe5b60ff168152602001828103825286818151815260200191508051906020019080838360005b8381101561027a57808201518184015260208101905061025f565b50505050905090810190601f1680156102a75780820380516001836020036101000a031916815260200191505b50965050505050505060405180910390f35b34156102c457600080fd5b6102cc6107aa565b604051808273ffffffffffffffffffffffffffffffffffffffff1673ffffffffffffffffffffffffffffffffffffffff16815260200191505060405180910390f35b341561031957600080fd5b610345600480803573ffffffffffffffffffffffffffffffffffffffff169060200190919050506107d7565b6040518083815260200180602001828103825283818151815260200191508051906020019080838360005b8381101561038b578082015181840152602081019050610370565b50505050905090810190601f1680156103b85780820380516001836020036101000a031916815260200191505b50935050505060405180910390f35b34156103d257600080fd5b6103da610968565b604051808273ffffffffffffffffffffffffffffffffffffffff1673ffffffffffffffffffffffffffffffffffffffff16815260200191505060405180910390f35b341561042757600080fd5b61042f610995565b604051808273ffffffffffffffffffffffffffffffffffffffff1673ffffffffffffffffffffffffffffffffffffffff16815260200191505060405180910390f35b341561047c57600080fd5b6104ce6004808035906020019082018035906020019190919290803573ffffffffffffffffffffffffffffffffffffffff169060200190919080359060200190919080359060200190919050506109bb565b005b6104d8610af3565b005b34156104e557600080fd5b61051a600480803573ffffffffffffffffffffffffffffffffffffffff16906020019091908035906020019091905050610c59565b604051808215151515815260200191505060405180910390f35b600160000160009054906101000a900473ffffffffffffffffffffffffffffffffffffffff1673ffffffffffffffffffffffffffffffffffffffff163373ffffffffffffffffffffffffffffffffffffffff1614151561059357600080fd5b600160000160009054906101000a900473ffffffffffffffffffffffffffffffffffffffff1673ffffffffffffffffffffffffffffffffffffffff16ff5b600c60009054906101000a900473ffffffffffffffffffffffffffffffffffffffff1681565b60003073ffffffffffffffffffffffffffffffffffffffff1631905090565b60008073ffffffffffffffffffffffffffffffffffffffff16600160040160009054906101000a900473ffffffffffffffffffffffffffffffffffffffff1673ffffffffffffffffffffffffffffffffffffffff16141561067a576001905061067f565b600090505b90565b6000809054906101000a900460ff1681565b600061069e610ddb565b6000806000600160000160009054906101000a900473ffffffffffffffffffffffffffffffffffffffff166001600201600160080154600160090160009054906101000a900467ffffffffffffffff166000809054906101000a900460ff16838054600181600116156101000203166002900480601f0160208091040260200160405190810160405280929190818152602001828054600181600116156101000203166002900480156107925780601f1061076757610100808354040283529160200191610792565b820191906000526020600020905b81548152906001019060200180831161077557829003601f168201915b50505050509350945094509450945094509091929394565b6000600160040160009054906101000a900473ffffffffffffffffffffffffffffffffffffffff16905090565b60006107e1610ddb565b42600160050154101515610858576000600160040160006101000a81548173ffffffffffffffffffffffffffffffffffffffff021916908373ffffffffffffffffffffffffffffffffffffffff16021790555060016000806101000a81548160ff0219169083600381111561085257fe5b02179055505b828073ffffffffffffffffffffffffffffffffffffffff16600160040160009054906101000a900473ffffffffffffffffffffffffffffffffffffffff1673ffffffffffffffffffffffffffffffffffffffff161415156108b857600080fd5b60018001546001600201808054600181600116156101000203166002900480601f0160208091040260200160405190810160405280929190818152602001828054600181600116156101000203166002900480156109575780601f1061092c57610100808354040283529160200191610957565b820191906000526020600020905b81548152906001019060200180831161093a57829003601f168201915b505050505090509250925050915091565b6000600160000160009054906101000a900473ffffffffffffffffffffffffffffffffffffffff16905090565b600b60009054906101000a900473ffffffffffffffffffffffffffffffffffffffff1681565b6000600160090160009054906101000a900467ffffffffffffffff1667ffffffffffffffff161415156109ed57600080fd5b848460016002019190610a01929190610def565b5033600160000160006101000a81548173ffffffffffffffffffffffffffffffffffffffff021916908373ffffffffffffffffffffffffffffffffffffffff16021790555082600160000160006101000a81548173ffffffffffffffffffffffffffffffffffffffff021916908373ffffffffffffffffffffffffffffffffffffffff1602179055508160016003018190555042600160090160006101000a81548167ffffffffffffffff021916908367ffffffffffffffff16021790555080600180018190555060016000806101000a81548160ff02191690836003811115610ae757fe5b02179055505050505050565b610afb610616565b15610b0557600080fd5b33600160040160006101000a81548173ffffffffffffffffffffffffffffffffffffffff021916908373ffffffffffffffffffffffffffffffffffffffff160217905550600180600801600082825401925050819055506001806001016000828254039250508190555060016007018054806001018281610b869190610e6f565b9160005260206000209001600033909190916101000a81548173ffffffffffffffffffffffffffffffffffffffff021916908373ffffffffffffffffffffffffffffffffffffffff160217905550506103e8600160060160003373ffffffffffffffffffffffffffffffffffffffff1673ffffffffffffffffffffffffffffffffffffffff16815260200190815260200160002060008282540192505081905550603c420160016005018190555060026000806101000a81548160ff02191690836003811115610c5257fe5b0217905550565b600042600160050154101515610cd2576000600160040160006101000a81548173ffffffffffffffffffffffffffffffffffffffff021916908373ffffffffffffffffffffffffffffffffffffffff16021790555060016000806101000a81548160ff02191690836003811115610ccc57fe5b02179055505b8273ffffffffffffffffffffffffffffffffffffffff16600160040160009054906101000a900473ffffffffffffffffffffffffffffffffffffffff1673ffffffffffffffffffffffffffffffffffffffff16141580610d835750600073ffffffffffffffffffffffffffffffffffffffff16600160040160009054906101000a900473ffffffffffffffffffffffffffffffffffffffff1673ffffffffffffffffffffffffffffffffffffffff16145b80610d92575081600180015414155b80610dc2575060026003811115610da557fe5b6000809054906101000a900460ff166003811115610dbf57fe5b14155b15610dd05760009050610dd5565b600190505b92915050565b602060405190810160405280600081525090565b828054600181600116156101000203166002900490600052602060002090601f016020900481019282601f10610e3057803560ff1916838001178555610e5e565b82800160010185558215610e5e579182015b82811115610e5d578235825591602001919060010190610e42565b5b509050610e6b9190610e9b565b5090565b815481835581811511610e9657818360005260206000209182019101610e959190610e9b565b5b505050565b610ebd91905b80821115610eb9576000816000905550600101610ea1565b5090565b905600a165627a7a72305820be924797e3d0f61ca292ca18330ec40301621fd638d6e2963c3bc7a210f80e4c0029",
  "source": "pragma solidity ^0.4.4;\n\ncontract Product {\n\n    struct Item {\n        address owner;\n        uint price;\n        string name;\n        uint minPrice;\n        address lock;\n        uint lockTime;\n        mapping (address => uint) viewers;\n        address[] viewerlist;                   //adress of viewers for pay back\n        uint viewCount;\n        uint64 createdOn;                   // Time when product was created\n\n    }\n\n    enum  State { Initial, Available, Locked, Selled }\n\n    State public cState;\n\n    Item private product;\n    //Buyer public constant ens = Buyer(0x314159265dD8dbb310642f98f50C066173C1259b);\n\n    address public Buyer;\n    address public Seller;\n\n    modifier timeIsUp() {\n\n        if (product.lockTime >= block.timestamp) {\n            product.lock = address(0);\n            cState=State.Available;\n        }\n        _;\n    }\n\n    modifier onlyBuyerOrOwner(){\n        require(msg.sender == product.owner);\n        _;\n    }\n\n    modifier checkLock(address msgSender){\n        if (product.lock != msgSender) {\n            revert();\n        }\n        _;\n    }\n    modifier checkLocked(){\n        if (checkLockable()) {\n            revert();\n        }\n        _;\n    }\n\n    function checkLockable() public view returns (bool){\n        if (product.lock == address(0) ) {\n            return true;\n        }\n        return false;\n    }\n\n    function checkBuyable(address _msgSender,uint _value)\n    public\n    timeIsUp\n    returns (bool)\n    {\n       //require(product.lock == msgsender && product.price == value);\n        if (product.lock != _msgSender || product.lock == address(0) ||  product.price != _value || cState != State.Locked ) {\n            return false;\n        }\n        return true;\n    }\n\n\n    function construct(\n        string _name,\n        address _owner,\n        uint _minPrice,\n        uint _price\n    )\n        external\n    {\n        //add modifier this function restrict only callable from merchants contracts\n\n        require(product.createdOn == 0);               // Prevent constructing multiple times\n        product.name = _name;\n        product.owner=msg.sender;\n        product.owner = _owner;\n        product.minPrice = _minPrice;\n        product.createdOn = uint64(now);\n        product.price = _price;\n        cState=State.Available;\n    }\n    function lockProduct()\n    public\n    payable\n    checkLocked()\n    {\n        //add modifier this function restrict only callaable from merchants contracts\n\n        //require(checkLockable());\n        //require(product.price >= product.minPrice);\n\n        product.lock=msg.sender;\n        product.viewCount+=1;\n        product.price-=1;//change this :)\n        product.viewerlist.push(msg.sender);//maybe mapping\n        product.viewers[msg.sender]+=1000 ;//in wei\n        product.lockTime=now+60;//now is block.timestamp\n        cState=State.Locked;\n\n    }\n    function generalInfo() public\n    view\n    returns(address,string,uint,uint64,State)\n    {\n        return (product.owner,product.name,product.viewCount,product.createdOn,cState);\n    }\n\n\n    function pricelInfo(address locker)\n    public\n    timeIsUp\n    checkLock(locker)\n    returns(uint,string) //owner,name\n    {\n        return (product.price,product.name);\n    }\n\n    function getOwner()public\n    view\n    returns(address) //owner,name\n    {\n        return (product.owner);\n    }\n\n    function getLock()public\n    view\n    returns(address) //owner,name\n    {\n        return (product.lock);\n    }\n\n\n    function destroyProduct()external\n    //add modifier only seller contract can call this,name\n    onlyBuyerOrOwner()\n    {\n        selfdestruct(product.owner);\n    }\n\n\n    function getBalance() view public returns ( uint) {\n        return address(this).balance ;\n    }\n\n\n}\n",
  "sourcePath": "/Users/fatih/Desktop/Product-Bazaar/contracts/Product.sol",
  "compiler": {
    "name": "solc",
    "version": "0.4.19+commit.c4cbbb05.Emscripten.clang"
  },
  "schemaVersion": "2.0.0",
  "updatedAt": "2018-05-01T20:39:26.354Z"
}