{
  "contractName": "Product",
  "abi": [
    {
      "constant": false,
      "inputs": [],
      "name": "destroyProduct",
      "outputs": [],
      "payable": false,
      "stateMutability": "nonpayable",
      "type": "function"
    },
    {
      "constant": true,
      "inputs": [],
      "name": "Seller",
      "outputs": [
        {
          "name": "",
          "type": "address"
        }
      ],
      "payable": false,
      "stateMutability": "view",
      "type": "function"
    },
    {
      "constant": true,
      "inputs": [],
      "name": "getBalance",
      "outputs": [
        {
          "name": "",
          "type": "uint256"
        }
      ],
      "payable": false,
      "stateMutability": "view",
      "type": "function"
    },
    {
      "constant": true,
      "inputs": [],
      "name": "checkLockable",
      "outputs": [
        {
          "name": "",
          "type": "bool"
        }
      ],
      "payable": false,
      "stateMutability": "view",
      "type": "function"
    },
    {
      "constant": true,
      "inputs": [],
      "name": "cState",
      "outputs": [
        {
          "name": "",
          "type": "uint8"
        }
      ],
      "payable": false,
      "stateMutability": "view",
      "type": "function"
    },
    {
      "constant": true,
      "inputs": [],
      "name": "generalInfo",
      "outputs": [
        {
          "name": "",
          "type": "address"
        },
        {
          "name": "",
          "type": "string"
        },
        {
          "name": "",
          "type": "uint256"
        },
        {
          "name": "",
          "type": "uint64"
        }
      ],
      "payable": false,
      "stateMutability": "view",
      "type": "function"
    },
    {
      "constant": false,
      "inputs": [
        {
          "name": "viewer",
          "type": "address"
        }
      ],
      "name": "lockProduct",
      "outputs": [],
      "payable": false,
      "stateMutability": "nonpayable",
      "type": "function"
    },
    {
      "constant": false,
      "inputs": [
        {
          "name": "locker",
          "type": "address"
        }
      ],
      "name": "pricelInfo",
      "outputs": [
        {
          "name": "",
          "type": "uint256"
        },
        {
          "name": "",
          "type": "string"
        }
      ],
      "payable": false,
      "stateMutability": "nonpayable",
      "type": "function"
    },
    {
      "constant": true,
      "inputs": [],
      "name": "getOwner",
      "outputs": [
        {
          "name": "",
          "type": "address"
        }
      ],
      "payable": false,
      "stateMutability": "view",
      "type": "function"
    },
    {
      "constant": true,
      "inputs": [],
      "name": "Buyer",
      "outputs": [
        {
          "name": "",
          "type": "address"
        }
      ],
      "payable": false,
      "stateMutability": "view",
      "type": "function"
    },
    {
      "constant": false,
      "inputs": [
        {
          "name": "_name",
          "type": "string"
        },
        {
          "name": "_owner",
          "type": "address"
        },
        {
          "name": "_minPrice",
          "type": "uint256"
        },
        {
          "name": "_price",
          "type": "uint256"
        }
      ],
      "name": "construct",
      "outputs": [],
      "payable": false,
      "stateMutability": "nonpayable",
      "type": "function"
    },
    {
      "constant": false,
      "inputs": [
        {
          "name": "_msgSender",
          "type": "address"
        },
        {
          "name": "_value",
          "type": "uint256"
        }
      ],
      "name": "checkBuyable",
      "outputs": [
        {
          "name": "",
          "type": "bool"
        }
      ],
      "payable": false,
      "stateMutability": "nonpayable",
      "type": "function"
    }
  ],
  "bytecode": "0x6060604052341561000f57600080fd5b610f608061001e6000396000f3006060604052600436106100ba576000357c0100000000000000000000000000000000000000000000000000000000900463ffffffff168063072162d7146100bf57806307fd3687146100d457806312065fe01461012957806312970578146101525780631c6f0f851461017f57806325a6c545146101b65780634d97e5a01461029957806381102338146102d2578063893d20e81461038b578063a1c12e6b146103e0578063d7e96ff514610435578063fd52c53e14610494575b600080fd5b34156100ca57600080fd5b6100d26104ee565b005b34156100df57600080fd5b6100e76105e2565b604051808273ffffffffffffffffffffffffffffffffffffffff1673ffffffffffffffffffffffffffffffffffffffff16815260200191505060405180910390f35b341561013457600080fd5b61013c610608565b6040518082815260200191505060405180910390f35b341561015d57600080fd5b610165610627565b604051808215151515815260200191505060405180910390f35b341561018a57600080fd5b610192610694565b604051808260038111156101a257fe5b60ff16815260200191505060405180910390f35b34156101c157600080fd5b6101c96106a6565b604051808573ffffffffffffffffffffffffffffffffffffffff1673ffffffffffffffffffffffffffffffffffffffff168152602001806020018481526020018367ffffffffffffffff1667ffffffffffffffff168152602001828103825285818151815260200191508051906020019080838360005b8381101561025b578082015181840152602081019050610240565b50505050905090810190601f1680156102885780820380516001836020036101000a031916815260200191505b509550505050505060405180910390f35b34156102a457600080fd5b6102d0600480803573ffffffffffffffffffffffffffffffffffffffff169060200190919050506107a8565b005b34156102dd57600080fd5b610309600480803573ffffffffffffffffffffffffffffffffffffffff169060200190919050506109b1565b6040518083815260200180602001828103825283818151815260200191508051906020019080838360005b8381101561034f578082015181840152602081019050610334565b50505050905090810190601f16801561037c5780820380516001836020036101000a031916815260200191505b50935050505060405180910390f35b341561039657600080fd5b61039e610b42565b604051808273ffffffffffffffffffffffffffffffffffffffff1673ffffffffffffffffffffffffffffffffffffffff16815260200191505060405180910390f35b34156103eb57600080fd5b6103f3610b6f565b604051808273ffffffffffffffffffffffffffffffffffffffff1673ffffffffffffffffffffffffffffffffffffffff16815260200191505060405180910390f35b341561044057600080fd5b6104926004808035906020019082018035906020019190919290803573ffffffffffffffffffffffffffffffffffffffff16906020019091908035906020019091908035906020019091905050610b95565b005b341561049f57600080fd5b6104d4600480803573ffffffffffffffffffffffffffffffffffffffff16906020019091908035906020019091905050610ccd565b604051808215151515815260200191505060405180910390f35b600b60009054906101000a900473ffffffffffffffffffffffffffffffffffffffff1673ffffffffffffffffffffffffffffffffffffffff163373ffffffffffffffffffffffffffffffffffffffff16148061059a5750600160000160009054906101000a900473ffffffffffffffffffffffffffffffffffffffff1673ffffffffffffffffffffffffffffffffffffffff163373ffffffffffffffffffffffffffffffffffffffff16145b156105dd57600160000160009054906101000a900473ffffffffffffffffffffffffffffffffffffffff1673ffffffffffffffffffffffffffffffffffffffff16ff5b600080fd5b600c60009054906101000a900473ffffffffffffffffffffffffffffffffffffffff1681565b60003073ffffffffffffffffffffffffffffffffffffffff1631905090565b60008073ffffffffffffffffffffffffffffffffffffffff16600160040160009054906101000a900473ffffffffffffffffffffffffffffffffffffffff1673ffffffffffffffffffffffffffffffffffffffff1614151561068c5760009050610691565b600190505b90565b6000809054906101000a900460ff1681565b60006106b0610e4f565b600080600160000160009054906101000a900473ffffffffffffffffffffffffffffffffffffffff166001600201600160080154600160090160009054906101000a900467ffffffffffffffff16828054600181600116156101000203166002900480601f0160208091040260200160405190810160405280929190818152602001828054600181600116156101000203166002900480156107935780601f1061076857610100808354040283529160200191610793565b820191906000526020600020905b81548152906001019060200180831161077657829003601f168201915b50505050509250935093509350935090919293565b4260016005015410151561081f576000600160040160006101000a81548173ffffffffffffffffffffffffffffffffffffffff021916908373ffffffffffffffffffffffffffffffffffffffff16021790555060016000806101000a81548160ff0219169083600381111561081957fe5b02179055505b610827610627565b1561083157600080fd5b610839610627565b151561084457600080fd5b60016003015460018001541015151561085c57600080fd5b80600160040160006101000a81548173ffffffffffffffffffffffffffffffffffffffff021916908373ffffffffffffffffffffffffffffffffffffffff1602179055506001806008016000828254019250508190555060018060010160008282540392505081905550600160070180548060010182816108dd9190610e63565b9160005260206000209001600083909190916101000a81548173ffffffffffffffffffffffffffffffffffffffff021916908373ffffffffffffffffffffffffffffffffffffffff160217905550506103e8600160060160008373ffffffffffffffffffffffffffffffffffffffff1673ffffffffffffffffffffffffffffffffffffffff16815260200190815260200160002060008282540192505081905550603c420160016005018190555060026000806101000a81548160ff021916908360038111156109a957fe5b021790555050565b60006109bb610e4f565b42600160050154101515610a32576000600160040160006101000a81548173ffffffffffffffffffffffffffffffffffffffff021916908373ffffffffffffffffffffffffffffffffffffffff16021790555060016000806101000a81548160ff02191690836003811115610a2c57fe5b02179055505b828073ffffffffffffffffffffffffffffffffffffffff16600160040160009054906101000a900473ffffffffffffffffffffffffffffffffffffffff1673ffffffffffffffffffffffffffffffffffffffff16141515610a9257600080fd5b60018001546001600201808054600181600116156101000203166002900480601f016020809104026020016040519081016040528092919081815260200182805460018160011615610100020316600290048015610b315780601f10610b0657610100808354040283529160200191610b31565b820191906000526020600020905b815481529060010190602001808311610b1457829003601f168201915b505050505090509250925050915091565b6000600160000160009054906101000a900473ffffffffffffffffffffffffffffffffffffffff16905090565b600b60009054906101000a900473ffffffffffffffffffffffffffffffffffffffff1681565b6000600160090160009054906101000a900467ffffffffffffffff1667ffffffffffffffff16141515610bc757600080fd5b848460016002019190610bdb929190610e8f565b5033600160000160006101000a81548173ffffffffffffffffffffffffffffffffffffffff021916908373ffffffffffffffffffffffffffffffffffffffff16021790555082600160000160006101000a81548173ffffffffffffffffffffffffffffffffffffffff021916908373ffffffffffffffffffffffffffffffffffffffff1602179055508160016003018190555042600160090160006101000a81548167ffffffffffffffff021916908367ffffffffffffffff16021790555080600180018190555060016000806101000a81548160ff02191690836003811115610cc157fe5b02179055505050505050565b600042600160050154101515610d46576000600160040160006101000a81548173ffffffffffffffffffffffffffffffffffffffff021916908373ffffffffffffffffffffffffffffffffffffffff16021790555060016000806101000a81548160ff02191690836003811115610d4057fe5b02179055505b8273ffffffffffffffffffffffffffffffffffffffff16600160040160009054906101000a900473ffffffffffffffffffffffffffffffffffffffff1673ffffffffffffffffffffffffffffffffffffffff16141580610df75750600073ffffffffffffffffffffffffffffffffffffffff16600160040160009054906101000a900473ffffffffffffffffffffffffffffffffffffffff1673ffffffffffffffffffffffffffffffffffffffff16145b80610e06575081600180015414155b80610e36575060026003811115610e1957fe5b6000809054906101000a900460ff166003811115610e3357fe5b14155b15610e445760009050610e49565b600190505b92915050565b602060405190810160405280600081525090565b815481835581811511610e8a57818360005260206000209182019101610e899190610f0f565b5b505050565b828054600181600116156101000203166002900490600052602060002090601f016020900481019282601f10610ed057803560ff1916838001178555610efe565b82800160010185558215610efe579182015b82811115610efd578235825591602001919060010190610ee2565b5b509050610f0b9190610f0f565b5090565b610f3191905b80821115610f2d576000816000905550600101610f15565b5090565b905600a165627a7a72305820fa3bba5130a5fdd9065ffff95e80ca294339c5ce2f99b2ec64ec725fbff2f4b00029",
  "source": "pragma solidity ^0.4.4;\n\n\ncontract Product {\n\n    struct Product {\n        address owner;\n        uint price;\n        string name;\n        uint minPrice;\n        address lock;\n        uint lockTime;\n        mapping (address => uint) viewers;\n        address[] viewerlist;                   //adress of viewers for pay back\n        uint viewCount;\n        uint64 createdOn;                   // Time when product was created\n\n    }\n\n    enum  State { Initial, Available, Locked, Selled }\n\n    State public cState;\n\n    Product private product;\n   //Buyer public constant ens = Buyer(0x314159265dD8dbb310642f98f50C066173C1259b);\n\n    address public Buyer;\n    address public Seller;\n\n    modifier timeIsUp() {\n\n        if (product.lockTime >= block.timestamp) {\n            product.lock = address(0);\n            cState=State.Available;\n        }\n        _;\n    }\n\n   modifier onlyBuyerOrOwner(){\n     //this is not correct fix this\n     if (msg.sender == Buyer || msg.sender== product.owner)\n     {\n          _;\n\n     }else{\n        revert();\n     }\n\n\n   }\n\n   modifier checkLock(address msgSender){\n       if (product.lock != msgSender) {\n          revert();\n       }\n       _;\n   }\n    modifier checkLocked(){\n       if (checkLockable()) {\n          revert();\n       }\n       _;\n   }\n\n   function checkLockable() public view returns (bool){\n       if (product.lock != address(0) ) {\n          return false;\n       }\n       return true;\n   }\n\n   function checkBuyable(address _msgSender,uint _value)\n   public\n   timeIsUp\n   returns (bool)\n   {\n       //require(product.lock == msgsender && product.price == value);\n       if (product.lock != _msgSender || product.lock == address(0) ||  product.price != _value || cState != State.Locked ) {\n          return false;\n       }\n       return true;\n   }\n\n\n    function construct(\n        string _name,\n        address _owner,\n        uint _minPrice,\n        uint _price\n    )\n        external\n    {\n        //add modifier this function restrict only callable from merchants contracts\n\n        require(product.createdOn == 0);               // Prevent constructing multiple times\n        product.name = _name;\n        product.owner=msg.sender;\n        product.owner = _owner;\n        product.minPrice = _minPrice;\n        product.createdOn = uint64(now);\n        product.price = _price;\n        cState=State.Available;\n    }\n\n\n   function lockProduct(address viewer)\n   public\n   timeIsUp()\n   checkLocked()\n   {\n        //add modifier this function restrict only callaable from merchants contracts\n\n       require(checkLockable());\n       require(product.price >= product.minPrice);\n       product.lock=viewer;\n       product.viewCount+=1;\n       product.price-=1;//change this :)\n       product.viewerlist.push(viewer);//maybe mapping\n       product.viewers[viewer]+=1000 ;//in wei\n       product.lockTime=now+60;//now is block.timestamp\n       cState=State.Locked;\n\n\n   }\n\n   function generalInfo() public\n   view\n   returns(address,string,uint,uint64) //owner,name\n   {\n     return (product.owner,product.name,product.viewCount,product.createdOn);\n   }\n\n\n   function pricelInfo(address locker)\n   public\n   timeIsUp\n   checkLock(locker)\n   returns(uint,string) //owner,name\n   {\n     return (product.price,product.name);\n   }\n\n   function getOwner()public\n   view\n   returns(address) //owner,name\n   {\n     return (product.owner);\n   }\n\n\n    function destroyProduct()external\n    //add modifier only seller contract can call this,name\n    onlyBuyerOrOwner()\n    {\n      selfdestruct(product.owner);\n    }\n\n\n    function getBalance() view public returns ( uint) {\n        return address(this).balance ;\n    }\n\n\n}\n",
  "sourcePath": "/Users/fatih/Desktop/Product-Bazaar/contracts/Product.sol",
  "compiler": {
    "name": "solc",
    "version": "0.4.18+commit.9cf6e910.Emscripten.clang"
  },
  "schemaVersion": "1.0.1",
  "updatedAt": "2018-03-19T14:58:04.207Z"
}