{
  "contractName": "Product",
  "abi": [
    {
      "constant": true,
      "inputs": [],
      "name": "Seller",
      "outputs": [
        {
          "name": "",
          "type": "address"
        }
      ],
      "payable": false,
      "stateMutability": "view",
      "type": "function"
    },
    {
      "constant": true,
      "inputs": [],
      "name": "cState",
      "outputs": [
        {
          "name": "",
          "type": "uint8"
        }
      ],
      "payable": false,
      "stateMutability": "view",
      "type": "function"
    },
    {
      "constant": true,
      "inputs": [],
      "name": "Buyer",
      "outputs": [
        {
          "name": "",
          "type": "address"
        }
      ],
      "payable": false,
      "stateMutability": "view",
      "type": "function"
    },
    {
      "constant": true,
      "inputs": [],
      "name": "checkLockable",
      "outputs": [
        {
          "name": "",
          "type": "bool"
        }
      ],
      "payable": false,
      "stateMutability": "view",
      "type": "function"
    },
    {
      "constant": false,
      "inputs": [
        {
          "name": "_msgSender",
          "type": "address"
        },
        {
          "name": "_value",
          "type": "uint256"
        }
      ],
      "name": "checkBuyable",
      "outputs": [
        {
          "name": "",
          "type": "bool"
        }
      ],
      "payable": false,
      "stateMutability": "nonpayable",
      "type": "function"
    },
    {
      "constant": false,
      "inputs": [
        {
          "name": "_name",
          "type": "string"
        },
        {
          "name": "_owner",
          "type": "address"
        },
        {
          "name": "_minPrice",
          "type": "uint256"
        },
        {
          "name": "_price",
          "type": "uint256"
        }
      ],
      "name": "construct",
      "outputs": [],
      "payable": false,
      "stateMutability": "nonpayable",
      "type": "function"
    },
    {
      "constant": false,
      "inputs": [
        {
          "name": "viewer",
          "type": "address"
        }
      ],
      "name": "lockProduct",
      "outputs": [],
      "payable": false,
      "stateMutability": "nonpayable",
      "type": "function"
    },
    {
      "constant": true,
      "inputs": [],
      "name": "generalInfo",
      "outputs": [
        {
          "name": "",
          "type": "address"
        },
        {
          "name": "",
          "type": "string"
        },
        {
          "name": "",
          "type": "uint256"
        },
        {
          "name": "",
          "type": "uint64"
        }
      ],
      "payable": false,
      "stateMutability": "view",
      "type": "function"
    },
    {
      "constant": false,
      "inputs": [
        {
          "name": "locker",
          "type": "address"
        }
      ],
      "name": "pricelInfo",
      "outputs": [
        {
          "name": "",
          "type": "uint256"
        },
        {
          "name": "",
          "type": "string"
        }
      ],
      "payable": false,
      "stateMutability": "nonpayable",
      "type": "function"
    },
    {
      "constant": true,
      "inputs": [],
      "name": "getOwner",
      "outputs": [
        {
          "name": "",
          "type": "address"
        }
      ],
      "payable": false,
      "stateMutability": "view",
      "type": "function"
    },
    {
      "constant": true,
      "inputs": [],
      "name": "getLock",
      "outputs": [
        {
          "name": "",
          "type": "address"
        }
      ],
      "payable": false,
      "stateMutability": "view",
      "type": "function"
    },
    {
      "constant": false,
      "inputs": [],
      "name": "destroyProduct",
      "outputs": [],
      "payable": false,
      "stateMutability": "nonpayable",
      "type": "function"
    },
    {
      "constant": true,
      "inputs": [],
      "name": "getBalance",
      "outputs": [
        {
          "name": "",
          "type": "uint256"
        }
      ],
      "payable": false,
      "stateMutability": "view",
      "type": "function"
    }
  ],
  "bytecode": "0x6060604052341561000f57600080fd5b610f4a8061001e6000396000f3006060604052600436106100c5576000357c0100000000000000000000000000000000000000000000000000000000900463ffffffff168063072162d7146100ca57806307fd3687146100df57806312065fe014610134578063129705781461015d5780631c6f0f851461018a57806325a6c545146101c15780634d97e5a0146102a45780637e5852d9146102dd5780638110233814610332578063893d20e8146103eb578063a1c12e6b14610440578063d7e96ff514610495578063fd52c53e146104f4575b600080fd5b34156100d557600080fd5b6100dd61054e565b005b34156100ea57600080fd5b6100f2610642565b604051808273ffffffffffffffffffffffffffffffffffffffff1673ffffffffffffffffffffffffffffffffffffffff16815260200191505060405180910390f35b341561013f57600080fd5b610147610668565b6040518082815260200191505060405180910390f35b341561016857600080fd5b610170610687565b604051808215151515815260200191505060405180910390f35b341561019557600080fd5b61019d6106f3565b604051808260038111156101ad57fe5b60ff16815260200191505060405180910390f35b34156101cc57600080fd5b6101d4610705565b604051808573ffffffffffffffffffffffffffffffffffffffff1673ffffffffffffffffffffffffffffffffffffffff168152602001806020018481526020018367ffffffffffffffff1667ffffffffffffffff168152602001828103825285818151815260200191508051906020019080838360005b8381101561026657808201518184015260208101905061024b565b50505050905090810190601f1680156102935780820380516001836020036101000a031916815260200191505b509550505050505060405180910390f35b34156102af57600080fd5b6102db600480803573ffffffffffffffffffffffffffffffffffffffff16906020019091905050610807565b005b34156102e857600080fd5b6102f061096e565b604051808273ffffffffffffffffffffffffffffffffffffffff1673ffffffffffffffffffffffffffffffffffffffff16815260200191505060405180910390f35b341561033d57600080fd5b610369600480803573ffffffffffffffffffffffffffffffffffffffff1690602001909190505061099b565b6040518083815260200180602001828103825283818151815260200191508051906020019080838360005b838110156103af578082015181840152602081019050610394565b50505050905090810190601f1680156103dc5780820380516001836020036101000a031916815260200191505b50935050505060405180910390f35b34156103f657600080fd5b6103fe610b2c565b604051808273ffffffffffffffffffffffffffffffffffffffff1673ffffffffffffffffffffffffffffffffffffffff16815260200191505060405180910390f35b341561044b57600080fd5b610453610b59565b604051808273ffffffffffffffffffffffffffffffffffffffff1673ffffffffffffffffffffffffffffffffffffffff16815260200191505060405180910390f35b34156104a057600080fd5b6104f26004808035906020019082018035906020019190919290803573ffffffffffffffffffffffffffffffffffffffff16906020019091908035906020019091908035906020019091905050610b7f565b005b34156104ff57600080fd5b610534600480803573ffffffffffffffffffffffffffffffffffffffff16906020019091908035906020019091905050610cb7565b604051808215151515815260200191505060405180910390f35b600b60009054906101000a900473ffffffffffffffffffffffffffffffffffffffff1673ffffffffffffffffffffffffffffffffffffffff163373ffffffffffffffffffffffffffffffffffffffff1614806105fa5750600160000160009054906101000a900473ffffffffffffffffffffffffffffffffffffffff1673ffffffffffffffffffffffffffffffffffffffff163373ffffffffffffffffffffffffffffffffffffffff16145b1561063d57600160000160009054906101000a900473ffffffffffffffffffffffffffffffffffffffff1673ffffffffffffffffffffffffffffffffffffffff16ff5b600080fd5b600c60009054906101000a900473ffffffffffffffffffffffffffffffffffffffff1681565b60003073ffffffffffffffffffffffffffffffffffffffff1631905090565b60008073ffffffffffffffffffffffffffffffffffffffff16600160040160009054906101000a900473ffffffffffffffffffffffffffffffffffffffff1673ffffffffffffffffffffffffffffffffffffffff1614156106eb57600190506106f0565b600090505b90565b6000809054906101000a900460ff1681565b600061070f610e39565b600080600160000160009054906101000a900473ffffffffffffffffffffffffffffffffffffffff166001600201600160080154600160090160009054906101000a900467ffffffffffffffff16828054600181600116156101000203166002900480601f0160208091040260200160405190810160405280929190818152602001828054600181600116156101000203166002900480156107f25780601f106107c7576101008083540402835291602001916107f2565b820191906000526020600020905b8154815290600101906020018083116107d557829003601f168201915b50505050509250935093509350935090919293565b61080f610687565b1561081957600080fd5b80600160040160006101000a81548173ffffffffffffffffffffffffffffffffffffffff021916908373ffffffffffffffffffffffffffffffffffffffff16021790555060018060080160008282540192505081905550600180600101600082825403925050819055506001600701805480600101828161089a9190610e4d565b9160005260206000209001600083909190916101000a81548173ffffffffffffffffffffffffffffffffffffffff021916908373ffffffffffffffffffffffffffffffffffffffff160217905550506103e8600160060160008373ffffffffffffffffffffffffffffffffffffffff1673ffffffffffffffffffffffffffffffffffffffff16815260200190815260200160002060008282540192505081905550603c420160016005018190555060026000806101000a81548160ff0219169083600381111561096657fe5b021790555050565b6000600160040160009054906101000a900473ffffffffffffffffffffffffffffffffffffffff16905090565b60006109a5610e39565b42600160050154101515610a1c576000600160040160006101000a81548173ffffffffffffffffffffffffffffffffffffffff021916908373ffffffffffffffffffffffffffffffffffffffff16021790555060016000806101000a81548160ff02191690836003811115610a1657fe5b02179055505b828073ffffffffffffffffffffffffffffffffffffffff16600160040160009054906101000a900473ffffffffffffffffffffffffffffffffffffffff1673ffffffffffffffffffffffffffffffffffffffff16141515610a7c57600080fd5b60018001546001600201808054600181600116156101000203166002900480601f016020809104026020016040519081016040528092919081815260200182805460018160011615610100020316600290048015610b1b5780601f10610af057610100808354040283529160200191610b1b565b820191906000526020600020905b815481529060010190602001808311610afe57829003601f168201915b505050505090509250925050915091565b6000600160000160009054906101000a900473ffffffffffffffffffffffffffffffffffffffff16905090565b600b60009054906101000a900473ffffffffffffffffffffffffffffffffffffffff1681565b6000600160090160009054906101000a900467ffffffffffffffff1667ffffffffffffffff16141515610bb157600080fd5b848460016002019190610bc5929190610e79565b5033600160000160006101000a81548173ffffffffffffffffffffffffffffffffffffffff021916908373ffffffffffffffffffffffffffffffffffffffff16021790555082600160000160006101000a81548173ffffffffffffffffffffffffffffffffffffffff021916908373ffffffffffffffffffffffffffffffffffffffff1602179055508160016003018190555042600160090160006101000a81548167ffffffffffffffff021916908367ffffffffffffffff16021790555080600180018190555060016000806101000a81548160ff02191690836003811115610cab57fe5b02179055505050505050565b600042600160050154101515610d30576000600160040160006101000a81548173ffffffffffffffffffffffffffffffffffffffff021916908373ffffffffffffffffffffffffffffffffffffffff16021790555060016000806101000a81548160ff02191690836003811115610d2a57fe5b02179055505b8273ffffffffffffffffffffffffffffffffffffffff16600160040160009054906101000a900473ffffffffffffffffffffffffffffffffffffffff1673ffffffffffffffffffffffffffffffffffffffff16141580610de15750600073ffffffffffffffffffffffffffffffffffffffff16600160040160009054906101000a900473ffffffffffffffffffffffffffffffffffffffff1673ffffffffffffffffffffffffffffffffffffffff16145b80610df0575081600180015414155b80610e20575060026003811115610e0357fe5b6000809054906101000a900460ff166003811115610e1d57fe5b14155b15610e2e5760009050610e33565b600190505b92915050565b602060405190810160405280600081525090565b815481835581811511610e7457818360005260206000209182019101610e739190610ef9565b5b505050565b828054600181600116156101000203166002900490600052602060002090601f016020900481019282601f10610eba57803560ff1916838001178555610ee8565b82800160010185558215610ee8579182015b82811115610ee7578235825591602001919060010190610ecc565b5b509050610ef59190610ef9565b5090565b610f1b91905b80821115610f17576000816000905550600101610eff565b5090565b905600a165627a7a72305820715061a13e8966c4537965b58d33ff94ce2676839dc5326a93844faddc3cbe930029",
  "source": "pragma solidity ^0.4.4;\n\n\ncontract Product {\n\n    struct Product {\n        address owner;\n        uint price;\n        string name;\n        uint minPrice;\n        address lock;\n        uint lockTime;\n        mapping (address => uint) viewers;\n        address[] viewerlist;                   //adress of viewers for pay back\n        uint viewCount;\n        uint64 createdOn;                   // Time when product was created\n\n    }\n\n    enum  State { Initial, Available, Locked, Selled }\n\n    State public cState;\n\n    Product private product;\n   //Buyer public constant ens = Buyer(0x314159265dD8dbb310642f98f50C066173C1259b);\n\n    address public Buyer;\n    address public Seller;\n\n    modifier timeIsUp() {\n\n        if (product.lockTime >= block.timestamp) {\n            product.lock = address(0);\n            cState=State.Available;\n        }\n        _;\n    }\n\n    modifier onlyBuyerOrOwner(){\n     //this is not correct fix this\n        if (msg.sender == Buyer || msg.sender == product.owner )\n        {\n            _;\n        }else{\n            revert();\n        }\n    }\n\n    modifier checkLock(address msgSender){\n        if (product.lock != msgSender) {\n            revert();\n        }\n        _;\n    }\n    modifier checkLocked(){\n        if (checkLockable()) {\n            revert();\n        }\n        _;\n    }\n\n    function checkLockable() public view returns (bool){\n        if (product.lock == address(0) ) {\n            return true;\n        }\n        return false;\n    }\n\n    function checkBuyable(address _msgSender,uint _value)\n    public\n    timeIsUp\n    returns (bool)\n   {\n       //require(product.lock == msgsender && product.price == value);\n        if (product.lock != _msgSender || product.lock == address(0) ||  product.price != _value || cState != State.Locked ) {\n            return false;\n        }\n        return true;\n    }\n\n\n    function construct(\n        string _name,\n        address _owner,\n        uint _minPrice,\n        uint _price\n    )\n        external\n    {\n        //add modifier this function restrict only callable from merchants contracts\n\n        require(product.createdOn == 0);               // Prevent constructing multiple times\n        product.name = _name;\n        product.owner=msg.sender;\n        product.owner = _owner;\n        product.minPrice = _minPrice;\n        product.createdOn = uint64(now);\n        product.price = _price;\n        cState=State.Available;\n    }\n\n\n    function lockProduct(address viewer)\n    public\n    checkLocked()\n   {\n        //add modifier this function restrict only callaable from merchants contracts\n\n        //require(checkLockable());\n        //require(product.price >= product.minPrice);\n        product.lock=viewer;\n        product.viewCount+=1;\n        product.price-=1;//change this :)\n        product.viewerlist.push(viewer);//maybe mapping\n        product.viewers[viewer]+=1000 ;//in wei\n        product.lockTime=now+60;//now is block.timestamp\n        cState=State.Locked;\n\n    }\n    //todo add lockstatus to returns\n    function generalInfo() public\n    view\n    returns(address,string,uint,uint64) //owner,name\n    {\n        return (product.owner,product.name,product.viewCount,product.createdOn);\n    }\n\n\n    function pricelInfo(address locker)\n    public\n    timeIsUp\n    checkLock(locker)\n    returns(uint,string) //owner,name\n    {\n        return (product.price,product.name);\n    }\n\n    function getOwner()public\n    view\n    returns(address) //owner,name\n    {\n        return (product.owner);\n    }\n\n    function getLock()public\n    view\n    returns(address) //owner,name\n    {\n        return (product.lock);\n    }\n\n\n    function destroyProduct()external\n    //add modifier only seller contract can call this,name\n    onlyBuyerOrOwner()\n    {\n        selfdestruct(product.owner);\n    }\n\n\n    function getBalance() view public returns ( uint) {\n        return address(this).balance ;\n    }\n\n\n}\n",
  "sourcePath": "/Users/fatih/Desktop/Product-Bazaar/contracts/Product.sol",
  "compiler": {
    "name": "solc",
    "version": "0.4.19+commit.c4cbbb05.Emscripten.clang"
  },
  "schemaVersion": "2.0.0",
  "updatedAt": "2018-04-18T03:42:50.587Z"
}