{
  "contractName": "ProductRegistry",
  "abi": [
    {
      "constant": true,
      "inputs": [],
      "name": "productSize",
      "outputs": [
        {
          "name": "",
          "type": "uint256"
        }
      ],
      "payable": false,
      "stateMutability": "view",
      "type": "function"
    },
    {
      "constant": true,
      "inputs": [
        {
          "name": "",
          "type": "address"
        }
      ],
      "name": "productsIndex",
      "outputs": [
        {
          "name": "",
          "type": "uint256"
        }
      ],
      "payable": false,
      "stateMutability": "view",
      "type": "function"
    },
    {
      "constant": true,
      "inputs": [
        {
          "name": "",
          "type": "address"
        }
      ],
      "name": "productsState",
      "outputs": [
        {
          "name": "",
          "type": "bool"
        }
      ],
      "payable": false,
      "stateMutability": "view",
      "type": "function"
    },
    {
      "constant": true,
      "inputs": [
        {
          "name": "",
          "type": "address"
        },
        {
          "name": "",
          "type": "uint256"
        }
      ],
      "name": "ownertoProducts",
      "outputs": [
        {
          "name": "",
          "type": "address"
        }
      ],
      "payable": false,
      "stateMutability": "view",
      "type": "function"
    },
    {
      "inputs": [],
      "payable": false,
      "stateMutability": "nonpayable",
      "type": "constructor"
    },
    {
      "anonymous": false,
      "inputs": [
        {
          "indexed": true,
          "name": "owner",
          "type": "address"
        },
        {
          "indexed": true,
          "name": "product",
          "type": "address"
        },
        {
          "indexed": false,
          "name": "name",
          "type": "string"
        },
        {
          "indexed": false,
          "name": "ontheBazzar",
          "type": "bool"
        }
      ],
      "name": "LogProductAdded",
      "type": "event"
    },
    {
      "anonymous": false,
      "inputs": [
        {
          "indexed": true,
          "name": "owner",
          "type": "address"
        },
        {
          "indexed": true,
          "name": "product",
          "type": "address"
        },
        {
          "indexed": false,
          "name": "name",
          "type": "string"
        }
      ],
      "name": "LogProductDeleted",
      "type": "event"
    },
    {
      "constant": false,
      "inputs": [
        {
          "name": "_name",
          "type": "string"
        },
        {
          "name": "_owner",
          "type": "address"
        },
        {
          "name": "_minPrice",
          "type": "uint256"
        },
        {
          "name": "_price",
          "type": "uint256"
        },
        {
          "name": "onBazzar",
          "type": "bool"
        }
      ],
      "name": "addProduct",
      "outputs": [
        {
          "name": "",
          "type": "address"
        }
      ],
      "payable": false,
      "stateMutability": "nonpayable",
      "type": "function"
    },
    {
      "constant": true,
      "inputs": [],
      "name": "getSize",
      "outputs": [
        {
          "name": "",
          "type": "uint256"
        }
      ],
      "payable": false,
      "stateMutability": "view",
      "type": "function"
    },
    {
      "constant": false,
      "inputs": [
        {
          "name": "_product",
          "type": "address"
        }
      ],
      "name": "removeProduct",
      "outputs": [],
      "payable": false,
      "stateMutability": "nonpayable",
      "type": "function"
    }
  ],
  "bytecode": "0x6060604052341561000f57600080fd5b6001600460006101000a81548160ff021916908315150217905550611adb806100396000396000f300606060405260043610610083576000357c0100000000000000000000000000000000000000000000000000000000900463ffffffff168063084c1145146100885780631c0ba3f2146101615780634ba88d6e1461018a578063513388bc146101d75780636c79fb1a14610228578063787b6725146102aa578063de8fa431146102e3575b600080fd5b341561009357600080fd5b61011f600480803590602001908201803590602001908080601f0160208091040260200160405190810160405280939291908181526020018383808284378201915050505050509190803573ffffffffffffffffffffffffffffffffffffffff16906020019091908035906020019091908035906020019091908035151590602001909190505061030c565b604051808273ffffffffffffffffffffffffffffffffffffffff1673ffffffffffffffffffffffffffffffffffffffff16815260200191505060405180910390f35b341561016c57600080fd5b6101746106da565b6040518082815260200191505060405180910390f35b341561019557600080fd5b6101c1600480803573ffffffffffffffffffffffffffffffffffffffff169060200190919050506106e0565b6040518082815260200191505060405180910390f35b34156101e257600080fd5b61020e600480803573ffffffffffffffffffffffffffffffffffffffff169060200190919050506106f8565b604051808215151515815260200191505060405180910390f35b341561023357600080fd5b610268600480803573ffffffffffffffffffffffffffffffffffffffff16906020019091908035906020019091905050610718565b604051808273ffffffffffffffffffffffffffffffffffffffff1673ffffffffffffffffffffffffffffffffffffffff16815260200191505060405180910390f35b34156102b557600080fd5b6102e1600480803573ffffffffffffffffffffffffffffffffffffffff16906020019091905050610766565b005b34156102ee57600080fd5b6102f6610878565b6040518082815260200191505060405180910390f35b600080610317610882565b604051809103906000f080151561032d57600080fd5b90508073ffffffffffffffffffffffffffffffffffffffff1663854f4aa288888888886040518663ffffffff167c010000000000000000000000000000000000000000000000000000000002815260040180806020018673ffffffffffffffffffffffffffffffffffffffff1673ffffffffffffffffffffffffffffffffffffffff16815260200185815260200184815260200183151515158152602001828103825287818151815260200191508051906020019080838360005b838110156104035780820151818401526020810190506103e8565b50505050905090810190601f1680156104305780820380516001836020036101000a031916815260200191505b509650505050505050600060405180830381600087803b151561045257600080fd5b6102c65a03f1151561046357600080fd5b5050506001600260008373ffffffffffffffffffffffffffffffffffffffff1673ffffffffffffffffffffffffffffffffffffffff16815260200190815260200160002060006101000a81548160ff0219169083151502179055506000808773ffffffffffffffffffffffffffffffffffffffff1673ffffffffffffffffffffffffffffffffffffffff168152602001908152602001600020805480600101828161050e9190610892565b9160005260206000209001600083909190916101000a81548173ffffffffffffffffffffffffffffffffffffffff021916908373ffffffffffffffffffffffffffffffffffffffff1602179055505060016000808873ffffffffffffffffffffffffffffffffffffffff1673ffffffffffffffffffffffffffffffffffffffff1681526020019081526020016000208054905003600160008373ffffffffffffffffffffffffffffffffffffffff1673ffffffffffffffffffffffffffffffffffffffff168152602001908152602001600020819055506003600081548092919060010191905055508073ffffffffffffffffffffffffffffffffffffffff168673ffffffffffffffffffffffffffffffffffffffff167fbcf9051d4826b094cd6576293acaf763ab042bcf7c080b8a5ed244bc4c61d6718986604051808060200183151515158152602001828103825284818151815260200191508051906020019080838360005b83811015610692578082015181840152602081019050610677565b50505050905090810190601f1680156106bf5780820380516001836020036101000a031916815260200191505b50935050505060405180910390a38091505095945050505050565b60035481565b60016020528060005260406000206000915090505481565b60026020528060005260406000206000915054906101000a900460ff1681565b60006020528160005260406000208181548110151561073357fe5b90600052602060002090016000915091509054906101000a900473ffffffffffffffffffffffffffffffffffffffff1681565b3373ffffffffffffffffffffffffffffffffffffffff168173ffffffffffffffffffffffffffffffffffffffff1663893d20e86000604051602001526040518163ffffffff167c0100000000000000000000000000000000000000000000000000000000028152600401602060405180830381600087803b15156107e957600080fd5b6102c65a03f115156107fa57600080fd5b5050506040518051905073ffffffffffffffffffffffffffffffffffffffff1614151561082657600080fd5b600260008273ffffffffffffffffffffffffffffffffffffffff1673ffffffffffffffffffffffffffffffffffffffff16815260200190815260200160002060006101000a81549060ff021916905550565b6000600354905090565b6040516111cc806108e483390190565b8154818355818115116108b9578183600052602060002091820191016108b891906108be565b5b505050565b6108e091905b808211156108dc5760008160009055506001016108c4565b5090565b90560060606040526000600b60006101000a81548160ff0219169083151502179055506000600b601d6101000a81548160ff0219169083151502179055506000600b601e6101000a81548160ff021916908315150217905550341561006057600080fd5b61115d8061006f6000396000f3006060604052600436106100c5576000357c0100000000000000000000000000000000000000000000000000000000900463ffffffff168063072162d7146100ca5780630fdb1c10146100df57806312065fe01461010c5780631c6f0f851461013557806325a6c5451461016c5780634fd6137c146102645780637e5852d914610291578063854f4aa2146102e6578063893d20e8146103505780639ada9b7b146103a5578063ad1e1fa4146103c7578063af0c27051461045c578063e96d981c14610489575b600080fd5b34156100d557600080fd5b6100dd610493565b005b34156100ea57600080fd5b6100f2610530565b604051808215151515815260200191505060405180910390f35b341561011757600080fd5b61011f61063e565b6040518082815260200191505060405180910390f35b341561014057600080fd5b61014861065d565b6040518082600381111561015857fe5b60ff16815260200191505060405180910390f35b341561017757600080fd5b61017f61066f565b604051808673ffffffffffffffffffffffffffffffffffffffff1673ffffffffffffffffffffffffffffffffffffffff168152602001806020018581526020018467ffffffffffffffff1667ffffffffffffffff1681526020018360038111156101e557fe5b60ff168152602001828103825286818151815260200191508051906020019080838360005b8381101561022557808201518184015260208101905061020a565b50505050905090810190601f1680156102525780820380516001836020036101000a031916815260200191505b50965050505050505060405180910390f35b341561026f57600080fd5b610277610785565b604051808215151515815260200191505060405180910390f35b341561029c57600080fd5b6102a461083b565b604051808273ffffffffffffffffffffffffffffffffffffffff1673ffffffffffffffffffffffffffffffffffffffff16815260200191505060405180910390f35b34156102f157600080fd5b61034e6004808035906020019082018035906020019190919290803573ffffffffffffffffffffffffffffffffffffffff169060200190919080359060200190919080359060200190919080351515906020019091905050610868565b005b341561035b57600080fd5b6103636109bb565b604051808273ffffffffffffffffffffffffffffffffffffffff1673ffffffffffffffffffffffffffffffffffffffff16815260200191505060405180910390f35b6103ad6109e8565b604051808215151515815260200191505060405180910390f35b34156103d257600080fd5b6103da610b87565b6040518083815260200180602001828103825283818151815260200191508051906020019080838360005b83811015610420578082015181840152602081019050610405565b50505050905090810190601f16801561044d5780820380516001836020036101000a031916815260200191505b50935050505060405180910390f35b341561046757600080fd5b61046f610d30565b604051808215151515815260200191505060405180910390f35b610491610dc7565b005b600160000160009054906101000a900473ffffffffffffffffffffffffffffffffffffffff1673ffffffffffffffffffffffffffffffffffffffff163373ffffffffffffffffffffffffffffffffffffffff161415156104f257600080fd5b600160000160009054906101000a900473ffffffffffffffffffffffffffffffffffffffff1673ffffffffffffffffffffffffffffffffffffffff16ff5b6000600160000160009054906101000a900473ffffffffffffffffffffffffffffffffffffffff1673ffffffffffffffffffffffffffffffffffffffff163373ffffffffffffffffffffffffffffffffffffffff1614151561059157600080fd5b60011515600b601e9054906101000a900460ff1615151480156105c7575060001515600b601d9054906101000a900460ff161515145b15156105d257600080fd5b600160000160009054906101000a900473ffffffffffffffffffffffffffffffffffffffff1673ffffffffffffffffffffffffffffffffffffffff166108fc60018001549081150290604051600060405180830381858888f19350505050151561063b57600080fd5b90565b60003073ffffffffffffffffffffffffffffffffffffffff1631905090565b6000809054906101000a900460ff1681565b600061067961104c565b6000806000600160000160009054906101000a900473ffffffffffffffffffffffffffffffffffffffff166001600201600160080154600160090160009054906101000a900467ffffffffffffffff166000809054906101000a900460ff16838054600181600116156101000203166002900480601f01602080910402602001604051908101604052809291908181526020018280546001816001161561010002031660029004801561076d5780601f106107425761010080835404028352916020019161076d565b820191906000526020600020905b81548152906001019060200180831161075057829003601f168201915b50505050509350945094509450945094509091929394565b6000600b60009054906101000a900460ff1615156107a257600080fd5b600b60019054906101000a900473ffffffffffffffffffffffffffffffffffffffff1673ffffffffffffffffffffffffffffffffffffffff163373ffffffffffffffffffffffffffffffffffffffff16148015610812575060001515600b601e9054906101000a900460ff161515145b151561081d57600080fd5b6001600b601d6101000a81548160ff02191690831515021790555090565b6000600160040160009054906101000a900473ffffffffffffffffffffffffffffffffffffffff16905090565b6000600160090160009054906101000a900467ffffffffffffffff1667ffffffffffffffff1614151561089a57600080fd5b8585600160020191906108ae929190611060565b5033600160000160006101000a81548173ffffffffffffffffffffffffffffffffffffffff021916908373ffffffffffffffffffffffffffffffffffffffff16021790555083600160000160006101000a81548173ffffffffffffffffffffffffffffffffffffffff021916908373ffffffffffffffffffffffffffffffffffffffff1602179055508260016003018190555042600160090160006101000a81548167ffffffffffffffff021916908367ffffffffffffffff16021790555081600180018190555060016000806101000a81548160ff0219169083600381111561099457fe5b021790555080600b60006101000a81548160ff021916908315150217905550505050505050565b6000600160000160009054906101000a900473ffffffffffffffffffffffffffffffffffffffff16905090565b600042600160050154101515610a61576000600160040160006101000a81548173ffffffffffffffffffffffffffffffffffffffff021916908373ffffffffffffffffffffffffffffffffffffffff16021790555060016000806101000a81548160ff02191690836003811115610a5b57fe5b02179055505b600b60009054906101000a900460ff161515610a7c57600080fd5b3373ffffffffffffffffffffffffffffffffffffffff16600160040160009054906101000a900473ffffffffffffffffffffffffffffffffffffffff1673ffffffffffffffffffffffffffffffffffffffff16148015610adf5750346001800154145b8015610b0f575060026003811115610af357fe5b6000809054906101000a900460ff166003811115610b0d57fe5b145b1515610b1a57600080fd5b33600b60016101000a81548173ffffffffffffffffffffffffffffffffffffffff021916908373ffffffffffffffffffffffffffffffffffffffff16021790555042600b60156101000a81548167ffffffffffffffff021916908367ffffffffffffffff16021790555090565b6000610b9161104c565b42600160050154101515610c08576000600160040160006101000a81548173ffffffffffffffffffffffffffffffffffffffff021916908373ffffffffffffffffffffffffffffffffffffffff16021790555060016000806101000a81548160ff02191690836003811115610c0257fe5b02179055505b3373ffffffffffffffffffffffffffffffffffffffff16600160040160009054906101000a900473ffffffffffffffffffffffffffffffffffffffff1673ffffffffffffffffffffffffffffffffffffffff16141515610c6757600080fd5b600b60009054906101000a900460ff161515610c8257600080fd5b60018001546001600201808054600181600116156101000203166002900480601f016020809104026020016040519081016040528092919081815260200182805460018160011615610100020316600290048015610d215780601f10610cf657610100808354040283529160200191610d21565b820191906000526020600020905b815481529060010190602001808311610d0457829003601f168201915b50505050509050915091509091565b6000600b60009054906101000a900460ff161515610d4d57600080fd5b600b60019054906101000a900473ffffffffffffffffffffffffffffffffffffffff1673ffffffffffffffffffffffffffffffffffffffff163373ffffffffffffffffffffffffffffffffffffffff16141515610da957600080fd5b6001600b601e6101000a81548160ff02191690831515021790555090565b42600160050154101515610e3e576000600160040160006101000a81548173ffffffffffffffffffffffffffffffffffffffff021916908373ffffffffffffffffffffffffffffffffffffffff16021790555060016000806101000a81548160ff02191690836003811115610e3857fe5b02179055505b600073ffffffffffffffffffffffffffffffffffffffff16600160040160009054906101000a900473ffffffffffffffffffffffffffffffffffffffff1673ffffffffffffffffffffffffffffffffffffffff16141515610e9e57600080fd5b600b60009054906101000a900460ff161515610eb957600080fd5b67016345785d8a000034141515610ecf57600080fd5b67016345785d8a000060016003015401600180015410151515610ef157600080fd5b33600160040160006101000a81548173ffffffffffffffffffffffffffffffffffffffff021916908373ffffffffffffffffffffffffffffffffffffffff1602179055506001806008016000828254019250508190555067016345785d8a0000600180016000828254039250508190555060016007018054806001018281610f7991906110e0565b9160005260206000209001600033909190916101000a81548173ffffffffffffffffffffffffffffffffffffffff021916908373ffffffffffffffffffffffffffffffffffffffff160217905550506103e8600160060160003373ffffffffffffffffffffffffffffffffffffffff1673ffffffffffffffffffffffffffffffffffffffff16815260200190815260200160002060008282540192505081905550603c420160016005018190555060026000806101000a81548160ff0219169083600381111561104557fe5b0217905550565b602060405190810160405280600081525090565b828054600181600116156101000203166002900490600052602060002090601f016020900481019282601f106110a157803560ff19168380011785556110cf565b828001600101855582156110cf579182015b828111156110ce5782358255916020019190600101906110b3565b5b5090506110dc919061110c565b5090565b81548183558181151161110757818360005260206000209182019101611106919061110c565b5b505050565b61112e91905b8082111561112a576000816000905550600101611112565b5090565b905600a165627a7a723058200a6ceec5363512aec22947909dc06ca17e6955f2081c70dfcc78a873c6a263680029a165627a7a723058209c9db088e7b31cb0ceecb3e57c88d1100114557e293e1ca5f405ce4053f4304c0029",
  "source": "pragma solidity ^0.4.4;\nimport \"./Product.sol\";\n\ncontract ProductRegistry {\n\n    event LogProductAdded(address indexed owner, address indexed product, string  name,bool ontheBazzar);\n    event LogProductDeleted(address indexed owner, address indexed product, string  name);\n\n\n    mapping (address => address[]) public ownertoProducts;\n    mapping (address => uint) public productsIndex;\n    mapping (address => bool) public productsState; //product is publish or not\n    uint public productSize;\n\n    bool isActive;\n\n    function  ProductRegistry()  public {\n        isActive=true;\n    }\n\n    function addProduct(\n    string _name,\n    address _owner,\n    uint _minPrice,\n    uint _price,\n    bool onBazzar\n    ) public\n    returns(address){\n        Product _product=new Product();\n        _product.construct(_name,_owner,_minPrice,_price,onBazzar);\n        productsState[_product]= true;\n        ownertoProducts[_owner].push(_product);\n        productsIndex[address(_product)]=ownertoProducts[_owner].length-1;\n        productSize++;\n        LogProductAdded(_owner,_product,_name,onBazzar);\n        return address(_product);\n    }\n\n    function getSize() public view returns(uint){\n        return productSize;\n    }\n\n    function removeProduct(address _product)\n    external\n    {\n        require(Product(_product).getOwner()==msg.sender);\n\n        delete productsState[_product];\n        //delete ownertoProducts[msg.sender][];\n    }\n\n}\n",
  "sourcePath": "/Users/fatih/Desktop/Product-Bazaar/contracts/ProductRegistry.sol",
  "compiler": {
    "name": "solc",
    "version": "0.4.19+commit.c4cbbb05.Emscripten.clang"
  },
  "schemaVersion": "2.0.0",
  "updatedAt": "2018-05-06T15:16:57.272Z"
}