{
  "contractName": "ProductRegistry",
  "abi": [
    {
      "constant": true,
      "inputs": [],
      "name": "productSize",
      "outputs": [
        {
          "name": "",
          "type": "uint256"
        }
      ],
      "payable": false,
      "stateMutability": "view",
      "type": "function"
    },
    {
      "constant": true,
      "inputs": [
        {
          "name": "",
          "type": "address"
        }
      ],
      "name": "productsIndex",
      "outputs": [
        {
          "name": "",
          "type": "uint256"
        }
      ],
      "payable": false,
      "stateMutability": "view",
      "type": "function"
    },
    {
      "constant": true,
      "inputs": [
        {
          "name": "",
          "type": "address"
        }
      ],
      "name": "productsState",
      "outputs": [
        {
          "name": "",
          "type": "bool"
        }
      ],
      "payable": false,
      "stateMutability": "view",
      "type": "function"
    },
    {
      "constant": true,
      "inputs": [
        {
          "name": "",
          "type": "address"
        },
        {
          "name": "",
          "type": "uint256"
        }
      ],
      "name": "ownertoProducts",
      "outputs": [
        {
          "name": "",
          "type": "address"
        }
      ],
      "payable": false,
      "stateMutability": "view",
      "type": "function"
    },
    {
      "inputs": [],
      "payable": false,
      "stateMutability": "nonpayable",
      "type": "constructor"
    },
    {
      "anonymous": false,
      "inputs": [
        {
          "indexed": true,
          "name": "owner",
          "type": "address"
        },
        {
          "indexed": true,
          "name": "product",
          "type": "address"
        },
        {
          "indexed": false,
          "name": "name",
          "type": "string"
        },
        {
          "indexed": false,
          "name": "imageHash",
          "type": "string"
        },
        {
          "indexed": false,
          "name": "ontheBazzar",
          "type": "bool"
        }
      ],
      "name": "LogProductAdded",
      "type": "event"
    },
    {
      "anonymous": false,
      "inputs": [
        {
          "indexed": true,
          "name": "owner",
          "type": "address"
        },
        {
          "indexed": true,
          "name": "product",
          "type": "address"
        },
        {
          "indexed": false,
          "name": "name",
          "type": "string"
        }
      ],
      "name": "LogProductDeleted",
      "type": "event"
    },
    {
      "constant": false,
      "inputs": [
        {
          "name": "_name",
          "type": "string"
        },
        {
          "name": "_owner",
          "type": "address"
        },
        {
          "name": "_minPrice",
          "type": "uint256"
        },
        {
          "name": "_price",
          "type": "uint256"
        },
        {
          "name": "onBazzar",
          "type": "bool"
        },
        {
          "name": "_imageHash",
          "type": "string"
        }
      ],
      "name": "addProduct",
      "outputs": [
        {
          "name": "",
          "type": "address"
        }
      ],
      "payable": false,
      "stateMutability": "nonpayable",
      "type": "function"
    },
    {
      "constant": true,
      "inputs": [],
      "name": "getSize",
      "outputs": [
        {
          "name": "",
          "type": "uint256"
        }
      ],
      "payable": false,
      "stateMutability": "view",
      "type": "function"
    },
    {
      "constant": false,
      "inputs": [
        {
          "name": "_product",
          "type": "address"
        }
      ],
      "name": "removeProduct",
      "outputs": [],
      "payable": false,
      "stateMutability": "nonpayable",
      "type": "function"
    }
  ],
  "bytecode": "0x608060405234801561001057600080fd5b506001600460006101000a81548160ff021916908315150217905550611f478061003b6000396000f300608060405260043610610083576000357c0100000000000000000000000000000000000000000000000000000000900463ffffffff1680631c0ba3f2146100885780634ba88d6e146100b3578063513388bc1461010a5780636c79fb1a14610165578063787b6725146101f2578063c6bf254e14610235578063de8fa43114610364575b600080fd5b34801561009457600080fd5b5061009d61038f565b6040518082815260200191505060405180910390f35b3480156100bf57600080fd5b506100f4600480360381019080803573ffffffffffffffffffffffffffffffffffffffff169060200190929190505050610395565b6040518082815260200191505060405180910390f35b34801561011657600080fd5b5061014b600480360381019080803573ffffffffffffffffffffffffffffffffffffffff1690602001909291905050506103ad565b604051808215151515815260200191505060405180910390f35b34801561017157600080fd5b506101b0600480360381019080803573ffffffffffffffffffffffffffffffffffffffff169060200190929190803590602001909291905050506103cd565b604051808273ffffffffffffffffffffffffffffffffffffffff1673ffffffffffffffffffffffffffffffffffffffff16815260200191505060405180910390f35b3480156101fe57600080fd5b50610233600480360381019080803573ffffffffffffffffffffffffffffffffffffffff16906020019092919050505061041a565b005b34801561024157600080fd5b50610322600480360381019080803590602001908201803590602001908080601f0160208091040260200160405190810160405280939291908181526020018383808284378201915050505050509192919290803573ffffffffffffffffffffffffffffffffffffffff1690602001909291908035906020019092919080359060200190929190803515159060200190929190803590602001908201803590602001908080601f0160208091040260200160405190810160405280939291908181526020018383808284378201915050505050509192919290505050610544565b604051808273ffffffffffffffffffffffffffffffffffffffff1673ffffffffffffffffffffffffffffffffffffffff16815260200191505060405180910390f35b34801561037057600080fd5b506103796109fc565b6040518082815260200191505060405180910390f35b60035481565b60016020528060005260406000206000915090505481565b60026020528060005260406000206000915054906101000a900460ff1681565b6000602052816000526040600020818154811015156103e857fe5b906000526020600020016000915091509054906101000a900473ffffffffffffffffffffffffffffffffffffffff1681565b3373ffffffffffffffffffffffffffffffffffffffff168173ffffffffffffffffffffffffffffffffffffffff1663893d20e86040518163ffffffff167c0100000000000000000000000000000000000000000000000000000000028152600401602060405180830381600087803b15801561049557600080fd5b505af11580156104a9573d6000803e3d6000fd5b505050506040513d60208110156104bf57600080fd5b810190808051906020019092919050505073ffffffffffffffffffffffffffffffffffffffff161415156104f257600080fd5b600260008273ffffffffffffffffffffffffffffffffffffffff1673ffffffffffffffffffffffffffffffffffffffff16815260200190815260200160002060006101000a81549060ff021916905550565b60008061054f610a06565b604051809103906000f08015801561056b573d6000803e3d6000fd5b5090508073ffffffffffffffffffffffffffffffffffffffff166317deeb448989898989896040518763ffffffff167c010000000000000000000000000000000000000000000000000000000002815260040180806020018773ffffffffffffffffffffffffffffffffffffffff1673ffffffffffffffffffffffffffffffffffffffff1681526020018681526020018581526020018415151515815260200180602001838103835289818151815260200191508051906020019080838360005b8381101561064757808201518184015260208101905061062c565b50505050905090810190601f1680156106745780820380516001836020036101000a031916815260200191505b50838103825284818151815260200191508051906020019080838360005b838110156106ad578082015181840152602081019050610692565b50505050905090810190601f1680156106da5780820380516001836020036101000a031916815260200191505b5098505050505050505050600060405180830381600087803b1580156106ff57600080fd5b505af1158015610713573d6000803e3d6000fd5b505050506001600260008373ffffffffffffffffffffffffffffffffffffffff1673ffffffffffffffffffffffffffffffffffffffff16815260200190815260200160002060006101000a81548160ff0219169083151502179055506000808873ffffffffffffffffffffffffffffffffffffffff1673ffffffffffffffffffffffffffffffffffffffff1681526020019081526020016000208190806001815401808255809150509060018203906000526020600020016000909192909190916101000a81548173ffffffffffffffffffffffffffffffffffffffff021916908373ffffffffffffffffffffffffffffffffffffffff1602179055505060016000808973ffffffffffffffffffffffffffffffffffffffff1673ffffffffffffffffffffffffffffffffffffffff1681526020019081526020016000208054905003600160008373ffffffffffffffffffffffffffffffffffffffff1673ffffffffffffffffffffffffffffffffffffffff168152602001908152602001600020819055506003600081548092919060010191905055508073ffffffffffffffffffffffffffffffffffffffff168773ffffffffffffffffffffffffffffffffffffffff167fa3aa786071be1e3cc9cd152c2ffa2e7e96066c8034be45c6407f564948f2798e8a868860405180806020018060200184151515158152602001838103835286818151815260200191508051906020019080838360005b8381101561094b578082015181840152602081019050610930565b50505050905090810190601f1680156109785780820380516001836020036101000a031916815260200191505b50838103825285818151815260200191508051906020019080838360005b838110156109b1578082015181840152602081019050610996565b50505050905090810190601f1680156109de5780820380516001836020036101000a031916815260200191505b509550505050505060405180910390a3809150509695505050505050565b6000600354905090565b60405161150580610a1783390190560060806040526000600c60006101000a81548160ff0219169083151502179055506000600c601d6101000a81548160ff0219169083151502179055506000600c601e6101000a81548160ff02191690831515021790555034801561006157600080fd5b50611494806100716000396000f3006080604052600436106100d0576000357c0100000000000000000000000000000000000000000000000000000000900463ffffffff168063072162d7146100d55780630fdb1c10146100ec57806312065fe01461011b57806317deeb44146101465780631c6f0f85146101d957806325a6c545146102125780634fd6137c1461038a578063557ed1ba146103b95780637e5852d9146103f857806381059f781461044f578063893d20e8146104e65780639ada9b7b1461053d578063af0c27051461055f578063e96d981c1461058e575b600080fd5b3480156100e157600080fd5b506100ea610598565b005b3480156100f857600080fd5b50610101610633565b604051808215151515815260200191505060405180910390f35b34801561012757600080fd5b50610130610747565b6040518082815260200191505060405180910390f35b34801561015257600080fd5b506101d7600480360381019080803590602001908201803590602001919091929391929390803573ffffffffffffffffffffffffffffffffffffffff1690602001909291908035906020019092919080359060200190929190803515159060200190929190803590602001908201803590602001919091929391929390505050610766565b005b3480156101e557600080fd5b506101ee6108cf565b604051808260038111156101fe57fe5b60ff16815260200191505060405180910390f35b34801561021e57600080fd5b506102276108e1565b604051808973ffffffffffffffffffffffffffffffffffffffff1673ffffffffffffffffffffffffffffffffffffffff16815260200180602001806020018881526020018767ffffffffffffffff1667ffffffffffffffff16815260200186600381111561029157fe5b60ff1681526020018515151515815260200184815260200183810383528a818151815260200191508051906020019080838360005b838110156102e15780820151818401526020810190506102c6565b50505050905090810190601f16801561030e5780820380516001836020036101000a031916815260200191505b50838103825289818151815260200191508051906020019080838360005b8381101561034757808201518184015260208101905061032c565b50505050905090810190601f1680156103745780820380516001836020036101000a031916815260200191505b509a505050505050505050505060405180910390f35b34801561039657600080fd5b5061039f610cce565b604051808215151515815260200191505060405180910390f35b3480156103c557600080fd5b506103ce610d84565b604051808267ffffffffffffffff1667ffffffffffffffff16815260200191505060405180910390f35b34801561040457600080fd5b5061040d610d8c565b604051808273ffffffffffffffffffffffffffffffffffffffff1673ffffffffffffffffffffffffffffffffffffffff16815260200191505060405180910390f35b34801561045b57600080fd5b50610464610db9565b6040518083815260200180602001828103825283818151815260200191508051906020019080838360005b838110156104aa57808201518184015260208101905061048f565b50505050905090810190601f1680156104d75780820380516001836020036101000a031916815260200191505b50935050505060405180910390f35b3480156104f257600080fd5b506104fb610ee6565b604051808273ffffffffffffffffffffffffffffffffffffffff1673ffffffffffffffffffffffffffffffffffffffff16815260200191505060405180910390f35b610545610f12565b604051808215151515815260200191505060405180910390f35b34801561056b57600080fd5b506105746110b1565b604051808215151515815260200191505060405180910390f35b610596611148565b005b6001800160009054906101000a900473ffffffffffffffffffffffffffffffffffffffff1673ffffffffffffffffffffffffffffffffffffffff163373ffffffffffffffffffffffffffffffffffffffff161415156105f657600080fd5b6001800160009054906101000a900473ffffffffffffffffffffffffffffffffffffffff1673ffffffffffffffffffffffffffffffffffffffff16ff5b60006001800160009054906101000a900473ffffffffffffffffffffffffffffffffffffffff1673ffffffffffffffffffffffffffffffffffffffff163373ffffffffffffffffffffffffffffffffffffffff1614151561069357600080fd5b60011515600c601e9054906101000a900460ff1615151480156106c9575060001515600c601d9054906101000a900460ff161515145b15156106d457600080fd5b6001800160009054906101000a900473ffffffffffffffffffffffffffffffffffffffff1673ffffffffffffffffffffffffffffffffffffffff166108fc6001600201549081150290604051600060405180830381858888f19350505050158015610743573d6000803e3d6000fd5b5090565b60003073ffffffffffffffffffffffffffffffffffffffff1631905090565b60006001600a0160009054906101000a900467ffffffffffffffff1667ffffffffffffffff1614151561079857600080fd5b8787600160000191906107ac9291906113c3565b50336001800160006101000a81548173ffffffffffffffffffffffffffffffffffffffff021916908373ffffffffffffffffffffffffffffffffffffffff160217905550856001800160006101000a81548173ffffffffffffffffffffffffffffffffffffffff021916908373ffffffffffffffffffffffffffffffffffffffff160217905550846001600301819055508181600160060191906108519291906113c3565b50426001600a0160006101000a81548167ffffffffffffffff021916908367ffffffffffffffff1602179055508360016002018190555060016000806101000a81548160ff021916908360038111156108a657fe5b021790555082600c60006101000a81548160ff0219169083151502179055505050505050505050565b6000809054906101000a900460ff1681565b60006060806000806000806000600160040160009054906101000a900473ffffffffffffffffffffffffffffffffffffffff1673ffffffffffffffffffffffffffffffffffffffff163373ffffffffffffffffffffffffffffffffffffffff161415610b08576001800160009054906101000a900473ffffffffffffffffffffffffffffffffffffffff16600160000160016006016001600901546001600a0160009054906101000a900467ffffffffffffffff166000809054906101000a900460ff16600c60009054906101000a900460ff16600160020154868054600181600116156101000203166002900480601f016020809104026020016040519081016040528092919081815260200182805460018160011615610100020316600290048015610a505780601f10610a2557610100808354040283529160200191610a50565b820191906000526020600020905b815481529060010190602001808311610a3357829003601f168201915b50505050509650858054600181600116156101000203166002900480601f016020809104026020016040519081016040528092919081815260200182805460018160011615610100020316600290048015610aec5780601f10610ac157610100808354040283529160200191610aec565b820191906000526020600020905b815481529060010190602001808311610acf57829003601f168201915b5050505050955097509750975097509750975097509750610cc4565b6001800160009054906101000a900473ffffffffffffffffffffffffffffffffffffffff16600160000160016006016001600901546001600a0160009054906101000a900467ffffffffffffffff166000809054906101000a900460ff16600c60009054906101000a900460ff166000868054600181600116156101000203166002900480601f016020809104026020016040519081016040528092919081815260200182805460018160011615610100020316600290048015610c0d5780601f10610be257610100808354040283529160200191610c0d565b820191906000526020600020905b815481529060010190602001808311610bf057829003601f168201915b50505050509650858054600181600116156101000203166002900480601f016020809104026020016040519081016040528092919081815260200182805460018160011615610100020316600290048015610ca95780601f10610c7e57610100808354040283529160200191610ca9565b820191906000526020600020905b815481529060010190602001808311610c8c57829003601f168201915b50505050509550809050975097509750975097509750975097505b9091929394959697565b6000600c60009054906101000a900460ff161515610ceb57600080fd5b600c60019054906101000a900473ffffffffffffffffffffffffffffffffffffffff1673ffffffffffffffffffffffffffffffffffffffff163373ffffffffffffffffffffffffffffffffffffffff16148015610d5b575060001515600c601e9054906101000a900460ff161515145b1515610d6657600080fd5b6001600c601d6101000a81548160ff02191690831515021790555090565b600042905090565b6000600160040160009054906101000a900473ffffffffffffffffffffffffffffffffffffffff16905090565b600060603373ffffffffffffffffffffffffffffffffffffffff16600160040160009054906101000a900473ffffffffffffffffffffffffffffffffffffffff1673ffffffffffffffffffffffffffffffffffffffff16141515610e1c57600080fd5b600c60009054906101000a900460ff161515610e3757600080fd5b6001600201546001600001808054600181600116156101000203166002900480601f016020809104026020016040519081016040528092919081815260200182805460018160011615610100020316600290048015610ed75780601f10610eac57610100808354040283529160200191610ed7565b820191906000526020600020905b815481529060010190602001808311610eba57829003601f168201915b50505050509050915091509091565b60006001800160009054906101000a900473ffffffffffffffffffffffffffffffffffffffff16905090565b6000426001600501541015610f8a576000600160040160006101000a81548173ffffffffffffffffffffffffffffffffffffffff021916908373ffffffffffffffffffffffffffffffffffffffff16021790555060016000806101000a81548160ff02191690836003811115610f8457fe5b02179055505b600c60009054906101000a900460ff161515610fa557600080fd5b3373ffffffffffffffffffffffffffffffffffffffff16600160040160009054906101000a900473ffffffffffffffffffffffffffffffffffffffff1673ffffffffffffffffffffffffffffffffffffffff16148015611009575034600160020154145b801561103957506002600381111561101d57fe5b6000809054906101000a900460ff16600381111561103757fe5b145b151561104457600080fd5b33600c60016101000a81548173ffffffffffffffffffffffffffffffffffffffff021916908373ffffffffffffffffffffffffffffffffffffffff16021790555042600c60156101000a81548167ffffffffffffffff021916908367ffffffffffffffff16021790555090565b6000600c60009054906101000a900460ff1615156110ce57600080fd5b600c60019054906101000a900473ffffffffffffffffffffffffffffffffffffffff1673ffffffffffffffffffffffffffffffffffffffff163373ffffffffffffffffffffffffffffffffffffffff1614151561112a57600080fd5b6001600c601e6101000a81548160ff02191690831515021790555090565b600c60009054906101000a900460ff16151561116357600080fd5b600073ffffffffffffffffffffffffffffffffffffffff16600160040160009054906101000a900473ffffffffffffffffffffffffffffffffffffffff1673ffffffffffffffffffffffffffffffffffffffff161415156111c357600080fd5b426001600501541015611239576000600160040160006101000a81548173ffffffffffffffffffffffffffffffffffffffff021916908373ffffffffffffffffffffffffffffffffffffffff16021790555060016000806101000a81548160ff0219169083600381111561123357fe5b02179055505b67016345785d8a00003414151561124f57600080fd5b6064600160030154016001600201541015151561126b57600080fd5b33600160040160006101000a81548173ffffffffffffffffffffffffffffffffffffffff021916908373ffffffffffffffffffffffffffffffffffffffff16021790555060018060090160008282540192505081905550606460016002016000828254039250508190555060016008013390806001815401808255809150509060018203906000526020600020016000909192909190916101000a81548173ffffffffffffffffffffffffffffffffffffffff021916908373ffffffffffffffffffffffffffffffffffffffff160217905550506103e8600160070160003373ffffffffffffffffffffffffffffffffffffffff1673ffffffffffffffffffffffffffffffffffffffff16815260200190815260200160002060008282540192505081905550603c420160016005018190555060026000806101000a81548160ff021916908360038111156113bc57fe5b0217905550565b828054600181600116156101000203166002900490600052602060002090601f016020900481019282601f1061140457803560ff1916838001178555611432565b82800160010185558215611432579182015b82811115611431578235825591602001919060010190611416565b5b50905061143f9190611443565b5090565b61146591905b80821115611461576000816000905550600101611449565b5090565b905600a165627a7a723058204f7f630796823fea863cd077530c4e0b50fb0f9666c5c6975696cdd0b8aaddf80029a165627a7a72305820d2d3ee053bfbf2377f8b944d966b49067a3c635b9de0be278149308643fd26ee0029",
  "source": "pragma solidity ^0.4.4;\nimport \"./Product.sol\";\n\ncontract ProductRegistry {\n\n    event LogProductAdded(address indexed owner, address indexed product,string name,string imageHash,bool ontheBazzar);\n    event LogProductDeleted(address indexed owner, address indexed product, string  name);\n\n\n    mapping (address => address[]) public ownertoProducts;\n    mapping (address => uint) public productsIndex;\n    mapping (address => bool) public productsState; //product is publish or not\n    uint public productSize;\n\n    bool isActive;\n\n    constructor () public  {\n        isActive=true;\n    }\n\n    function addProduct(\n    string _name,\n    address _owner,\n    uint _minPrice,\n    uint _price,\n    bool onBazzar,\n    string _imageHash\n    ) public\n    returns(address){\n        Product _product=new Product();\n        _product.construct(_name,_owner,_minPrice,_price,onBazzar,_imageHash);\n        productsState[_product]= true;\n        ownertoProducts[_owner].push(_product);\n        productsIndex[address(_product)]=ownertoProducts[_owner].length-1;\n        productSize++;\n        emit LogProductAdded(_owner,_product,_name,_imageHash,onBazzar);\n        return address(_product);\n    }\n\n    function getSize() public view returns(uint){\n        return productSize;\n    }\n\n    function removeProduct(address _product)\n    external\n    {\n        require(Product(_product).getOwner()==msg.sender);\n\n        delete productsState[_product];\n        //delete ownertoProducts[msg.sender][];\n    }\n\n}\n",
  "sourcePath": "/Users/fatih/Desktop/Product-Bazaar/contracts/ProductRegistry.sol",
  "compiler": {
    "name": "solc",
    "version": "0.4.23+commit.124ca40d.Emscripten.clang"
  },
  "schemaVersion": "2.0.0",
  "updatedAt": "2018-05-18T15:20:05.953Z"
}