{
  "contractName": "ProductRegistry",
  "abi": [
    {
      "constant": true,
      "inputs": [],
      "name": "productSize",
      "outputs": [
        {
          "name": "",
          "type": "uint256"
        }
      ],
      "payable": false,
      "stateMutability": "view",
      "type": "function"
    },
    {
      "constant": true,
      "inputs": [
        {
          "name": "",
          "type": "address"
        },
        {
          "name": "",
          "type": "uint256"
        }
      ],
      "name": "OwnerToProducts",
      "outputs": [
        {
          "name": "",
          "type": "address"
        }
      ],
      "payable": false,
      "stateMutability": "view",
      "type": "function"
    },
    {
      "constant": false,
      "inputs": [
        {
          "name": "_product",
          "type": "address"
        }
      ],
      "name": "removeProduct",
      "outputs": [],
      "payable": false,
      "stateMutability": "nonpayable",
      "type": "function"
    },
    {
      "constant": false,
      "inputs": [
        {
          "name": "_name",
          "type": "string"
        },
        {
          "name": "_owner",
          "type": "address"
        },
        {
          "name": "_minPrice",
          "type": "uint256"
        },
        {
          "name": "_price",
          "type": "uint256"
        }
      ],
      "name": "addProduct",
      "outputs": [
        {
          "name": "",
          "type": "address"
        }
      ],
      "payable": false,
      "stateMutability": "nonpayable",
      "type": "function"
    },
    {
      "constant": true,
      "inputs": [
        {
          "name": "",
          "type": "address"
        }
      ],
      "name": "Products",
      "outputs": [
        {
          "name": "",
          "type": "bool"
        }
      ],
      "payable": false,
      "stateMutability": "view",
      "type": "function"
    },
    {
      "inputs": [],
      "payable": false,
      "stateMutability": "nonpayable",
      "type": "constructor"
    },
    {
      "anonymous": false,
      "inputs": [
        {
          "indexed": true,
          "name": "owner",
          "type": "address"
        },
        {
          "indexed": true,
          "name": "product",
          "type": "address"
        },
        {
          "indexed": false,
          "name": "name",
          "type": "string"
        }
      ],
      "name": "LogProductAdded",
      "type": "event"
    },
    {
      "anonymous": false,
      "inputs": [
        {
          "indexed": true,
          "name": "owner",
          "type": "address"
        },
        {
          "indexed": true,
          "name": "product",
          "type": "address"
        },
        {
          "indexed": false,
          "name": "name",
          "type": "string"
        }
      ],
      "name": "LogProductDeleted",
      "type": "event"
    }
  ],
  "bytecode": "0x6060604052341561000f57600080fd5b6115f28061001e6000396000f30060606040526004361061006d576000357c0100000000000000000000000000000000000000000000000000000000900463ffffffff1680631c0ba3f21461007257806322a6bdee1461009b578063787b67251461011d578063a4aba1cd14610156578063f5b4b68614610224575b600080fd5b341561007d57600080fd5b610085610275565b6040518082815260200191505060405180910390f35b34156100a657600080fd5b6100db600480803573ffffffffffffffffffffffffffffffffffffffff1690602001909190803590602001909190505061027b565b604051808273ffffffffffffffffffffffffffffffffffffffff1673ffffffffffffffffffffffffffffffffffffffff16815260200191505060405180910390f35b341561012857600080fd5b610154600480803573ffffffffffffffffffffffffffffffffffffffff169060200190919050506102c9565b005b341561016157600080fd5b6101e2600480803590602001908201803590602001908080601f0160208091040260200160405190810160405280939291908181526020018383808284378201915050505050509190803573ffffffffffffffffffffffffffffffffffffffff169060200190919080359060200190919080359060200190919050506103d7565b604051808273ffffffffffffffffffffffffffffffffffffffff1673ffffffffffffffffffffffffffffffffffffffff16815260200191505060405180910390f35b341561022f57600080fd5b61025b600480803573ffffffffffffffffffffffffffffffffffffffff16906020019091905050610703565b604051808215151515815260200191505060405180910390f35b60025481565b60006020528160005260406000208181548110151561029657fe5b90600052602060002090016000915091509054906101000a900473ffffffffffffffffffffffffffffffffffffffff1681565b600073ffffffffffffffffffffffffffffffffffffffff168173ffffffffffffffffffffffffffffffffffffffff1663893d20e86000604051602001526040518163ffffffff167c0100000000000000000000000000000000000000000000000000000000028152600401602060405180830381600087803b151561034d57600080fd5b6102c65a03f1151561035e57600080fd5b5050506040518051905073ffffffffffffffffffffffffffffffffffffffff1614156103d457600160008273ffffffffffffffffffffffffffffffffffffffff1673ffffffffffffffffffffffffffffffffffffffff16815260200190815260200160002060006101000a81549060ff02191690555b50565b6000806103e2610723565b604051809103906000f08015156103f857600080fd5b90508073ffffffffffffffffffffffffffffffffffffffff1663d7e96ff5878787876040518563ffffffff167c010000000000000000000000000000000000000000000000000000000002815260040180806020018573ffffffffffffffffffffffffffffffffffffffff1673ffffffffffffffffffffffffffffffffffffffff168152602001848152602001838152602001828103825286818151815260200191508051906020019080838360005b838110156104c35780820151818401526020810190506104a8565b50505050905090810190601f1680156104f05780820380516001836020036101000a031916815260200191505b5095505050505050600060405180830381600087803b151561051157600080fd5b6102c65a03f1151561052257600080fd5b50505060018060008373ffffffffffffffffffffffffffffffffffffffff1673ffffffffffffffffffffffffffffffffffffffff16815260200190815260200160002060006101000a81548160ff0219169083151502179055506000808673ffffffffffffffffffffffffffffffffffffffff1673ffffffffffffffffffffffffffffffffffffffff16815260200190815260200160002080548060010182816105cc9190610733565b9160005260206000209001600083909190916101000a81548173ffffffffffffffffffffffffffffffffffffffff021916908373ffffffffffffffffffffffffffffffffffffffff160217905550506002600081548092919060010191905055508073ffffffffffffffffffffffffffffffffffffffff168573ffffffffffffffffffffffffffffffffffffffff167fbc5acacbf5acb080c133b2f8b392825302b96cbbd06e5e29b35b445a15d92804886040518080602001828103825283818151815260200191508051906020019080838360005b838110156106bd5780820151818401526020810190506106a2565b50505050905090810190601f1680156106ea5780820380516001836020036101000a031916815260200191505b509250505060405180910390a380915050949350505050565b60016020528060005260406000206000915054906101000a900460ff1681565b604051610e428061078583390190565b81548183558181151161075a57818360005260206000209182019101610759919061075f565b5b505050565b61078191905b8082111561077d576000816000905550600101610765565b5090565b9056006060604052341561000f57600080fd5b610e248061001e6000396000f3006060604052600436106100a4576000357c0100000000000000000000000000000000000000000000000000000000900463ffffffff168063072162d7146100a957806312065fe0146100be57806312970578146100e75780631c6f0f851461011457806325a6c5451461014b5780634d97e5a01461022e5780638110233814610267578063893d20e814610320578063d7e96ff514610375578063fd52c53e146103d4575b600080fd5b34156100b457600080fd5b6100bc61042e565b005b34156100c957600080fd5b6100d1610522565b6040518082815260200191505060405180910390f35b34156100f257600080fd5b6100fa610541565b604051808215151515815260200191505060405180910390f35b341561011f57600080fd5b6101276105ae565b6040518082600381111561013757fe5b60ff16815260200191505060405180910390f35b341561015657600080fd5b61015e6105c0565b604051808573ffffffffffffffffffffffffffffffffffffffff1673ffffffffffffffffffffffffffffffffffffffff168152602001806020018481526020018367ffffffffffffffff1667ffffffffffffffff168152602001828103825285818151815260200191508051906020019080838360005b838110156101f05780820151818401526020810190506101d5565b50505050905090810190601f16801561021d5780820380516001836020036101000a031916815260200191505b509550505050505060405180910390f35b341561023957600080fd5b610265600480803573ffffffffffffffffffffffffffffffffffffffff169060200190919050506106c2565b005b341561027257600080fd5b61029e600480803573ffffffffffffffffffffffffffffffffffffffff169060200190919050506108cb565b6040518083815260200180602001828103825283818151815260200191508051906020019080838360005b838110156102e45780820151818401526020810190506102c9565b50505050905090810190601f1680156103115780820380516001836020036101000a031916815260200191505b50935050505060405180910390f35b341561032b57600080fd5b610333610a5c565b604051808273ffffffffffffffffffffffffffffffffffffffff1673ffffffffffffffffffffffffffffffffffffffff16815260200191505060405180910390f35b341561038057600080fd5b6103d26004808035906020019082018035906020019190919290803573ffffffffffffffffffffffffffffffffffffffff16906020019091908035906020019091908035906020019091905050610a89565b005b34156103df57600080fd5b610414600480803573ffffffffffffffffffffffffffffffffffffffff16906020019091908035906020019091905050610bc1565b604051808215151515815260200191505060405180910390f35b600b60009054906101000a900473ffffffffffffffffffffffffffffffffffffffff1673ffffffffffffffffffffffffffffffffffffffff163373ffffffffffffffffffffffffffffffffffffffff1614806104da5750600160000160009054906101000a900473ffffffffffffffffffffffffffffffffffffffff1673ffffffffffffffffffffffffffffffffffffffff163373ffffffffffffffffffffffffffffffffffffffff16145b1561051d57600160000160009054906101000a900473ffffffffffffffffffffffffffffffffffffffff1673ffffffffffffffffffffffffffffffffffffffff16ff5b600080fd5b60003073ffffffffffffffffffffffffffffffffffffffff1631905090565b60008073ffffffffffffffffffffffffffffffffffffffff16600160040160009054906101000a900473ffffffffffffffffffffffffffffffffffffffff1673ffffffffffffffffffffffffffffffffffffffff161415156105a657600090506105ab565b600190505b90565b6000809054906101000a900460ff1681565b60006105ca610d13565b600080600160000160009054906101000a900473ffffffffffffffffffffffffffffffffffffffff166001600201600160080154600160090160009054906101000a900467ffffffffffffffff16828054600181600116156101000203166002900480601f0160208091040260200160405190810160405280929190818152602001828054600181600116156101000203166002900480156106ad5780601f10610682576101008083540402835291602001916106ad565b820191906000526020600020905b81548152906001019060200180831161069057829003601f168201915b50505050509250935093509350935090919293565b42600160050154101515610739576000600160040160006101000a81548173ffffffffffffffffffffffffffffffffffffffff021916908373ffffffffffffffffffffffffffffffffffffffff16021790555060016000806101000a81548160ff0219169083600381111561073357fe5b02179055505b610741610541565b1561074b57600080fd5b610753610541565b151561075e57600080fd5b60016003015460018001541015151561077657600080fd5b80600160040160006101000a81548173ffffffffffffffffffffffffffffffffffffffff021916908373ffffffffffffffffffffffffffffffffffffffff1602179055506001806008016000828254019250508190555060018060010160008282540392505081905550600160070180548060010182816107f79190610d27565b9160005260206000209001600083909190916101000a81548173ffffffffffffffffffffffffffffffffffffffff021916908373ffffffffffffffffffffffffffffffffffffffff160217905550506103e8600160060160008373ffffffffffffffffffffffffffffffffffffffff1673ffffffffffffffffffffffffffffffffffffffff16815260200190815260200160002060008282540192505081905550603c420160016005018190555060026000806101000a81548160ff021916908360038111156108c357fe5b021790555050565b60006108d5610d13565b4260016005015410151561094c576000600160040160006101000a81548173ffffffffffffffffffffffffffffffffffffffff021916908373ffffffffffffffffffffffffffffffffffffffff16021790555060016000806101000a81548160ff0219169083600381111561094657fe5b02179055505b828073ffffffffffffffffffffffffffffffffffffffff16600160040160009054906101000a900473ffffffffffffffffffffffffffffffffffffffff1673ffffffffffffffffffffffffffffffffffffffff161415156109ac57600080fd5b60018001546001600201808054600181600116156101000203166002900480601f016020809104026020016040519081016040528092919081815260200182805460018160011615610100020316600290048015610a4b5780601f10610a2057610100808354040283529160200191610a4b565b820191906000526020600020905b815481529060010190602001808311610a2e57829003601f168201915b505050505090509250925050915091565b6000600160000160009054906101000a900473ffffffffffffffffffffffffffffffffffffffff16905090565b6000600160090160009054906101000a900467ffffffffffffffff1667ffffffffffffffff16141515610abb57600080fd5b848460016002019190610acf929190610d53565b5033600160000160006101000a81548173ffffffffffffffffffffffffffffffffffffffff021916908373ffffffffffffffffffffffffffffffffffffffff16021790555082600160000160006101000a81548173ffffffffffffffffffffffffffffffffffffffff021916908373ffffffffffffffffffffffffffffffffffffffff1602179055508160016003018190555042600160090160006101000a81548167ffffffffffffffff021916908367ffffffffffffffff16021790555080600180018190555060016000806101000a81548160ff02191690836003811115610bb557fe5b02179055505050505050565b600042600160050154101515610c3a576000600160040160006101000a81548173ffffffffffffffffffffffffffffffffffffffff021916908373ffffffffffffffffffffffffffffffffffffffff16021790555060016000806101000a81548160ff02191690836003811115610c3457fe5b02179055505b8273ffffffffffffffffffffffffffffffffffffffff16600160040160009054906101000a900473ffffffffffffffffffffffffffffffffffffffff1673ffffffffffffffffffffffffffffffffffffffff16141580610ceb5750600073ffffffffffffffffffffffffffffffffffffffff16600160040160009054906101000a900473ffffffffffffffffffffffffffffffffffffffff1673ffffffffffffffffffffffffffffffffffffffff16145b80610cfa575081600180015414155b15610d085760009050610d0d565b600190505b92915050565b602060405190810160405280600081525090565b815481835581811511610d4e57818360005260206000209182019101610d4d9190610dd3565b5b505050565b828054600181600116156101000203166002900490600052602060002090601f016020900481019282601f10610d9457803560ff1916838001178555610dc2565b82800160010185558215610dc2579182015b82811115610dc1578235825591602001919060010190610da6565b5b509050610dcf9190610dd3565b5090565b610df591905b80821115610df1576000816000905550600101610dd9565b5090565b905600a165627a7a723058206fd848784a7f31a8f02bafcd3d28055105b176053ceaa42beec70d887d029b2d0029a165627a7a72305820ad22d88754a30129adae8ec81a7764fbd12a98507b61b5c81e04a8e039c330f40029",
  "source": "pragma solidity ^0.4.4;\nimport \"./Product.sol\";\ncontract ProductRegistry {\n\n\n\n  event LogProductAdded(address indexed owner, address indexed product, string  name);\n  event LogProductDeleted(address indexed owner, address indexed product, string  name);\n\n\n  mapping (address => address[]) public OwnerToProducts;\n  mapping (address => bool) public Products; //product is publish or not\n  uint public productSize;\n\n\n\n  function ProductRegistry() {\n    // constructor\n  }\n\n  function addProduct(\n    string _name,\n    address _owner,\n    uint _minPrice,\n    uint _price\n    ) public\n    returns(address){\n\n      Product _product=new Product();\n      _product.construct(_name,_owner,_minPrice,_price);\n      Products[_product]= true;\n      OwnerToProducts[_owner].push(_product);\n      productSize++;\n      LogProductAdded(_owner,_product,_name);\n\n      return address(_product);\n\n  }\n\n\n  function removeProduct(address _product)\n  external\n  {\n     if(Product(_product).getOwner()==address(0))\n     {\n       delete Products[_product];\n     }\n  }\n\n}\n",
  "sourcePath": "/Users/fatih/Desktop/ethExchange/contracts/ProductRegistry.sol",
  "compiler": {
    "name": "solc",
    "version": "0.4.18+commit.9cf6e910.Emscripten.clang"
  },
  "schemaVersion": "1.0.1",
  "updatedAt": "2018-03-10T15:57:07.062Z"
}