{
  "contractName": "ProductRegistry",
  "abi": [
    {
      "constant": true,
      "inputs": [],
      "name": "productSize",
      "outputs": [
        {
          "name": "",
          "type": "uint256"
        }
      ],
      "payable": false,
      "stateMutability": "view",
      "type": "function"
    },
    {
      "constant": true,
      "inputs": [
        {
          "name": "",
          "type": "address"
        }
      ],
      "name": "productsIndex",
      "outputs": [
        {
          "name": "",
          "type": "uint256"
        }
      ],
      "payable": false,
      "stateMutability": "view",
      "type": "function"
    },
    {
      "constant": true,
      "inputs": [
        {
          "name": "",
          "type": "address"
        }
      ],
      "name": "productsState",
      "outputs": [
        {
          "name": "",
          "type": "bool"
        }
      ],
      "payable": false,
      "stateMutability": "view",
      "type": "function"
    },
    {
      "constant": true,
      "inputs": [
        {
          "name": "",
          "type": "address"
        },
        {
          "name": "",
          "type": "uint256"
        }
      ],
      "name": "ownertoProducts",
      "outputs": [
        {
          "name": "",
          "type": "address"
        }
      ],
      "payable": false,
      "stateMutability": "view",
      "type": "function"
    },
    {
      "inputs": [],
      "payable": false,
      "stateMutability": "nonpayable",
      "type": "constructor"
    },
    {
      "anonymous": false,
      "inputs": [
        {
          "indexed": true,
          "name": "owner",
          "type": "address"
        },
        {
          "indexed": true,
          "name": "product",
          "type": "address"
        },
        {
          "indexed": false,
          "name": "name",
          "type": "string"
        }
      ],
      "name": "LogProductAdded",
      "type": "event"
    },
    {
      "anonymous": false,
      "inputs": [
        {
          "indexed": true,
          "name": "owner",
          "type": "address"
        },
        {
          "indexed": true,
          "name": "product",
          "type": "address"
        },
        {
          "indexed": false,
          "name": "name",
          "type": "string"
        }
      ],
      "name": "LogProductDeleted",
      "type": "event"
    },
    {
      "constant": false,
      "inputs": [
        {
          "name": "_name",
          "type": "string"
        },
        {
          "name": "_owner",
          "type": "address"
        },
        {
          "name": "_minPrice",
          "type": "uint256"
        },
        {
          "name": "_price",
          "type": "uint256"
        }
      ],
      "name": "addProduct",
      "outputs": [
        {
          "name": "",
          "type": "address"
        }
      ],
      "payable": false,
      "stateMutability": "nonpayable",
      "type": "function"
    },
    {
      "constant": true,
      "inputs": [],
      "name": "getSize",
      "outputs": [
        {
          "name": "",
          "type": "uint256"
        }
      ],
      "payable": false,
      "stateMutability": "view",
      "type": "function"
    },
    {
      "constant": false,
      "inputs": [
        {
          "name": "_product",
          "type": "address"
        }
      ],
      "name": "removeProduct",
      "outputs": [],
      "payable": false,
      "stateMutability": "nonpayable",
      "type": "function"
    }
  ],
  "bytecode": "0x6060604052341561000f57600080fd5b6001600460006101000a81548160ff0219169083151502179055506117f5806100396000396000f300606060405260043610610083576000357c0100000000000000000000000000000000000000000000000000000000900463ffffffff1680631c0ba3f2146100885780634ba88d6e146100b1578063513388bc146100fe5780636c79fb1a1461014f578063787b6725146101d1578063a4aba1cd1461020a578063de8fa431146102d8575b600080fd5b341561009357600080fd5b61009b610301565b6040518082815260200191505060405180910390f35b34156100bc57600080fd5b6100e8600480803573ffffffffffffffffffffffffffffffffffffffff16906020019091905050610307565b6040518082815260200191505060405180910390f35b341561010957600080fd5b610135600480803573ffffffffffffffffffffffffffffffffffffffff1690602001909190505061031f565b604051808215151515815260200191505060405180910390f35b341561015a57600080fd5b61018f600480803573ffffffffffffffffffffffffffffffffffffffff1690602001909190803590602001909190505061033f565b604051808273ffffffffffffffffffffffffffffffffffffffff1673ffffffffffffffffffffffffffffffffffffffff16815260200191505060405180910390f35b34156101dc57600080fd5b610208600480803573ffffffffffffffffffffffffffffffffffffffff1690602001909190505061038d565b005b341561021557600080fd5b610296600480803590602001908201803590602001908080601f0160208091040260200160405190810160405280939291908181526020018383808284378201915050505050509190803573ffffffffffffffffffffffffffffffffffffffff1690602001909190803590602001909190803590602001909190505061049f565b604051808273ffffffffffffffffffffffffffffffffffffffff1673ffffffffffffffffffffffffffffffffffffffff16815260200191505060405180910390f35b34156102e357600080fd5b6102eb610854565b6040518082815260200191505060405180910390f35b60035481565b60016020528060005260406000206000915090505481565b60026020528060005260406000206000915054906101000a900460ff1681565b60006020528160005260406000208181548110151561035a57fe5b90600052602060002090016000915091509054906101000a900473ffffffffffffffffffffffffffffffffffffffff1681565b3373ffffffffffffffffffffffffffffffffffffffff168173ffffffffffffffffffffffffffffffffffffffff1663893d20e86000604051602001526040518163ffffffff167c0100000000000000000000000000000000000000000000000000000000028152600401602060405180830381600087803b151561041057600080fd5b6102c65a03f1151561042157600080fd5b5050506040518051905073ffffffffffffffffffffffffffffffffffffffff1614151561044d57600080fd5b600260008273ffffffffffffffffffffffffffffffffffffffff1673ffffffffffffffffffffffffffffffffffffffff16815260200190815260200160002060006101000a81549060ff021916905550565b6000806104aa61085e565b604051809103906000f08015156104c057600080fd5b90508073ffffffffffffffffffffffffffffffffffffffff1663d7e96ff5878787876040518563ffffffff167c010000000000000000000000000000000000000000000000000000000002815260040180806020018573ffffffffffffffffffffffffffffffffffffffff1673ffffffffffffffffffffffffffffffffffffffff168152602001848152602001838152602001828103825286818151815260200191508051906020019080838360005b8381101561058b578082015181840152602081019050610570565b50505050905090810190601f1680156105b85780820380516001836020036101000a031916815260200191505b5095505050505050600060405180830381600087803b15156105d957600080fd5b6102c65a03f115156105ea57600080fd5b5050506001600260008373ffffffffffffffffffffffffffffffffffffffff1673ffffffffffffffffffffffffffffffffffffffff16815260200190815260200160002060006101000a81548160ff0219169083151502179055506000808673ffffffffffffffffffffffffffffffffffffffff1673ffffffffffffffffffffffffffffffffffffffff1681526020019081526020016000208054806001018281610695919061086e565b9160005260206000209001600083909190916101000a81548173ffffffffffffffffffffffffffffffffffffffff021916908373ffffffffffffffffffffffffffffffffffffffff1602179055505060016000808773ffffffffffffffffffffffffffffffffffffffff1673ffffffffffffffffffffffffffffffffffffffff1681526020019081526020016000208054905003600160008373ffffffffffffffffffffffffffffffffffffffff1673ffffffffffffffffffffffffffffffffffffffff168152602001908152602001600020819055506003600081548092919060010191905055508073ffffffffffffffffffffffffffffffffffffffff168573ffffffffffffffffffffffffffffffffffffffff167fbc5acacbf5acb080c133b2f8b392825302b96cbbd06e5e29b35b445a15d92804886040518080602001828103825283818151815260200191508051906020019080838360005b8381101561080e5780820151818401526020810190506107f3565b50505050905090810190601f16801561083b5780820380516001836020036101000a031916815260200191505b509250505060405180910390a380915050949350505050565b6000600354905090565b604051610f0a806108c083390190565b81548183558181151161089557818360005260206000209182019101610894919061089a565b5b505050565b6108bc91905b808211156108b85760008160009055506001016108a0565b5090565b9056006060604052341561000f57600080fd5b610eec8061001e6000396000f3006060604052600436106100c5576000357c0100000000000000000000000000000000000000000000000000000000900463ffffffff168063072162d7146100ca57806307fd3687146100df57806312065fe014610134578063129705781461015d5780631c6f0f851461018a57806325a6c545146101c15780637e5852d9146102b9578063811023381461030e578063893d20e8146103c7578063a1c12e6b1461041c578063d7e96ff514610471578063e96d981c146104d0578063fd52c53e146104da575b600080fd5b34156100d557600080fd5b6100dd610534565b005b34156100ea57600080fd5b6100f26105d1565b604051808273ffffffffffffffffffffffffffffffffffffffff1673ffffffffffffffffffffffffffffffffffffffff16815260200191505060405180910390f35b341561013f57600080fd5b6101476105f7565b6040518082815260200191505060405180910390f35b341561016857600080fd5b610170610616565b604051808215151515815260200191505060405180910390f35b341561019557600080fd5b61019d610682565b604051808260038111156101ad57fe5b60ff16815260200191505060405180910390f35b34156101cc57600080fd5b6101d4610694565b604051808673ffffffffffffffffffffffffffffffffffffffff1673ffffffffffffffffffffffffffffffffffffffff168152602001806020018581526020018467ffffffffffffffff1667ffffffffffffffff16815260200183600381111561023a57fe5b60ff168152602001828103825286818151815260200191508051906020019080838360005b8381101561027a57808201518184015260208101905061025f565b50505050905090810190601f1680156102a75780820380516001836020036101000a031916815260200191505b50965050505050505060405180910390f35b34156102c457600080fd5b6102cc6107aa565b604051808273ffffffffffffffffffffffffffffffffffffffff1673ffffffffffffffffffffffffffffffffffffffff16815260200191505060405180910390f35b341561031957600080fd5b610345600480803573ffffffffffffffffffffffffffffffffffffffff169060200190919050506107d7565b6040518083815260200180602001828103825283818151815260200191508051906020019080838360005b8381101561038b578082015181840152602081019050610370565b50505050905090810190601f1680156103b85780820380516001836020036101000a031916815260200191505b50935050505060405180910390f35b34156103d257600080fd5b6103da610968565b604051808273ffffffffffffffffffffffffffffffffffffffff1673ffffffffffffffffffffffffffffffffffffffff16815260200191505060405180910390f35b341561042757600080fd5b61042f610995565b604051808273ffffffffffffffffffffffffffffffffffffffff1673ffffffffffffffffffffffffffffffffffffffff16815260200191505060405180910390f35b341561047c57600080fd5b6104ce6004808035906020019082018035906020019190919290803573ffffffffffffffffffffffffffffffffffffffff169060200190919080359060200190919080359060200190919050506109bb565b005b6104d8610af3565b005b34156104e557600080fd5b61051a600480803573ffffffffffffffffffffffffffffffffffffffff16906020019091908035906020019091905050610c59565b604051808215151515815260200191505060405180910390f35b600160000160009054906101000a900473ffffffffffffffffffffffffffffffffffffffff1673ffffffffffffffffffffffffffffffffffffffff163373ffffffffffffffffffffffffffffffffffffffff1614151561059357600080fd5b600160000160009054906101000a900473ffffffffffffffffffffffffffffffffffffffff1673ffffffffffffffffffffffffffffffffffffffff16ff5b600c60009054906101000a900473ffffffffffffffffffffffffffffffffffffffff1681565b60003073ffffffffffffffffffffffffffffffffffffffff1631905090565b60008073ffffffffffffffffffffffffffffffffffffffff16600160040160009054906101000a900473ffffffffffffffffffffffffffffffffffffffff1673ffffffffffffffffffffffffffffffffffffffff16141561067a576001905061067f565b600090505b90565b6000809054906101000a900460ff1681565b600061069e610ddb565b6000806000600160000160009054906101000a900473ffffffffffffffffffffffffffffffffffffffff166001600201600160080154600160090160009054906101000a900467ffffffffffffffff166000809054906101000a900460ff16838054600181600116156101000203166002900480601f0160208091040260200160405190810160405280929190818152602001828054600181600116156101000203166002900480156107925780601f1061076757610100808354040283529160200191610792565b820191906000526020600020905b81548152906001019060200180831161077557829003601f168201915b50505050509350945094509450945094509091929394565b6000600160040160009054906101000a900473ffffffffffffffffffffffffffffffffffffffff16905090565b60006107e1610ddb565b42600160050154101515610858576000600160040160006101000a81548173ffffffffffffffffffffffffffffffffffffffff021916908373ffffffffffffffffffffffffffffffffffffffff16021790555060016000806101000a81548160ff0219169083600381111561085257fe5b02179055505b828073ffffffffffffffffffffffffffffffffffffffff16600160040160009054906101000a900473ffffffffffffffffffffffffffffffffffffffff1673ffffffffffffffffffffffffffffffffffffffff161415156108b857600080fd5b60018001546001600201808054600181600116156101000203166002900480601f0160208091040260200160405190810160405280929190818152602001828054600181600116156101000203166002900480156109575780601f1061092c57610100808354040283529160200191610957565b820191906000526020600020905b81548152906001019060200180831161093a57829003601f168201915b505050505090509250925050915091565b6000600160000160009054906101000a900473ffffffffffffffffffffffffffffffffffffffff16905090565b600b60009054906101000a900473ffffffffffffffffffffffffffffffffffffffff1681565b6000600160090160009054906101000a900467ffffffffffffffff1667ffffffffffffffff161415156109ed57600080fd5b848460016002019190610a01929190610def565b5033600160000160006101000a81548173ffffffffffffffffffffffffffffffffffffffff021916908373ffffffffffffffffffffffffffffffffffffffff16021790555082600160000160006101000a81548173ffffffffffffffffffffffffffffffffffffffff021916908373ffffffffffffffffffffffffffffffffffffffff1602179055508160016003018190555042600160090160006101000a81548167ffffffffffffffff021916908367ffffffffffffffff16021790555080600180018190555060016000806101000a81548160ff02191690836003811115610ae757fe5b02179055505050505050565b610afb610616565b15610b0557600080fd5b33600160040160006101000a81548173ffffffffffffffffffffffffffffffffffffffff021916908373ffffffffffffffffffffffffffffffffffffffff160217905550600180600801600082825401925050819055506001806001016000828254039250508190555060016007018054806001018281610b869190610e6f565b9160005260206000209001600033909190916101000a81548173ffffffffffffffffffffffffffffffffffffffff021916908373ffffffffffffffffffffffffffffffffffffffff160217905550506103e8600160060160003373ffffffffffffffffffffffffffffffffffffffff1673ffffffffffffffffffffffffffffffffffffffff16815260200190815260200160002060008282540192505081905550603c420160016005018190555060026000806101000a81548160ff02191690836003811115610c5257fe5b0217905550565b600042600160050154101515610cd2576000600160040160006101000a81548173ffffffffffffffffffffffffffffffffffffffff021916908373ffffffffffffffffffffffffffffffffffffffff16021790555060016000806101000a81548160ff02191690836003811115610ccc57fe5b02179055505b8273ffffffffffffffffffffffffffffffffffffffff16600160040160009054906101000a900473ffffffffffffffffffffffffffffffffffffffff1673ffffffffffffffffffffffffffffffffffffffff16141580610d835750600073ffffffffffffffffffffffffffffffffffffffff16600160040160009054906101000a900473ffffffffffffffffffffffffffffffffffffffff1673ffffffffffffffffffffffffffffffffffffffff16145b80610d92575081600180015414155b80610dc2575060026003811115610da557fe5b6000809054906101000a900460ff166003811115610dbf57fe5b14155b15610dd05760009050610dd5565b600190505b92915050565b602060405190810160405280600081525090565b828054600181600116156101000203166002900490600052602060002090601f016020900481019282601f10610e3057803560ff1916838001178555610e5e565b82800160010185558215610e5e579182015b82811115610e5d578235825591602001919060010190610e42565b5b509050610e6b9190610e9b565b5090565b815481835581811511610e9657818360005260206000209182019101610e959190610e9b565b5b505050565b610ebd91905b80821115610eb9576000816000905550600101610ea1565b5090565b905600a165627a7a72305820be924797e3d0f61ca292ca18330ec40301621fd638d6e2963c3bc7a210f80e4c0029a165627a7a7230582000d4d5108a3d7d0149d2eda8db20a257be7ccdfa529ad2ae92269c9674d2c55f0029",
  "source": "pragma solidity ^0.4.4;\nimport \"./Product.sol\";\n\ncontract ProductRegistry {\n\n    event LogProductAdded(address indexed owner, address indexed product, string  name);\n    event LogProductDeleted(address indexed owner, address indexed product, string  name);\n\n\n    mapping (address => address[]) public ownertoProducts;\n    mapping (address => uint) public productsIndex;\n    mapping (address => bool) public productsState; //product is publish or not\n    uint public productSize;\n\n    bool isActive;\n\n    function  ProductRegistry()  public {\n        isActive=true;\n    }\n\n\n    function addProduct(\n    string _name,\n    address _owner,\n    uint _minPrice,\n    uint _price\n    ) public\n\n    returns(address){\n\n        Product _product=new Product();\n        _product.construct(_name,_owner,_minPrice,_price);\n        productsState[_product]= true;\n        ownertoProducts[_owner].push(_product);\n        productsIndex[address(_product)]=ownertoProducts[_owner].length-1;\n        productSize++;\n        LogProductAdded(_owner,_product,_name);\n        return address(_product);\n\n    }\n\n    function getSize() public view returns(uint){\n        return productSize;\n    }\n\n    function removeProduct(address _product)\n    external\n    {\n        require(Product(_product).getOwner()==msg.sender);\n\n        delete productsState[_product];\n        //delete ownertoProducts[msg.sender][];\n    }\n\n}\n",
  "sourcePath": "/Users/fatih/Desktop/Product-Bazaar/contracts/ProductRegistry.sol",
  "compiler": {
    "name": "solc",
    "version": "0.4.19+commit.c4cbbb05.Emscripten.clang"
  },
  "schemaVersion": "2.0.0",
  "updatedAt": "2018-05-01T20:39:26.349Z"
}