{
  "contractName": "ProductRegistry",
  "abi": [
    {
      "constant": false,
      "inputs": [],
      "name": "removeProduct",
      "outputs": [],
      "payable": false,
      "stateMutability": "nonpayable",
      "type": "function"
    },
    {
      "constant": true,
      "inputs": [],
      "name": "productSize",
      "outputs": [
        {
          "name": "",
          "type": "uint256"
        }
      ],
      "payable": false,
      "stateMutability": "view",
      "type": "function"
    },
    {
      "constant": true,
      "inputs": [
        {
          "name": "",
          "type": "address"
        },
        {
          "name": "",
          "type": "uint256"
        }
      ],
      "name": "OwnerToProducts",
      "outputs": [
        {
          "name": "",
          "type": "address"
        }
      ],
      "payable": false,
      "stateMutability": "view",
      "type": "function"
    },
    {
      "constant": false,
      "inputs": [
        {
          "name": "_name",
          "type": "string"
        },
        {
          "name": "_owner",
          "type": "address"
        },
        {
          "name": "_minPrice",
          "type": "uint256"
        },
        {
          "name": "_price",
          "type": "uint256"
        }
      ],
      "name": "addProduct",
      "outputs": [
        {
          "name": "",
          "type": "address"
        }
      ],
      "payable": false,
      "stateMutability": "nonpayable",
      "type": "function"
    },
    {
      "constant": true,
      "inputs": [
        {
          "name": "",
          "type": "address"
        }
      ],
      "name": "Products",
      "outputs": [
        {
          "name": "",
          "type": "bool"
        }
      ],
      "payable": false,
      "stateMutability": "view",
      "type": "function"
    },
    {
      "inputs": [],
      "payable": false,
      "stateMutability": "nonpayable",
      "type": "constructor"
    },
    {
      "anonymous": false,
      "inputs": [
        {
          "indexed": true,
          "name": "owner",
          "type": "address"
        },
        {
          "indexed": true,
          "name": "product",
          "type": "address"
        },
        {
          "indexed": true,
          "name": "name",
          "type": "string"
        }
      ],
      "name": "anProductAdded",
      "type": "event"
    }
  ],
  "bytecode": "0x6060604052341561000f57600080fd5b610f168061001e6000396000f30060606040526004361061006d576000357c0100000000000000000000000000000000000000000000000000000000900463ffffffff1680630177b556146100725780631c0ba3f21461008757806322a6bdee146100b0578063a4aba1cd14610132578063f5b4b68614610200575b600080fd5b341561007d57600080fd5b610085610251565b005b341561009257600080fd5b61009a610253565b6040518082815260200191505060405180910390f35b34156100bb57600080fd5b6100f0600480803573ffffffffffffffffffffffffffffffffffffffff16906020019091908035906020019091905050610259565b604051808273ffffffffffffffffffffffffffffffffffffffff1673ffffffffffffffffffffffffffffffffffffffff16815260200191505060405180910390f35b341561013d57600080fd5b6101be600480803590602001908201803590602001908080601f0160208091040260200160405190810160405280939291908181526020018383808284378201915050505050509190803573ffffffffffffffffffffffffffffffffffffffff169060200190919080359060200190919080359060200190919050506102a7565b604051808273ffffffffffffffffffffffffffffffffffffffff1673ffffffffffffffffffffffffffffffffffffffff16815260200191505060405180910390f35b341561020b57600080fd5b610237600480803573ffffffffffffffffffffffffffffffffffffffff169060200190919050506105c6565b604051808215151515815260200191505060405180910390f35b565b60025481565b60006020528160005260406000208181548110151561027457fe5b90600052602060002090016000915091509054906101000a900473ffffffffffffffffffffffffffffffffffffffff1681565b6000806102b26105e6565b604051809103906000f08015156102c857600080fd5b90508073ffffffffffffffffffffffffffffffffffffffff1663d7e96ff5878787876040518563ffffffff167c010000000000000000000000000000000000000000000000000000000002815260040180806020018573ffffffffffffffffffffffffffffffffffffffff1673ffffffffffffffffffffffffffffffffffffffff168152602001848152602001838152602001828103825286818151815260200191508051906020019080838360005b83811015610393578082015181840152602081019050610378565b50505050905090810190601f1680156103c05780820380516001836020036101000a031916815260200191505b5095505050505050600060405180830381600087803b15156103e157600080fd5b6102c65a03f115156103f257600080fd5b50505060018060008373ffffffffffffffffffffffffffffffffffffffff1673ffffffffffffffffffffffffffffffffffffffff16815260200190815260200160002060006101000a81548160ff0219169083151502179055506000808673ffffffffffffffffffffffffffffffffffffffff1673ffffffffffffffffffffffffffffffffffffffff168152602001908152602001600020805480600101828161049c91906105f6565b9160005260206000209001600083909190916101000a81548173ffffffffffffffffffffffffffffffffffffffff021916908373ffffffffffffffffffffffffffffffffffffffff16021790555050856040518082805190602001908083835b60208310151561052157805182526020820191506020810190506020830392506104fc565b6001836020036101000a03801982511681845116808217855250505050505090500191505060405180910390208173ffffffffffffffffffffffffffffffffffffffff168673ffffffffffffffffffffffffffffffffffffffff167f09286d84645411cd476cf2e2fa711570490503c75abb093c32f822db9d4f1f5460405160405180910390a460026000815480929190600101919050555080915050949350505050565b60016020528060005260406000206000915054906101000a900460ff1681565b6040516108a38061064883390190565b81548183558181151161061d5781836000526020600020918201910161061c9190610622565b5b505050565b61064491905b80821115610640576000816000905550600101610628565b5090565b9056006060604052341561000f57600080fd5b6108858061001e6000396000f300606060405260043610610078576000357c0100000000000000000000000000000000000000000000000000000000900463ffffffff16806312065fe01461007d57806312970578146100a65780634d97e5a0146100d3578063bf9ce9521461010c578063d7e96ff514610254578063dbf46362146102e2575b600080fd5b341561008857600080fd5b610090610333565b6040518082815260200191505060405180910390f35b34156100b157600080fd5b6100b9610352565b604051808215151515815260200191505060405180910390f35b34156100de57600080fd5b61010a600480803573ffffffffffffffffffffffffffffffffffffffff169060200190919050506103bf565b005b341561011757600080fd5b61011f6104c6565b604051808973ffffffffffffffffffffffffffffffffffffffff1673ffffffffffffffffffffffffffffffffffffffff168152602001888152602001806020018781526020018673ffffffffffffffffffffffffffffffffffffffff1673ffffffffffffffffffffffffffffffffffffffff1681526020018581526020018481526020018367ffffffffffffffff1667ffffffffffffffff16815260200182810382528881815460018160011615610100020316600290048152602001915080546001816001161561010002031660029004801561023e5780601f106102135761010080835404028352916020019161023e565b820191906000526020600020905b81548152906001019060200180831161022157829003601f168201915b5050995050505050505050505060405180910390f35b341561025f57600080fd5b6102e0600480803590602001908201803590602001908080601f0160208091040260200160405190810160405280939291908181526020018383808284378201915050505050509190803573ffffffffffffffffffffffffffffffffffffffff1690602001909190803590602001909190803590602001909190505061054f565b005b34156102ed57600080fd5b610319600480803573ffffffffffffffffffffffffffffffffffffffff16906020019091905050610666565b604051808215151515815260200191505060405180910390f35b60003073ffffffffffffffffffffffffffffffffffffffff1631905090565b60008073ffffffffffffffffffffffffffffffffffffffff16600060040160009054906101000a900473ffffffffffffffffffffffffffffffffffffffff1673ffffffffffffffffffffffffffffffffffffffff161415156103b757600090506103bc565b600190505b90565b6103c7610352565b156103d157600080fd5b6103d9610352565b15156103e457600080fd5b80600060040160006101000a81548173ffffffffffffffffffffffffffffffffffffffff021916908373ffffffffffffffffffffffffffffffffffffffff16021790555060016000600701600082825401925050819055506001600060010160008282540392505081905550600060060180548060010182816104679190610788565b9160005260206000209001600083909190916101000a81548173ffffffffffffffffffffffffffffffffffffffff021916908373ffffffffffffffffffffffffffffffffffffffff16021790555050603c420160006005018190555050565b60008060000160009054906101000a900473ffffffffffffffffffffffffffffffffffffffff169080600101549080600201908060030154908060040160009054906101000a900473ffffffffffffffffffffffffffffffffffffffff16908060050154908060070154908060080160009054906101000a900467ffffffffffffffff16905088565b60008060080160009054906101000a900467ffffffffffffffff1667ffffffffffffffff1614151561058057600080fd5b83600060020190805190602001906105999291906107b4565b50336000800160006101000a81548173ffffffffffffffffffffffffffffffffffffffff021916908373ffffffffffffffffffffffffffffffffffffffff160217905550826000800160006101000a81548173ffffffffffffffffffffffffffffffffffffffff021916908373ffffffffffffffffffffffffffffffffffffffff1602179055508160006003018190555042600060080160006101000a81548167ffffffffffffffff021916908367ffffffffffffffff1602179055508060006001018190555050505050565b6000426000600501541015156106bb5760008060040160006101000a81548173ffffffffffffffffffffffffffffffffffffffff021916908373ffffffffffffffffffffffffffffffffffffffff1602179055505b8173ffffffffffffffffffffffffffffffffffffffff16600060040160009054906101000a900473ffffffffffffffffffffffffffffffffffffffff1673ffffffffffffffffffffffffffffffffffffffff1614151561071a57600080fd5b600073ffffffffffffffffffffffffffffffffffffffff16600060040160009054906101000a900473ffffffffffffffffffffffffffffffffffffffff1673ffffffffffffffffffffffffffffffffffffffff1614151561077e5760009050610783565b600190505b919050565b8154818355818115116107af578183600052602060002091820191016107ae9190610834565b5b505050565b828054600181600116156101000203166002900490600052602060002090601f016020900481019282601f106107f557805160ff1916838001178555610823565b82800160010185558215610823579182015b82811115610822578251825591602001919060010190610807565b5b5090506108309190610834565b5090565b61085691905b8082111561085257600081600090555060010161083a565b5090565b905600a165627a7a7230582033b5828722604d59ebfe892f0691494c238d221e53c56d7e80a735355a8a00920029a165627a7a72305820f76dba2ae996f6e826e869cbdb050d2b449eeeadbdd1177cfe7c4d640e7c73c00029",
  "source": "pragma solidity ^0.4.4;\nimport \"./Product.sol\";\ncontract ProductRegistry {\n\n\n\n  event anProductAdded(address indexed owner, address indexed product, string indexed name);\n\n\n  mapping (address => address[]) public OwnerToProducts;\n  mapping (address => bool) public Products; //product is publish or not\n  uint public productSize;\n\n\n\n  function ProductRegistry() {\n    // constructor\n  }\n\n  function addProduct(\n    string _name,\n    address _owner,\n    uint _minPrice,\n    uint _price\n    ) public\n    returns(address){\n\n      Product _product=new Product();\n      _product.construct(_name,_owner,_minPrice,_price);\n      Products[_product]= true;\n      OwnerToProducts[_owner].push(_product);\n\n      anProductAdded(_owner,_product,_name);\n      productSize++;\n      return address(_product);\n\n  }\n\n\n  function removeProduct(){\n\n  }\n\n}\n",
  "sourcePath": "/Users/fatih/Desktop/ethExchange/contracts/ProductRegistry.sol",
  "compiler": {
    "name": "solc",
    "version": "0.4.18+commit.9cf6e910.Emscripten.clang"
  },
  "schemaVersion": "1.0.1",
  "updatedAt": "2018-03-06T16:51:13.785Z"
}