{
  "contractName": "Product",
  "abi": [
    {
      "constant": true,
      "inputs": [],
      "name": "cState",
      "outputs": [
        {
          "name": "",
          "type": "uint8"
        }
      ],
      "payable": false,
      "stateMutability": "view",
      "type": "function"
    },
    {
      "constant": false,
      "inputs": [
        {
          "name": "_name",
          "type": "string"
        },
        {
          "name": "_owner",
          "type": "address"
        },
        {
          "name": "_minPrice",
          "type": "uint256"
        },
        {
          "name": "_price",
          "type": "uint256"
        },
        {
          "name": "_ontheBazzar",
          "type": "bool"
        }
      ],
      "name": "construct",
      "outputs": [],
      "payable": false,
      "stateMutability": "nonpayable",
      "type": "function"
    },
    {
      "constant": false,
      "inputs": [],
      "name": "lockProduct",
      "outputs": [],
      "payable": true,
      "stateMutability": "payable",
      "type": "function"
    },
    {
      "constant": false,
      "inputs": [],
      "name": "buyProduct",
      "outputs": [
        {
          "name": "",
          "type": "bool"
        }
      ],
      "payable": true,
      "stateMutability": "payable",
      "type": "function"
    },
    {
      "constant": false,
      "inputs": [],
      "name": "validateProduct",
      "outputs": [
        {
          "name": "",
          "type": "bool"
        }
      ],
      "payable": false,
      "stateMutability": "nonpayable",
      "type": "function"
    },
    {
      "constant": false,
      "inputs": [],
      "name": "withDraw",
      "outputs": [
        {
          "name": "",
          "type": "bool"
        }
      ],
      "payable": false,
      "stateMutability": "nonpayable",
      "type": "function"
    },
    {
      "constant": false,
      "inputs": [],
      "name": "openDispute",
      "outputs": [
        {
          "name": "",
          "type": "bool"
        }
      ],
      "payable": false,
      "stateMutability": "nonpayable",
      "type": "function"
    },
    {
      "constant": true,
      "inputs": [],
      "name": "generalInfo",
      "outputs": [
        {
          "name": "",
          "type": "address"
        },
        {
          "name": "",
          "type": "string"
        },
        {
          "name": "",
          "type": "uint256"
        },
        {
          "name": "",
          "type": "uint64"
        },
        {
          "name": "",
          "type": "uint8"
        },
        {
          "name": "",
          "type": "bool"
        }
      ],
      "payable": false,
      "stateMutability": "view",
      "type": "function"
    },
    {
      "constant": false,
      "inputs": [],
      "name": "pricelInfo",
      "outputs": [
        {
          "name": "",
          "type": "uint256"
        },
        {
          "name": "",
          "type": "string"
        }
      ],
      "payable": false,
      "stateMutability": "nonpayable",
      "type": "function"
    },
    {
      "constant": true,
      "inputs": [],
      "name": "getOwner",
      "outputs": [
        {
          "name": "",
          "type": "address"
        }
      ],
      "payable": false,
      "stateMutability": "view",
      "type": "function"
    },
    {
      "constant": true,
      "inputs": [],
      "name": "getLock",
      "outputs": [
        {
          "name": "",
          "type": "address"
        }
      ],
      "payable": false,
      "stateMutability": "view",
      "type": "function"
    },
    {
      "constant": false,
      "inputs": [],
      "name": "destroyProduct",
      "outputs": [],
      "payable": false,
      "stateMutability": "nonpayable",
      "type": "function"
    },
    {
      "constant": true,
      "inputs": [],
      "name": "getBalance",
      "outputs": [
        {
          "name": "",
          "type": "uint256"
        }
      ],
      "payable": false,
      "stateMutability": "view",
      "type": "function"
    }
  ],
  "bytecode": "0x60606040526000600b60006101000a81548160ff0219169083151502179055506000600b601d6101000a81548160ff0219169083151502179055506000600b601e6101000a81548160ff021916908315150217905550341561006057600080fd5b6110cd8061006f6000396000f3006060604052600436106100c5576000357c0100000000000000000000000000000000000000000000000000000000900463ffffffff168063072162d7146100ca5780630fdb1c10146100df57806312065fe01461010c5780631c6f0f851461013557806325a6c5451461016c5780634fd6137c1461026f5780637e5852d91461029c578063854f4aa2146102f1578063893d20e81461035b5780639ada9b7b146103b0578063ad1e1fa4146103d2578063af0c270514610467578063e96d981c14610494575b600080fd5b34156100d557600080fd5b6100dd61049e565b005b34156100ea57600080fd5b6100f261053b565b604051808215151515815260200191505060405180910390f35b341561011757600080fd5b61011f610649565b6040518082815260200191505060405180910390f35b341561014057600080fd5b610148610668565b6040518082600381111561015857fe5b60ff16815260200191505060405180910390f35b341561017757600080fd5b61017f61067a565b604051808773ffffffffffffffffffffffffffffffffffffffff1673ffffffffffffffffffffffffffffffffffffffff168152602001806020018681526020018567ffffffffffffffff1667ffffffffffffffff1681526020018460038111156101e557fe5b60ff16815260200183151515158152602001828103825287818151815260200191508051906020019080838360005b8381101561022f578082015181840152602081019050610214565b50505050905090810190601f16801561025c5780820380516001836020036101000a031916815260200191505b5097505050505050505060405180910390f35b341561027a57600080fd5b6102826107a4565b604051808215151515815260200191505060405180910390f35b34156102a757600080fd5b6102af61085a565b604051808273ffffffffffffffffffffffffffffffffffffffff1673ffffffffffffffffffffffffffffffffffffffff16815260200191505060405180910390f35b34156102fc57600080fd5b6103596004808035906020019082018035906020019190919290803573ffffffffffffffffffffffffffffffffffffffff169060200190919080359060200190919080359060200190919080351515906020019091905050610887565b005b341561036657600080fd5b61036e6109da565b604051808273ffffffffffffffffffffffffffffffffffffffff1673ffffffffffffffffffffffffffffffffffffffff16815260200191505060405180910390f35b6103b8610a07565b604051808215151515815260200191505060405180910390f35b34156103dd57600080fd5b6103e5610ba6565b6040518083815260200180602001828103825283818151815260200191508051906020019080838360005b8381101561042b578082015181840152602081019050610410565b50505050905090810190601f1680156104585780820380516001836020036101000a031916815260200191505b50935050505060405180910390f35b341561047257600080fd5b61047a610d4f565b604051808215151515815260200191505060405180910390f35b61049c610de6565b005b600160000160009054906101000a900473ffffffffffffffffffffffffffffffffffffffff1673ffffffffffffffffffffffffffffffffffffffff163373ffffffffffffffffffffffffffffffffffffffff161415156104fd57600080fd5b600160000160009054906101000a900473ffffffffffffffffffffffffffffffffffffffff1673ffffffffffffffffffffffffffffffffffffffff16ff5b6000600160000160009054906101000a900473ffffffffffffffffffffffffffffffffffffffff1673ffffffffffffffffffffffffffffffffffffffff163373ffffffffffffffffffffffffffffffffffffffff1614151561059c57600080fd5b60011515600b601e9054906101000a900460ff1615151480156105d2575060001515600b601d9054906101000a900460ff161515145b15156105dd57600080fd5b600160000160009054906101000a900473ffffffffffffffffffffffffffffffffffffffff1673ffffffffffffffffffffffffffffffffffffffff166108fc60018001549081150290604051600060405180830381858888f19350505050151561064657600080fd5b90565b60003073ffffffffffffffffffffffffffffffffffffffff1631905090565b6000809054906101000a900460ff1681565b6000610684610fbc565b600080600080600160000160009054906101000a900473ffffffffffffffffffffffffffffffffffffffff166001600201600160080154600160090160009054906101000a900467ffffffffffffffff166000809054906101000a900460ff16600b60009054906101000a900460ff16848054600181600116156101000203166002900480601f0160208091040260200160405190810160405280929190818152602001828054600181600116156101000203166002900480156107895780601f1061075e57610100808354040283529160200191610789565b820191906000526020600020905b81548152906001019060200180831161076c57829003601f168201915b50505050509450955095509550955095509550909192939495565b6000600b60009054906101000a900460ff1615156107c157600080fd5b600b60019054906101000a900473ffffffffffffffffffffffffffffffffffffffff1673ffffffffffffffffffffffffffffffffffffffff163373ffffffffffffffffffffffffffffffffffffffff16148015610831575060001515600b601e9054906101000a900460ff161515145b151561083c57600080fd5b6001600b601d6101000a81548160ff02191690831515021790555090565b6000600160040160009054906101000a900473ffffffffffffffffffffffffffffffffffffffff16905090565b6000600160090160009054906101000a900467ffffffffffffffff1667ffffffffffffffff161415156108b957600080fd5b8585600160020191906108cd929190610fd0565b5033600160000160006101000a81548173ffffffffffffffffffffffffffffffffffffffff021916908373ffffffffffffffffffffffffffffffffffffffff16021790555083600160000160006101000a81548173ffffffffffffffffffffffffffffffffffffffff021916908373ffffffffffffffffffffffffffffffffffffffff1602179055508260016003018190555042600160090160006101000a81548167ffffffffffffffff021916908367ffffffffffffffff16021790555081600180018190555060016000806101000a81548160ff021916908360038111156109b357fe5b021790555080600b60006101000a81548160ff021916908315150217905550505050505050565b6000600160000160009054906101000a900473ffffffffffffffffffffffffffffffffffffffff16905090565b600042600160050154101515610a80576000600160040160006101000a81548173ffffffffffffffffffffffffffffffffffffffff021916908373ffffffffffffffffffffffffffffffffffffffff16021790555060016000806101000a81548160ff02191690836003811115610a7a57fe5b02179055505b600b60009054906101000a900460ff161515610a9b57600080fd5b3373ffffffffffffffffffffffffffffffffffffffff16600160040160009054906101000a900473ffffffffffffffffffffffffffffffffffffffff1673ffffffffffffffffffffffffffffffffffffffff16148015610afe5750346001800154145b8015610b2e575060026003811115610b1257fe5b6000809054906101000a900460ff166003811115610b2c57fe5b145b1515610b3957600080fd5b33600b60016101000a81548173ffffffffffffffffffffffffffffffffffffffff021916908373ffffffffffffffffffffffffffffffffffffffff16021790555042600b60156101000a81548167ffffffffffffffff021916908367ffffffffffffffff16021790555090565b6000610bb0610fbc565b42600160050154101515610c27576000600160040160006101000a81548173ffffffffffffffffffffffffffffffffffffffff021916908373ffffffffffffffffffffffffffffffffffffffff16021790555060016000806101000a81548160ff02191690836003811115610c2157fe5b02179055505b3373ffffffffffffffffffffffffffffffffffffffff16600160040160009054906101000a900473ffffffffffffffffffffffffffffffffffffffff1673ffffffffffffffffffffffffffffffffffffffff16141515610c8657600080fd5b600b60009054906101000a900460ff161515610ca157600080fd5b60018001546001600201808054600181600116156101000203166002900480601f016020809104026020016040519081016040528092919081815260200182805460018160011615610100020316600290048015610d405780601f10610d1557610100808354040283529160200191610d40565b820191906000526020600020905b815481529060010190602001808311610d2357829003601f168201915b50505050509050915091509091565b6000600b60009054906101000a900460ff161515610d6c57600080fd5b600b60019054906101000a900473ffffffffffffffffffffffffffffffffffffffff1673ffffffffffffffffffffffffffffffffffffffff163373ffffffffffffffffffffffffffffffffffffffff16141515610dc857600080fd5b6001600b601e6101000a81548160ff02191690831515021790555090565b600b60009054906101000a900460ff161515610e0157600080fd5b600073ffffffffffffffffffffffffffffffffffffffff16600160040160009054906101000a900473ffffffffffffffffffffffffffffffffffffffff1673ffffffffffffffffffffffffffffffffffffffff16141515610e6157600080fd5b33600160040160006101000a81548173ffffffffffffffffffffffffffffffffffffffff021916908373ffffffffffffffffffffffffffffffffffffffff1602179055506001806008016000828254019250508190555067016345785d8a0000600180016000828254039250508190555060016007018054806001018281610ee99190611050565b9160005260206000209001600033909190916101000a81548173ffffffffffffffffffffffffffffffffffffffff021916908373ffffffffffffffffffffffffffffffffffffffff160217905550506103e8600160060160003373ffffffffffffffffffffffffffffffffffffffff1673ffffffffffffffffffffffffffffffffffffffff16815260200190815260200160002060008282540192505081905550603c420160016005018190555060026000806101000a81548160ff02191690836003811115610fb557fe5b0217905550565b602060405190810160405280600081525090565b828054600181600116156101000203166002900490600052602060002090601f016020900481019282601f1061101157803560ff191683800117855561103f565b8280016001018555821561103f579182015b8281111561103e578235825591602001919060010190611023565b5b50905061104c919061107c565b5090565b81548183558181151161107757818360005260206000209182019101611076919061107c565b5b505050565b61109e91905b8082111561109a576000816000905550600101611082565b5090565b905600a165627a7a723058201c4e4375d67570f87c909cc53a4f1d041c33b187538f1977eb1536f54be4aa0a0029",
  "source": "pragma solidity ^0.4.4;\n\ncontract Product {\n\n    struct Item {\n        address owner;\n        uint price;\n        string name;\n        uint minPrice;\n        address lock;\n        uint lockTime;\n        mapping (address => uint) viewers;\n        address[] viewerlist;                   //adress of viewers for pay back\n        uint viewCount;\n        uint64 createdOn;                   // Time when product was created\n    }\n\n    enum  State { Initial, Available, Locked, Selled }\n    State public cState;\n\n    Item private product;\n    bool private ontheBazaar=false;\n\n    address private buyer;\n    uint64 private timeofSale;\n\n    bool private dispute=false;\n    bool private validated=false;\n\n    modifier timeIsUp() {\n\n        if (product.lockTime >= block.timestamp) {\n            product.lock = address(0);\n            cState=State.Available;\n        }\n        _;\n    }\n\n    modifier onlyOwner(){\n        require(msg.sender == product.owner);\n        _;\n    }\n    modifier ontheBazzar(){\n        require(ontheBazaar);\n        _;\n    }\n\n    modifier checkLock(){\n        require(product.lock == msg.sender);\n        _;\n    }\n    modifier checkLocked(){\n        require(product.lock == address(0));\n        _;\n    }\n    modifier checkBuyable(){\n        require(timeofSale!=0 && product.lock != address(0));\n        _;\n    }\n\n    function construct(\n        string _name,\n        address _owner,\n        uint _minPrice,\n        uint _price,\n        bool _ontheBazzar\n    )\n        external\n    {\n        //add modifier this function restrict only callable from merchants contracts\n\n        require(product.createdOn == 0);               // Prevent constructing multiple times\n        product.name = _name;\n        product.owner=msg.sender;\n        product.owner = _owner;\n        product.minPrice = _minPrice;\n        product.createdOn = uint64(now);\n        product.price = _price;\n        cState=State.Available;\n        ontheBazaar=_ontheBazzar;\n    }\n    function lockProduct()\n    public\n    ontheBazzar\n    checkLocked\n    payable\n    {\n\n        //timeIsUp\n        //checkLocked\n        //ontheBazzar\n        //require(msg.value == (1* 10**17)); //check 0.1 ether\n        //require(product.price+ (1*10**18) >= (product.minPrice+(1* 10**17)));\n\n        product.lock=msg.sender;\n        product.viewCount+=1;\n        product.price-=(1* 10**17);         //0.1 ether  this :)\n        product.viewerlist.push(msg.sender);//maybe mapping\n        product.viewers[msg.sender]+=1000 ;//in wei\n        product.lockTime=now+60;//now is block.timestamp\n        cState=State.Locked;\n\n    }\n    //is there any posibliy msg.sender is 0x00\n    function buyProduct()\n    external\n    payable\n    timeIsUp\n    ontheBazzar\n    returns(bool){\n\n        require(product.lock == msg.sender &&  product.price == msg.value && cState == State.Locked);\n        buyer=msg.sender;\n        timeofSale=uint64(now);\n\n    }\n    // user validate  product is received\n    function validateProduct()\n    external\n    ontheBazzar\n    returns(bool){\n        require(msg.sender==buyer);\n        validated=true;\n    }\n    function withDraw()\n    onlyOwner\n    external\n    returns(bool){\n        require(validated==true && dispute==false);\n        product.owner.transfer(product.price);//if is it fail ,throws on failure\n    }\n    function openDispute()public\n    ontheBazzar\n    returns(bool){\n        require(msg.sender==buyer && validated==false);\n        dispute=true;\n\n    }\n\n    function generalInfo() public\n    view\n    returns(address,string,uint,uint64,State,bool)\n    {\n        return (product.owner,product.name,product.viewCount,product.createdOn,cState,ontheBazaar);\n    }\n\n    function pricelInfo()\n    public\n    timeIsUp\n    checkLock\n    ontheBazzar\n    returns(uint,string) //owner,name\n    {\n        return (product.price,product.name);\n    }\n\n    function getOwner()public\n    view\n    returns(address) //owner,name\n    {\n        return (product.owner);\n    }\n\n    function getLock()public\n    view\n    returns(address) //owner,name\n    {\n        return (product.lock);\n    }\n\n    function destroyProduct()external\n    //add modifier only seller contract can call this,name\n    onlyOwner()\n    {\n        selfdestruct(product.owner);\n    }\n\n    function getBalance() view public returns ( uint) {\n        return address(this).balance ;\n    }\n\n\n}\n",
  "sourcePath": "/Users/fatih/Desktop/Product-Bazaar/contracts/Product.sol",
  "compiler": {
    "name": "solc",
    "version": "0.4.19+commit.c4cbbb05.Emscripten.clang"
  },
  "schemaVersion": "2.0.0",
  "updatedAt": "2018-05-06T17:05:04.418Z"
}