{
  "contractName": "Product",
  "abi": [
    {
      "constant": true,
      "inputs": [],
      "name": "getBalance",
      "outputs": [
        {
          "name": "",
          "type": "uint256"
        }
      ],
      "payable": false,
      "stateMutability": "view",
      "type": "function"
    },
    {
      "constant": false,
      "inputs": [],
      "name": "checkLockable",
      "outputs": [
        {
          "name": "",
          "type": "bool"
        }
      ],
      "payable": false,
      "stateMutability": "nonpayable",
      "type": "function"
    },
    {
      "constant": false,
      "inputs": [
        {
          "name": "viewer",
          "type": "address"
        }
      ],
      "name": "lockProduct",
      "outputs": [],
      "payable": false,
      "stateMutability": "nonpayable",
      "type": "function"
    },
    {
      "constant": true,
      "inputs": [],
      "name": "product",
      "outputs": [
        {
          "name": "owner",
          "type": "address"
        },
        {
          "name": "price",
          "type": "uint256"
        },
        {
          "name": "name",
          "type": "string"
        },
        {
          "name": "minPrice",
          "type": "uint256"
        },
        {
          "name": "lock",
          "type": "address"
        },
        {
          "name": "lockTime",
          "type": "uint256"
        },
        {
          "name": "viewCount",
          "type": "uint256"
        },
        {
          "name": "createdOn",
          "type": "uint64"
        }
      ],
      "payable": false,
      "stateMutability": "view",
      "type": "function"
    },
    {
      "constant": false,
      "inputs": [
        {
          "name": "_name",
          "type": "string"
        },
        {
          "name": "_owner",
          "type": "address"
        },
        {
          "name": "_minPrice",
          "type": "uint256"
        },
        {
          "name": "_price",
          "type": "uint256"
        }
      ],
      "name": "construct",
      "outputs": [],
      "payable": false,
      "stateMutability": "nonpayable",
      "type": "function"
    },
    {
      "constant": false,
      "inputs": [
        {
          "name": "msgsender",
          "type": "address"
        }
      ],
      "name": "checkBuyable",
      "outputs": [
        {
          "name": "",
          "type": "bool"
        }
      ],
      "payable": false,
      "stateMutability": "nonpayable",
      "type": "function"
    }
  ],
  "bytecode": "0x6060604052341561000f57600080fd5b6108858061001e6000396000f300606060405260043610610078576000357c0100000000000000000000000000000000000000000000000000000000900463ffffffff16806312065fe01461007d57806312970578146100a65780634d97e5a0146100d3578063bf9ce9521461010c578063d7e96ff514610254578063dbf46362146102e2575b600080fd5b341561008857600080fd5b610090610333565b6040518082815260200191505060405180910390f35b34156100b157600080fd5b6100b9610352565b604051808215151515815260200191505060405180910390f35b34156100de57600080fd5b61010a600480803573ffffffffffffffffffffffffffffffffffffffff169060200190919050506103bf565b005b341561011757600080fd5b61011f6104c6565b604051808973ffffffffffffffffffffffffffffffffffffffff1673ffffffffffffffffffffffffffffffffffffffff168152602001888152602001806020018781526020018673ffffffffffffffffffffffffffffffffffffffff1673ffffffffffffffffffffffffffffffffffffffff1681526020018581526020018481526020018367ffffffffffffffff1667ffffffffffffffff16815260200182810382528881815460018160011615610100020316600290048152602001915080546001816001161561010002031660029004801561023e5780601f106102135761010080835404028352916020019161023e565b820191906000526020600020905b81548152906001019060200180831161022157829003601f168201915b5050995050505050505050505060405180910390f35b341561025f57600080fd5b6102e0600480803590602001908201803590602001908080601f0160208091040260200160405190810160405280939291908181526020018383808284378201915050505050509190803573ffffffffffffffffffffffffffffffffffffffff1690602001909190803590602001909190803590602001909190505061054f565b005b34156102ed57600080fd5b610319600480803573ffffffffffffffffffffffffffffffffffffffff16906020019091905050610666565b604051808215151515815260200191505060405180910390f35b60003073ffffffffffffffffffffffffffffffffffffffff1631905090565b60008073ffffffffffffffffffffffffffffffffffffffff16600060040160009054906101000a900473ffffffffffffffffffffffffffffffffffffffff1673ffffffffffffffffffffffffffffffffffffffff161415156103b757600090506103bc565b600190505b90565b6103c7610352565b156103d157600080fd5b6103d9610352565b15156103e457600080fd5b80600060040160006101000a81548173ffffffffffffffffffffffffffffffffffffffff021916908373ffffffffffffffffffffffffffffffffffffffff16021790555060016000600701600082825401925050819055506001600060010160008282540392505081905550600060060180548060010182816104679190610788565b9160005260206000209001600083909190916101000a81548173ffffffffffffffffffffffffffffffffffffffff021916908373ffffffffffffffffffffffffffffffffffffffff16021790555050603c420160006005018190555050565b60008060000160009054906101000a900473ffffffffffffffffffffffffffffffffffffffff169080600101549080600201908060030154908060040160009054906101000a900473ffffffffffffffffffffffffffffffffffffffff16908060050154908060070154908060080160009054906101000a900467ffffffffffffffff16905088565b60008060080160009054906101000a900467ffffffffffffffff1667ffffffffffffffff1614151561058057600080fd5b83600060020190805190602001906105999291906107b4565b50336000800160006101000a81548173ffffffffffffffffffffffffffffffffffffffff021916908373ffffffffffffffffffffffffffffffffffffffff160217905550826000800160006101000a81548173ffffffffffffffffffffffffffffffffffffffff021916908373ffffffffffffffffffffffffffffffffffffffff1602179055508160006003018190555042600060080160006101000a81548167ffffffffffffffff021916908367ffffffffffffffff1602179055508060006001018190555050505050565b6000426000600501541015156106bb5760008060040160006101000a81548173ffffffffffffffffffffffffffffffffffffffff021916908373ffffffffffffffffffffffffffffffffffffffff1602179055505b8173ffffffffffffffffffffffffffffffffffffffff16600060040160009054906101000a900473ffffffffffffffffffffffffffffffffffffffff1673ffffffffffffffffffffffffffffffffffffffff1614151561071a57600080fd5b600073ffffffffffffffffffffffffffffffffffffffff16600060040160009054906101000a900473ffffffffffffffffffffffffffffffffffffffff1673ffffffffffffffffffffffffffffffffffffffff1614151561077e5760009050610783565b600190505b919050565b8154818355818115116107af578183600052602060002091820191016107ae9190610834565b5b505050565b828054600181600116156101000203166002900490600052602060002090601f016020900481019282601f106107f557805160ff1916838001178555610823565b82800160010185558215610823579182015b82811115610822578251825591602001919060010190610807565b5b5090506108309190610834565b5090565b61085691905b8082111561085257600081600090555060010161083a565b5090565b905600a165627a7a7230582033b5828722604d59ebfe892f0691494c238d221e53c56d7e80a735355a8a00920029",
  "source": "pragma solidity ^0.4.4;\n\ncontract Product {\n\n\n   struct Product{\n       address owner;\n       uint price;\n       string name;\n       uint minPrice;\n       address lock;\n       uint lockTime;\n       address[] viewers;                   //adress of viewers for pay back\n       uint viewCount;\n       uint64 createdOn;                   // Time when product was created\n\n   }\n\n   Product public product;\n\n\n   modifier timeIsUp() {\n\n       if (product.lockTime >= block.timestamp) {\n           product.lock = address(0);\n       }\n       _;\n   }\n\n   modifier checkLock(){\n       if (product.lock != msg.sender) {\n          revert();\n       }\n       _;\n   }\n    modifier checkLocked(){\n       if (checkLockable()) {\n          revert();\n       }\n       _;\n   }\n\n   function checkLockable() public returns (bool){\n       if (product.lock != address(0) ) {\n          return false;\n       }\n       return true;\n   }\n\n   function checkBuyable(address msgsender)\n   public\n   timeIsUp\n   returns (bool)\n   {\n       require(product.lock == msgsender);\n       if (product.lock != address(0) ) {\n          return false;\n       }\n       return true;\n   }\n\n\n    function construct(\n        string _name,\n        address _owner,\n        uint _minPrice,\n        uint _price\n    )\n        public\n    {\n\n        //add modifier this function restrict only callaable from merchants contracts\n        \n        require(product.createdOn == 0);               // Prevent constructing multiple times\n        product.name = _name;\n        product.owner=msg.sender;\n        product.owner = _owner;\n        product.minPrice = _minPrice;\n        product.createdOn = uint64(now);\n        product.price = _price;\n\n\n    }\n\n\n   function lockProduct(address viewer)\n   public\n   checkLocked()\n   {\n\n        //add modifier this function restrict only callaable from merchants contracts\n\n       require(checkLockable());\n       product.lock=viewer;\n       product.viewCount+=1;\n       product.price-=1;//change this :)\n       product.viewers.push(viewer);//maybe mapping\n       product.lockTime=now+60;//now is block.timestamp\n\n\n   }\n\n\n function getBalance() view public returns (uint) {\n       return address(this).balance ;\n   }\n\n\n}\n",
  "sourcePath": "/Users/fatih/Desktop/ethExchange/contracts/Product.sol",
  "compiler": {
    "name": "solc",
    "version": "0.4.18+commit.9cf6e910.Emscripten.clang"
  },
  "schemaVersion": "1.0.1",
  "updatedAt": "2018-03-06T16:51:13.784Z"
}