{
  "contractName": "Seller",
  "abi": [
    {
      "constant": false,
      "inputs": [
        {
          "name": "_name",
          "type": "string"
        },
        {
          "name": "_minPrice",
          "type": "uint256"
        },
        {
          "name": "_price",
          "type": "uint256"
        }
      ],
      "name": "publishProduct",
      "outputs": [
        {
          "name": "",
          "type": "address"
        }
      ],
      "payable": true,
      "stateMutability": "payable",
      "type": "function"
    },
    {
      "constant": true,
      "inputs": [],
      "name": "getDb",
      "outputs": [
        {
          "name": "",
          "type": "address"
        }
      ],
      "payable": false,
      "stateMutability": "view",
      "type": "function"
    },
    {
      "constant": false,
      "inputs": [],
      "name": "kill",
      "outputs": [],
      "payable": false,
      "stateMutability": "nonpayable",
      "type": "function"
    },
    {
      "constant": false,
      "inputs": [
        {
          "name": "_product",
          "type": "address"
        }
      ],
      "name": "recallProduct",
      "outputs": [],
      "payable": false,
      "stateMutability": "nonpayable",
      "type": "function"
    },
    {
      "constant": false,
      "inputs": [
        {
          "name": "_value",
          "type": "uint64"
        }
      ],
      "name": "transferOwner",
      "outputs": [
        {
          "name": "",
          "type": "bool"
        }
      ],
      "payable": false,
      "stateMutability": "nonpayable",
      "type": "function"
    },
    {
      "constant": true,
      "inputs": [],
      "name": "productDb",
      "outputs": [
        {
          "name": "",
          "type": "address"
        }
      ],
      "payable": false,
      "stateMutability": "view",
      "type": "function"
    },
    {
      "constant": true,
      "inputs": [],
      "name": "owneraddress",
      "outputs": [
        {
          "name": "",
          "type": "address"
        }
      ],
      "payable": false,
      "stateMutability": "view",
      "type": "function"
    },
    {
      "inputs": [
        {
          "name": "_proRegistry",
          "type": "address"
        }
      ],
      "payable": false,
      "stateMutability": "nonpayable",
      "type": "constructor"
    },
    {
      "anonymous": false,
      "inputs": [
        {
          "indexed": true,
          "name": "owner",
          "type": "address"
        },
        {
          "indexed": true,
          "name": "product",
          "type": "address"
        }
      ],
      "name": "LogProductDeleted",
      "type": "event"
    },
    {
      "anonymous": false,
      "inputs": [
        {
          "indexed": true,
          "name": "owner",
          "type": "address"
        },
        {
          "indexed": true,
          "name": "product",
          "type": "address"
        }
      ],
      "name": "LogProductPublished",
      "type": "event"
    }
  ],
  "bytecode": "0x6060604052341561000f57600080fd5b6040516020806108e883398101604052808051906020019091905050336000806101000a81548173ffffffffffffffffffffffffffffffffffffffff021916908373ffffffffffffffffffffffffffffffffffffffff16021790555080600160006101000a81548173ffffffffffffffffffffffffffffffffffffffff021916908373ffffffffffffffffffffffffffffffffffffffff1602179055505061082c806100bc6000396000f300606060405260043610610083576000357c0100000000000000000000000000000000000000000000000000000000900463ffffffff16806306e6ba8c1461008857806337cbf435146100fd57806341c0e1b5146101525780635111824a146101675780635df80d58146101a05780637456f87c146101e5578063aaa484251461023a575b600080fd5b6100bb6004808035906020019082018035906020019190919290803590602001909190803590602001909190505061028f565b604051808273ffffffffffffffffffffffffffffffffffffffff1673ffffffffffffffffffffffffffffffffffffffff16815260200191505060405180910390f35b341561010857600080fd5b610110610433565b604051808273ffffffffffffffffffffffffffffffffffffffff1673ffffffffffffffffffffffffffffffffffffffff16815260200191505060405180910390f35b341561015d57600080fd5b6101656104bc565b005b341561017257600080fd5b61019e600480803573ffffffffffffffffffffffffffffffffffffffff16906020019091905050610550565b005b34156101ab57600080fd5b6101cb600480803567ffffffffffffffff169060200190919050506106e4565b604051808215151515815260200191505060405180910390f35b34156101f057600080fd5b6101f86107b1565b604051808273ffffffffffffffffffffffffffffffffffffffff1673ffffffffffffffffffffffffffffffffffffffff16815260200191505060405180910390f35b341561024557600080fd5b61024d6107d7565b604051808273ffffffffffffffffffffffffffffffffffffffff1673ffffffffffffffffffffffffffffffffffffffff16815260200191505060405180910390f35b6000808383808211156102a157600080fd5b67016345785d8a0000341415156102b757600080fd5b600160009054906101000a900473ffffffffffffffffffffffffffffffffffffffff1673ffffffffffffffffffffffffffffffffffffffff1663a4aba1cd8989338a8a6000604051602001526040518663ffffffff167c010000000000000000000000000000000000000000000000000000000002815260040180806020018573ffffffffffffffffffffffffffffffffffffffff1673ffffffffffffffffffffffffffffffffffffffff168152602001848152602001838152602001828103825287878281815260200192508082843782019150509650505050505050602060405180830381600087803b15156103ae57600080fd5b6102c65a03f115156103bf57600080fd5b5050506040518051905092508273ffffffffffffffffffffffffffffffffffffffff163373ffffffffffffffffffffffffffffffffffffffff167f83c67e23eddacee61715f89c60a0e744dcc70966e3b9e793070899975c06697760405160405180910390a3829350505050949350505050565b60003373ffffffffffffffffffffffffffffffffffffffff166000809054906101000a900473ffffffffffffffffffffffffffffffffffffffff1673ffffffffffffffffffffffffffffffffffffffff1614156104b457600160009054906101000a900473ffffffffffffffffffffffffffffffffffffffff1690506104b9565b600080fd5b90565b3373ffffffffffffffffffffffffffffffffffffffff166000809054906101000a900473ffffffffffffffffffffffffffffffffffffffff1673ffffffffffffffffffffffffffffffffffffffff16141561054b576000809054906101000a900473ffffffffffffffffffffffffffffffffffffffff1673ffffffffffffffffffffffffffffffffffffffff16ff5b600080fd5b3373ffffffffffffffffffffffffffffffffffffffff168173ffffffffffffffffffffffffffffffffffffffff1663893d20e86000604051602001526040518163ffffffff167c0100000000000000000000000000000000000000000000000000000000028152600401602060405180830381600087803b15156105d357600080fd5b6102c65a03f115156105e457600080fd5b5050506040518051905073ffffffffffffffffffffffffffffffffffffffff1614151561061057600080fd5b8073ffffffffffffffffffffffffffffffffffffffff1663072162d76040518163ffffffff167c0100000000000000000000000000000000000000000000000000000000028152600401600060405180830381600087803b151561067357600080fd5b6102c65a03f1151561068457600080fd5b5050508073ffffffffffffffffffffffffffffffffffffffff163373ffffffffffffffffffffffffffffffffffffffff167f3afca3e6085bd7c71094568b5a177a9f65d9e7cfbd3da0a1cd4234b273d5980260405160405180910390a350565b6000803373ffffffffffffffffffffffffffffffffffffffff166000809054906101000a900473ffffffffffffffffffffffffffffffffffffffff1673ffffffffffffffffffffffffffffffffffffffff1614156107a6576000809054906101000a900473ffffffffffffffffffffffffffffffffffffffff1673ffffffffffffffffffffffffffffffffffffffff166108fc8467ffffffffffffffff169081150290604051600060405180830381858888f1935050505090508091506107ab565b600080fd5b50919050565b600160009054906101000a900473ffffffffffffffffffffffffffffffffffffffff1681565b60008060009054906101000a900473ffffffffffffffffffffffffffffffffffffffff169050905600a165627a7a7230582096957792fd468153f2062dafb7426ec7c5c0d1539fd3517306b041982e648afc0029",
  "source": "pragma solidity ^0.4.4;\nimport \"./Base.sol\";\nimport \"./ProductRegistry.sol\";\n\ncontract Seller is Base {\n\n\n\n  event LogProductDeleted(address indexed owner, address indexed product);\n  event LogProductPublished(address indexed owner, address indexed product);\n\n  function Seller(address _proRegistry) {\n\n    productDb=ProductRegistry(_proRegistry);\n  }\n\n  modifier checkParameter(uint _minPrice,uint _price){\n      if (_minPrice > _price) //+ (_price*0.1) )\n      {\n         revert();\n      }\n      _;\n  }\n  \n  function publishProduct(string _name,\n  uint _minPrice,\n  uint _price)\n    external\n    payable\n    checkParameter(_minPrice,_price)\n    returns (address)\n    {\n        if (msg.value != 1* 10**17 ){//assume 0.1 ether\n            revert();\n        }\n        var result=productDb.addProduct(_name,msg.sender,_minPrice,_price);\n        LogProductPublished(msg.sender,result);\n        return result;\n\n    }\n\n    function recallProduct(address _product)\n    external\n    {\n      require(Product(_product).getOwner()==msg.sender);\n      Product(_product).destroyProduct();\n      LogProductDeleted(msg.sender,_product);\n\n    }\n\n\n\n\n\n}\n",
  "sourcePath": "/Users/fatih/Desktop/Product-Bazaar/contracts/Seller.sol",
  "compiler": {
    "name": "solc",
    "version": "0.4.18+commit.9cf6e910.Emscripten.clang"
  },
  "schemaVersion": "1.0.1",
  "updatedAt": "2018-03-19T12:49:20.592Z"
}