{
  "contractName": "Seller",
  "abi": [
    {
      "constant": false,
      "inputs": [
        {
          "name": "_name",
          "type": "string"
        },
        {
          "name": "_minPrice",
          "type": "uint256"
        },
        {
          "name": "_price",
          "type": "uint256"
        }
      ],
      "name": "publishProduct",
      "outputs": [
        {
          "name": "",
          "type": "address"
        }
      ],
      "payable": true,
      "stateMutability": "payable",
      "type": "function"
    },
    {
      "constant": false,
      "inputs": [],
      "name": "getDb",
      "outputs": [
        {
          "name": "",
          "type": "address"
        }
      ],
      "payable": false,
      "stateMutability": "nonpayable",
      "type": "function"
    },
    {
      "constant": false,
      "inputs": [],
      "name": "kill",
      "outputs": [],
      "payable": false,
      "stateMutability": "nonpayable",
      "type": "function"
    },
    {
      "constant": false,
      "inputs": [
        {
          "name": "_product",
          "type": "address"
        }
      ],
      "name": "recallProduct",
      "outputs": [],
      "payable": false,
      "stateMutability": "nonpayable",
      "type": "function"
    },
    {
      "constant": true,
      "inputs": [],
      "name": "productDb",
      "outputs": [
        {
          "name": "",
          "type": "address"
        }
      ],
      "payable": false,
      "stateMutability": "view",
      "type": "function"
    },
    {
      "constant": true,
      "inputs": [],
      "name": "owneraddress",
      "outputs": [
        {
          "name": "",
          "type": "address"
        }
      ],
      "payable": false,
      "stateMutability": "view",
      "type": "function"
    },
    {
      "inputs": [
        {
          "name": "_proRegistry",
          "type": "address"
        }
      ],
      "payable": false,
      "stateMutability": "nonpayable",
      "type": "constructor"
    },
    {
      "anonymous": false,
      "inputs": [
        {
          "indexed": true,
          "name": "owner",
          "type": "address"
        },
        {
          "indexed": true,
          "name": "product",
          "type": "address"
        }
      ],
      "name": "LogProductDeleted",
      "type": "event"
    }
  ],
  "bytecode": "0x6060604052341561000f57600080fd5b6040516020806107a983398101604052808051906020019091905050336000806101000a81548173ffffffffffffffffffffffffffffffffffffffff021916908373ffffffffffffffffffffffffffffffffffffffff16021790555080600160006101000a81548173ffffffffffffffffffffffffffffffffffffffff021916908373ffffffffffffffffffffffffffffffffffffffff160217905550506106ed806100bc6000396000f300606060405260043610610078576000357c0100000000000000000000000000000000000000000000000000000000900463ffffffff16806306e6ba8c1461007d57806337cbf435146100f257806341c0e1b5146101475780635111824a1461015c5780637456f87c14610195578063aaa48425146101ea575b600080fd5b6100b06004808035906020019082018035906020019190919290803590602001909190803590602001909190505061023f565b604051808273ffffffffffffffffffffffffffffffffffffffff1673ffffffffffffffffffffffffffffffffffffffff16815260200191505060405180910390f35b34156100fd57600080fd5b6101056103c1565b604051808273ffffffffffffffffffffffffffffffffffffffff1673ffffffffffffffffffffffffffffffffffffffff16815260200191505060405180910390f35b341561015257600080fd5b61015a61044a565b005b341561016757600080fd5b610193600480803573ffffffffffffffffffffffffffffffffffffffff169060200190919050506104de565b005b34156101a057600080fd5b6101a8610672565b604051808273ffffffffffffffffffffffffffffffffffffffff1673ffffffffffffffffffffffffffffffffffffffff16815260200191505060405180910390f35b34156101f557600080fd5b6101fd610698565b604051808273ffffffffffffffffffffffffffffffffffffffff1673ffffffffffffffffffffffffffffffffffffffff16815260200191505060405180910390f35b60008082848082101561025157600080fd5b67016345785d8a00003414151561026757600080fd5b600160009054906101000a900473ffffffffffffffffffffffffffffffffffffffff1673ffffffffffffffffffffffffffffffffffffffff1663a4aba1cd8989338a8a6000604051602001526040518663ffffffff167c010000000000000000000000000000000000000000000000000000000002815260040180806020018573ffffffffffffffffffffffffffffffffffffffff1673ffffffffffffffffffffffffffffffffffffffff168152602001848152602001838152602001828103825287878281815260200192508082843782019150509650505050505050602060405180830381600087803b151561035e57600080fd5b6102c65a03f1151561036f57600080fd5b505050604051805190509250600073ffffffffffffffffffffffffffffffffffffffff168373ffffffffffffffffffffffffffffffffffffffff161415156103b357fe5b829350505050949350505050565b60003373ffffffffffffffffffffffffffffffffffffffff166000809054906101000a900473ffffffffffffffffffffffffffffffffffffffff1673ffffffffffffffffffffffffffffffffffffffff16141561044257600160009054906101000a900473ffffffffffffffffffffffffffffffffffffffff169050610447565b600080fd5b90565b3373ffffffffffffffffffffffffffffffffffffffff166000809054906101000a900473ffffffffffffffffffffffffffffffffffffffff1673ffffffffffffffffffffffffffffffffffffffff1614156104d9576000809054906101000a900473ffffffffffffffffffffffffffffffffffffffff1673ffffffffffffffffffffffffffffffffffffffff16ff5b600080fd5b3373ffffffffffffffffffffffffffffffffffffffff168173ffffffffffffffffffffffffffffffffffffffff1663893d20e86000604051602001526040518163ffffffff167c0100000000000000000000000000000000000000000000000000000000028152600401602060405180830381600087803b151561056157600080fd5b6102c65a03f1151561057257600080fd5b5050506040518051905073ffffffffffffffffffffffffffffffffffffffff1614151561059e57600080fd5b8073ffffffffffffffffffffffffffffffffffffffff1663072162d76040518163ffffffff167c0100000000000000000000000000000000000000000000000000000000028152600401600060405180830381600087803b151561060157600080fd5b6102c65a03f1151561061257600080fd5b5050508073ffffffffffffffffffffffffffffffffffffffff163373ffffffffffffffffffffffffffffffffffffffff167f3afca3e6085bd7c71094568b5a177a9f65d9e7cfbd3da0a1cd4234b273d5980260405160405180910390a350565b600160009054906101000a900473ffffffffffffffffffffffffffffffffffffffff1681565b60008060009054906101000a900473ffffffffffffffffffffffffffffffffffffffff169050905600a165627a7a723058206e63bcc0e753c416c87de2c9d1a5eb432b80c00badb6fa422aef059e49efd5110029",
  "source": "pragma solidity ^0.4.4;\nimport \"./Base.sol\";\nimport \"./ProductRegistry.sol\";\n\ncontract Seller is Base {\n\n\n\n  event LogProductDeleted(address indexed owner, address indexed product);\n\n  function Seller(address _proRegistry) {\n\n    productDb=ProductRegistry(_proRegistry);\n  }\n\n  modifier checkParameter(uint _minPrice,uint _price){\n      if (_minPrice < _price) //+ (_price*0.1) )\n      {\n         revert();\n      }\n      _;\n  }\n\n\n  function publishProduct(string _name,\n  uint _minPrice,\n  uint _price)\n    external\n    payable\n    checkParameter(_price,_minPrice)\n    returns (address)\n    {\n        if (msg.value != 1* 10**17 ){//assume 0.1 ether\n            revert();\n        }\n        var result=productDb.addProduct(_name,msg.sender,_minPrice,_price);\n        assert(result==address(0));\n        return result;\n\n    }\n\n    function getDb() public onlyOwner returns  (address){\n      return productDb;\n    }\n\n\n    function recallProduct(address _product)\n    external\n    {\n      require(Product(_product).getOwner()==msg.sender);\n      Product(_product).destroyProduct();\n      LogProductDeleted(msg.sender,_product);\n\n    }\n\n\n\n\n\n}\n",
  "sourcePath": "/Users/fatih/Desktop/ethExchange/contracts/Seller.sol",
  "compiler": {
    "name": "solc",
    "version": "0.4.18+commit.9cf6e910.Emscripten.clang"
  },
  "schemaVersion": "1.0.1",
  "updatedAt": "2018-03-10T15:57:07.063Z"
}