{
  "contractName": "Seller",
  "abi": [
    {
      "constant": true,
      "inputs": [],
      "name": "getDb",
      "outputs": [
        {
          "name": "",
          "type": "address"
        }
      ],
      "payable": false,
      "stateMutability": "view",
      "type": "function"
    },
    {
      "constant": false,
      "inputs": [],
      "name": "kill",
      "outputs": [],
      "payable": false,
      "stateMutability": "nonpayable",
      "type": "function"
    },
    {
      "constant": false,
      "inputs": [
        {
          "name": "_value",
          "type": "uint64"
        }
      ],
      "name": "transferOwner",
      "outputs": [
        {
          "name": "",
          "type": "bool"
        }
      ],
      "payable": false,
      "stateMutability": "nonpayable",
      "type": "function"
    },
    {
      "constant": true,
      "inputs": [],
      "name": "productDb",
      "outputs": [
        {
          "name": "",
          "type": "address"
        }
      ],
      "payable": false,
      "stateMutability": "view",
      "type": "function"
    },
    {
      "constant": true,
      "inputs": [],
      "name": "owneraddress",
      "outputs": [
        {
          "name": "",
          "type": "address"
        }
      ],
      "payable": false,
      "stateMutability": "view",
      "type": "function"
    },
    {
      "inputs": [
        {
          "name": "_proRegistry",
          "type": "address"
        }
      ],
      "payable": false,
      "stateMutability": "nonpayable",
      "type": "constructor"
    },
    {
      "anonymous": false,
      "inputs": [
        {
          "indexed": true,
          "name": "owner",
          "type": "address"
        },
        {
          "indexed": true,
          "name": "product",
          "type": "address"
        }
      ],
      "name": "LogProductDeleted",
      "type": "event"
    },
    {
      "anonymous": false,
      "inputs": [
        {
          "indexed": true,
          "name": "owner",
          "type": "address"
        },
        {
          "indexed": true,
          "name": "product",
          "type": "address"
        }
      ],
      "name": "LogProductPublished",
      "type": "event"
    },
    {
      "anonymous": false,
      "inputs": [
        {
          "indexed": false,
          "name": "",
          "type": "uint256"
        },
        {
          "indexed": false,
          "name": "",
          "type": "uint256"
        }
      ],
      "name": "SetA",
      "type": "event"
    },
    {
      "constant": true,
      "inputs": [],
      "name": "getA",
      "outputs": [
        {
          "name": "",
          "type": "uint256"
        }
      ],
      "payable": false,
      "stateMutability": "view",
      "type": "function"
    },
    {
      "constant": false,
      "inputs": [
        {
          "name": "_a",
          "type": "uint256"
        }
      ],
      "name": "setA",
      "outputs": [],
      "payable": false,
      "stateMutability": "nonpayable",
      "type": "function"
    },
    {
      "constant": false,
      "inputs": [
        {
          "name": "_name",
          "type": "string"
        },
        {
          "name": "_minPrice",
          "type": "uint256"
        },
        {
          "name": "_price",
          "type": "uint256"
        }
      ],
      "name": "publishProduct",
      "outputs": [
        {
          "name": "",
          "type": "address"
        }
      ],
      "payable": true,
      "stateMutability": "payable",
      "type": "function"
    },
    {
      "constant": false,
      "inputs": [
        {
          "name": "_product",
          "type": "address"
        }
      ],
      "name": "recallProduct",
      "outputs": [],
      "payable": false,
      "stateMutability": "nonpayable",
      "type": "function"
    }
  ],
  "bytecode": "0x6060604052341561000f57600080fd5b60405160208061099f83398101604052808051906020019091905050336000806101000a81548173ffffffffffffffffffffffffffffffffffffffff021916908373ffffffffffffffffffffffffffffffffffffffff16021790555080600160006101000a81548173ffffffffffffffffffffffffffffffffffffffff021916908373ffffffffffffffffffffffffffffffffffffffff160217905550506108e3806100bc6000396000f300606060405260043610610099576000357c0100000000000000000000000000000000000000000000000000000000900463ffffffff16806306e6ba8c1461009e57806337cbf4351461011357806341c0e1b5146101685780635111824a1461017d5780635df80d58146101b65780637456f87c146101fb578063aaa4842514610250578063d46300fd146102a5578063ee919d50146102ce575b600080fd5b6100d1600480803590602001908201803590602001919091929080359060200190919080359060200190919050506102f1565b604051808273ffffffffffffffffffffffffffffffffffffffff1673ffffffffffffffffffffffffffffffffffffffff16815260200191505060405180910390f35b341561011e57600080fd5b610126610495565b604051808273ffffffffffffffffffffffffffffffffffffffff1673ffffffffffffffffffffffffffffffffffffffff16815260200191505060405180910390f35b341561017357600080fd5b61017b61051e565b005b341561018857600080fd5b6101b4600480803573ffffffffffffffffffffffffffffffffffffffff169060200190919050506105b2565b005b34156101c157600080fd5b6101e1600480803567ffffffffffffffff16906020019091905050610746565b604051808215151515815260200191505060405180910390f35b341561020657600080fd5b61020e610813565b604051808273ffffffffffffffffffffffffffffffffffffffff1673ffffffffffffffffffffffffffffffffffffffff16815260200191505060405180910390f35b341561025b57600080fd5b610263610839565b604051808273ffffffffffffffffffffffffffffffffffffffff1673ffffffffffffffffffffffffffffffffffffffff16815260200191505060405180910390f35b34156102b057600080fd5b6102b8610862565b6040518082815260200191505060405180910390f35b34156102d957600080fd5b6102ef600480803590602001909190505061086c565b005b60008083838082111561030357600080fd5b67016345785d8a00003414151561031957600080fd5b600160009054906101000a900473ffffffffffffffffffffffffffffffffffffffff1673ffffffffffffffffffffffffffffffffffffffff1663a4aba1cd8989338a8a6000604051602001526040518663ffffffff167c010000000000000000000000000000000000000000000000000000000002815260040180806020018573ffffffffffffffffffffffffffffffffffffffff1673ffffffffffffffffffffffffffffffffffffffff168152602001848152602001838152602001828103825287878281815260200192508082843782019150509650505050505050602060405180830381600087803b151561041057600080fd5b6102c65a03f1151561042157600080fd5b5050506040518051905092508273ffffffffffffffffffffffffffffffffffffffff163373ffffffffffffffffffffffffffffffffffffffff167f83c67e23eddacee61715f89c60a0e744dcc70966e3b9e793070899975c06697760405160405180910390a3829350505050949350505050565b60003373ffffffffffffffffffffffffffffffffffffffff166000809054906101000a900473ffffffffffffffffffffffffffffffffffffffff1673ffffffffffffffffffffffffffffffffffffffff16141561051657600160009054906101000a900473ffffffffffffffffffffffffffffffffffffffff16905061051b565b600080fd5b90565b3373ffffffffffffffffffffffffffffffffffffffff166000809054906101000a900473ffffffffffffffffffffffffffffffffffffffff1673ffffffffffffffffffffffffffffffffffffffff1614156105ad576000809054906101000a900473ffffffffffffffffffffffffffffffffffffffff1673ffffffffffffffffffffffffffffffffffffffff16ff5b600080fd5b3373ffffffffffffffffffffffffffffffffffffffff168173ffffffffffffffffffffffffffffffffffffffff1663893d20e86000604051602001526040518163ffffffff167c0100000000000000000000000000000000000000000000000000000000028152600401602060405180830381600087803b151561063557600080fd5b6102c65a03f1151561064657600080fd5b5050506040518051905073ffffffffffffffffffffffffffffffffffffffff1614151561067257600080fd5b8073ffffffffffffffffffffffffffffffffffffffff1663072162d76040518163ffffffff167c0100000000000000000000000000000000000000000000000000000000028152600401600060405180830381600087803b15156106d557600080fd5b6102c65a03f115156106e657600080fd5b5050508073ffffffffffffffffffffffffffffffffffffffff163373ffffffffffffffffffffffffffffffffffffffff167f3afca3e6085bd7c71094568b5a177a9f65d9e7cfbd3da0a1cd4234b273d5980260405160405180910390a350565b6000803373ffffffffffffffffffffffffffffffffffffffff166000809054906101000a900473ffffffffffffffffffffffffffffffffffffffff1673ffffffffffffffffffffffffffffffffffffffff161415610808576000809054906101000a900473ffffffffffffffffffffffffffffffffffffffff1673ffffffffffffffffffffffffffffffffffffffff166108fc8467ffffffffffffffff169081150290604051600060405180830381858888f19350505050905080915061080d565b600080fd5b50919050565b600160009054906101000a900473ffffffffffffffffffffffffffffffffffffffff1681565b60008060009054906101000a900473ffffffffffffffffffffffffffffffffffffffff16905090565b6000600254905090565b7f957df8e52767ddd61ddc091a6debbe310c21fb54b6a55698f463b248f67eb6db60025482604051808381526020018281526020019250505060405180910390a180600281905550505600a165627a7a72305820d9e74b1a78ed5f65d39c16411fabaad0b70b67ae3b669a002c29542df3e2c1fe0029",
  "source": "pragma solidity ^0.4.4;\nimport \"./Base.sol\";\nimport \"./ProductRegistry.sol\";\n\ncontract Seller is Base {\n\n    event LogProductDeleted(address indexed owner, address indexed product);\n    event LogProductPublished(address indexed owner, address indexed product);\n    event SetA(uint , uint );\n\n\n    uint a;\n\n\n\n    function Seller(address _proRegistry) public {\n\n        productDb = ProductRegistry(_proRegistry);\n    }\n\n    function getA() public view returns(uint){\n        return a;\n    }\n    function setA(uint _a) public {\n        SetA(a,_a);\n        a=_a;\n    }\n\n    modifier checkParameter(uint _minPrice,uint _price){\n        if (_minPrice > _price) //+ (_price*0.1) )\n        { \n            revert();\n        }\n        _;\n    }\n  \n    function publishProduct( \n        string _name,\n        uint _minPrice,\n        uint _price)\n    external\n    payable\n    checkParameter(_minPrice,_price)\n    returns( address)\n    {\n        if (msg.value != 1* 10**17 ){//assume 0.1 ether\n            revert();\n        }\n        address result=productDb.addProduct(_name,msg.sender,_minPrice,_price);\n        LogProductPublished(msg.sender,result);\n        return result;\n\n    }\n\n    function recallProduct(address _product)\n    external\n    {\n        require(Product(_product).getOwner()==msg.sender);\n        Product(_product).destroyProduct();\n        LogProductDeleted(msg.sender,_product);\n\n    }\n\n}\n",
  "sourcePath": "/Users/fatih/Desktop/Product-Bazaar/contracts/Seller.sol",
  "compiler": {
    "name": "solc",
    "version": "0.4.19+commit.c4cbbb05.Emscripten.clang"
  },
  "schemaVersion": "2.0.0",
  "updatedAt": "2018-04-18T03:42:50.581Z"
}