{
  "contractName": "Seller",
  "abi": [
    {
      "constant": true,
      "inputs": [],
      "name": "getDb",
      "outputs": [
        {
          "name": "",
          "type": "address"
        }
      ],
      "payable": false,
      "stateMutability": "view",
      "type": "function"
    },
    {
      "constant": false,
      "inputs": [],
      "name": "kill",
      "outputs": [],
      "payable": false,
      "stateMutability": "nonpayable",
      "type": "function"
    },
    {
      "constant": false,
      "inputs": [
        {
          "name": "_value",
          "type": "uint64"
        }
      ],
      "name": "transferOwner",
      "outputs": [
        {
          "name": "",
          "type": "bool"
        }
      ],
      "payable": false,
      "stateMutability": "nonpayable",
      "type": "function"
    },
    {
      "constant": true,
      "inputs": [],
      "name": "productDb",
      "outputs": [
        {
          "name": "",
          "type": "address"
        }
      ],
      "payable": false,
      "stateMutability": "view",
      "type": "function"
    },
    {
      "constant": true,
      "inputs": [],
      "name": "owneraddress",
      "outputs": [
        {
          "name": "",
          "type": "address"
        }
      ],
      "payable": false,
      "stateMutability": "view",
      "type": "function"
    },
    {
      "inputs": [
        {
          "name": "_proRegistry",
          "type": "address"
        }
      ],
      "payable": false,
      "stateMutability": "nonpayable",
      "type": "constructor"
    },
    {
      "anonymous": false,
      "inputs": [
        {
          "indexed": true,
          "name": "owner",
          "type": "address"
        },
        {
          "indexed": true,
          "name": "product",
          "type": "address"
        }
      ],
      "name": "LogProductDeleted",
      "type": "event"
    },
    {
      "anonymous": false,
      "inputs": [
        {
          "indexed": true,
          "name": "owner",
          "type": "address"
        },
        {
          "indexed": true,
          "name": "product",
          "type": "address"
        }
      ],
      "name": "LogProductPublished",
      "type": "event"
    },
    {
      "anonymous": false,
      "inputs": [
        {
          "indexed": false,
          "name": "",
          "type": "uint256"
        },
        {
          "indexed": false,
          "name": "",
          "type": "uint256"
        }
      ],
      "name": "SetA",
      "type": "event"
    },
    {
      "constant": true,
      "inputs": [],
      "name": "getA",
      "outputs": [
        {
          "name": "",
          "type": "uint256"
        }
      ],
      "payable": false,
      "stateMutability": "view",
      "type": "function"
    },
    {
      "constant": false,
      "inputs": [
        {
          "name": "_a",
          "type": "uint256"
        }
      ],
      "name": "setA",
      "outputs": [],
      "payable": false,
      "stateMutability": "nonpayable",
      "type": "function"
    },
    {
      "constant": false,
      "inputs": [
        {
          "name": "_name",
          "type": "string"
        },
        {
          "name": "_minPrice",
          "type": "uint256"
        },
        {
          "name": "_price",
          "type": "uint256"
        },
        {
          "name": "_ontheBazzar",
          "type": "bool"
        }
      ],
      "name": "publishProduct",
      "outputs": [
        {
          "name": "",
          "type": "address"
        }
      ],
      "payable": true,
      "stateMutability": "payable",
      "type": "function"
    },
    {
      "constant": false,
      "inputs": [
        {
          "name": "_product",
          "type": "address"
        }
      ],
      "name": "recallProduct",
      "outputs": [],
      "payable": false,
      "stateMutability": "nonpayable",
      "type": "function"
    }
  ],
  "bytecode": "0x6060604052341561000f57600080fd5b6040516020806109b783398101604052808051906020019091905050336000806101000a81548173ffffffffffffffffffffffffffffffffffffffff021916908373ffffffffffffffffffffffffffffffffffffffff16021790555080600160006101000a81548173ffffffffffffffffffffffffffffffffffffffff021916908373ffffffffffffffffffffffffffffffffffffffff160217905550506108fb806100bc6000396000f300606060405260043610610099576000357c0100000000000000000000000000000000000000000000000000000000900463ffffffff16806337cbf4351461009e57806341c0e1b5146100f35780635111824a146101085780635df80d58146101415780637456f87c14610186578063aaa48425146101db578063c27ec75f14610230578063d46300fd146102b0578063ee919d50146102d9575b600080fd5b34156100a957600080fd5b6100b16102fc565b604051808273ffffffffffffffffffffffffffffffffffffffff1673ffffffffffffffffffffffffffffffffffffffff16815260200191505060405180910390f35b34156100fe57600080fd5b610106610385565b005b341561011357600080fd5b61013f600480803573ffffffffffffffffffffffffffffffffffffffff16906020019091905050610419565b005b341561014c57600080fd5b61016c600480803567ffffffffffffffff169060200190919050506105ad565b604051808215151515815260200191505060405180910390f35b341561019157600080fd5b61019961067a565b604051808273ffffffffffffffffffffffffffffffffffffffff1673ffffffffffffffffffffffffffffffffffffffff16815260200191505060405180910390f35b34156101e657600080fd5b6101ee6106a0565b604051808273ffffffffffffffffffffffffffffffffffffffff1673ffffffffffffffffffffffffffffffffffffffff16815260200191505060405180910390f35b61026e6004808035906020019082018035906020019190919290803590602001909190803590602001909190803515159060200190919050506106c9565b604051808273ffffffffffffffffffffffffffffffffffffffff1673ffffffffffffffffffffffffffffffffffffffff16815260200191505060405180910390f35b34156102bb57600080fd5b6102c361087a565b6040518082815260200191505060405180910390f35b34156102e457600080fd5b6102fa6004808035906020019091905050610884565b005b60003373ffffffffffffffffffffffffffffffffffffffff166000809054906101000a900473ffffffffffffffffffffffffffffffffffffffff1673ffffffffffffffffffffffffffffffffffffffff16141561037d57600160009054906101000a900473ffffffffffffffffffffffffffffffffffffffff169050610382565b600080fd5b90565b3373ffffffffffffffffffffffffffffffffffffffff166000809054906101000a900473ffffffffffffffffffffffffffffffffffffffff1673ffffffffffffffffffffffffffffffffffffffff161415610414576000809054906101000a900473ffffffffffffffffffffffffffffffffffffffff1673ffffffffffffffffffffffffffffffffffffffff16ff5b600080fd5b3373ffffffffffffffffffffffffffffffffffffffff168173ffffffffffffffffffffffffffffffffffffffff1663893d20e86000604051602001526040518163ffffffff167c0100000000000000000000000000000000000000000000000000000000028152600401602060405180830381600087803b151561049c57600080fd5b6102c65a03f115156104ad57600080fd5b5050506040518051905073ffffffffffffffffffffffffffffffffffffffff161415156104d957600080fd5b8073ffffffffffffffffffffffffffffffffffffffff1663072162d76040518163ffffffff167c0100000000000000000000000000000000000000000000000000000000028152600401600060405180830381600087803b151561053c57600080fd5b6102c65a03f1151561054d57600080fd5b5050508073ffffffffffffffffffffffffffffffffffffffff163373ffffffffffffffffffffffffffffffffffffffff167f3afca3e6085bd7c71094568b5a177a9f65d9e7cfbd3da0a1cd4234b273d5980260405160405180910390a350565b6000803373ffffffffffffffffffffffffffffffffffffffff166000809054906101000a900473ffffffffffffffffffffffffffffffffffffffff1673ffffffffffffffffffffffffffffffffffffffff16141561066f576000809054906101000a900473ffffffffffffffffffffffffffffffffffffffff1673ffffffffffffffffffffffffffffffffffffffff166108fc8467ffffffffffffffff169081150290604051600060405180830381858888f193505050509050809150610674565b600080fd5b50919050565b600160009054906101000a900473ffffffffffffffffffffffffffffffffffffffff1681565b60008060009054906101000a900473ffffffffffffffffffffffffffffffffffffffff16905090565b6000808484808211156106db57600080fd5b67016345785d8a0000341415156106f157600080fd5b600160009054906101000a900473ffffffffffffffffffffffffffffffffffffffff1673ffffffffffffffffffffffffffffffffffffffff1663084c11458a8a338b8b8b6000604051602001526040518763ffffffff167c010000000000000000000000000000000000000000000000000000000002815260040180806020018673ffffffffffffffffffffffffffffffffffffffff1673ffffffffffffffffffffffffffffffffffffffff1681526020018581526020018481526020018315151515815260200182810382528888828181526020019250808284378201915050975050505050505050602060405180830381600087803b15156107f457600080fd5b6102c65a03f1151561080557600080fd5b5050506040518051905092508273ffffffffffffffffffffffffffffffffffffffff163373ffffffffffffffffffffffffffffffffffffffff167f83c67e23eddacee61715f89c60a0e744dcc70966e3b9e793070899975c06697760405160405180910390a382935050505095945050505050565b6000600254905090565b7f957df8e52767ddd61ddc091a6debbe310c21fb54b6a55698f463b248f67eb6db60025482604051808381526020018281526020019250505060405180910390a180600281905550505600a165627a7a72305820e233e5e06f4ff31799a4c59945183af218f246410aaa8e514857ea25970ae3160029",
  "source": "pragma solidity ^0.4.4;\nimport \"./Base.sol\";\nimport \"./ProductRegistry.sol\";\n\ncontract Seller is Base {\n\n    event LogProductDeleted(address indexed owner, address indexed product);\n    event LogProductPublished(address indexed owner, address indexed product);\n    event SetA(uint , uint );\n\n\n    uint a;\n\n\n    function Seller(address _proRegistry) public {\n\n        productDb = ProductRegistry(_proRegistry);\n    }\n\n    function getA() public view returns(uint){\n        return a;\n    }\n    function setA(uint _a) public {\n        SetA(a,_a);\n        a=_a;\n    }\n\n    modifier checkParameter(uint _minPrice,uint _price){\n        if (_minPrice > _price) //+ (_price*0.1) )\n        { \n            revert();\n        }\n        _;\n    }\n  \n    function publishProduct( \n        string _name,\n        uint _minPrice,\n        uint _price,\n        bool _ontheBazzar)\n    external\n    payable\n    checkParameter(_minPrice,_price)\n    returns( address)\n    {\n        require(msg.value == 1* 10**17 ); //assume 0.1 is publishin gproduct\n        address result=productDb.addProduct(_name,msg.sender,_minPrice,_price,_ontheBazzar);\n        LogProductPublished(msg.sender,result);\n        return result;\n    }\n\n    function recallProduct(address _product)\n    external\n    {\n        require(Product(_product).getOwner()==msg.sender);\n        Product(_product).destroyProduct();\n        //productDb.removeProduct\n        LogProductDeleted(msg.sender,_product);\n    }\n\n}\n",
  "sourcePath": "/Users/fatih/Desktop/Product-Bazaar/contracts/Seller.sol",
  "compiler": {
    "name": "solc",
    "version": "0.4.19+commit.c4cbbb05.Emscripten.clang"
  },
  "schemaVersion": "2.0.0",
  "updatedAt": "2018-05-06T17:05:04.420Z"
}